:020000040800F2
:1000000000100020453D0108593F07085B3F0708E5
:100010005D3F07085F3F0708613F0708F5AB07082A
:10002000000000000000000000000000633F07081F
:10003000653F070800000000673F0708693F0708A1
:10004000F9AB0708FDAB07086D3F070801AC0708CF
:1000500005AC070809AC07080DAC070811AC070888
:1000600015AC0708733F070819AC07081DAC070853
:1000700021AC070825AC070829AC07082DAC0708F8
:1000800031AC070835AC070839AC07083DAC0708A8
:1000900041AC070845AC070849AC07084DAC070858
:1000A00051AC070855AC070859AC07085DAC070808
:1000B00061AC0708A73F07084D40070855400708EF
:1000C00065AC070869AC07086DAC0708AD3F0708C9
:1000D00071AC070875AC070879AC07087DAC070858
:1000E00081AC070885AC070889AC07088DAC070808
:1000F00091AC070895AC0708B33F070899AC07080F
:100100009DAC0708A1AC0708A5AC0708B93F0708D4
:10011000A9AC07085D400708ADAC0708B1AC0708FB
:10012000B5AC0708B9AC0708BDAC0708C1AC0708F7
:10013000C5AC0708E93F0708C9AC0708CDAC0708FC
:10014000D1AC0708D5AC0708CD3F0708D9AC0708E4
:10015000DDAC0708E1AC0708E5AC07089D1B01080A
:10016000E9AC0708EDAC0708F1AC0708F5AC0708E7
:10017000F9AC0708FDAC070801AD070805AD070895
:1001800009AD07080DAD07082DE9F04F81B02DED41
:10019000108BCAB08646407F3C2842D1002400BF65
:1001A0001019D0E938C7D0E93A65503CC0E93CC7DE
:1001B000C0E93E65D0E93676C0E93A76D0E932C783
:1001C000D0E93456C0F8E460C0E93775D0F8C4709F
:1001D000C0E9357CD0E92F76C0E93376D0E92D76B9
:1001E000C0E93176D0E92B76C0E92F76D0E92976BF
:1001F000C0E92D76D0F8A06014F1F007C0F8B06027
:10020000CED1D2E90406D2E9065701EE100AC2E9BE
:100210000000B0EE410AC2E90266C2E904559761E6
:1002200003E092ED000A92ED011AB5EE003ADDF816
:1002300090C121EE035AB6EE081A012020EE014AC1
:1002400020EE032A34EE054A0027F6EE009A00BF9E
:10025000D61996ED026A75EE051A96ED037A32EE1E
:10026000212A66EE031A26EE296AD6ED040A32EE3A
:10027000212A36EE055A27EE296A27EE037AD6EDB3
:10028000052A36EE216A60EE831A35EE075A86EDAE
:10029000012A86ED004A20EEA92A36EE216A86ED73
:1002A000025A352822EE834A37EE022A96ED065A84
:1002B00086ED036A22EEA96A25EE037A32EE042A5D
:1002C000D6ED070A25EE295A36EE216A35EE044AA4
:1002D00086ED042A96ED082A20EEA95A36EE076A22
:1002E00060EE831A37EE057A96ED095A62EE290A16
:1002F00086ED056A34EE216A22EE034A25EE032AD2
:1003000070EEA10A37EE047A70EE820A86ED066A74
:1003100086ED077AC6ED080A0CD296ED0A0A25EE9C
:10032000296A20EE035A36EE040A093030EE054AF7
:1003300024378DE725EE011AB7EE002A002031EEB2
:10034000041A86ED091A92ED001A00BF9EED054AC7
:10035000171824EE022A97ED014A97ED026A24EE5F
:10036000024A97ED037A87ED014A24309EED055A43
:10037000D7ED040A25EE022A34EE011A26EE025ABF
:1003800097ED074A87ED025AFC289EED056A35EE87
:10039000011A26EE022A27EE026A87ED036A9EED15
:1003A000057A36EE011A27EE022A20EE827A87EDD0
:1003B000047ADEED050A37EE011A20EE822AD7ED27
:1003C000050A60EE820AC7ED050ADEED051A30EE79
:1003D000811A21EE822AD7ED061A61EE821AC7ED44
:1003E000061ADEED052A31EE811A22EE822A24EE6B
:1003F000024A87ED074A9EED055A34EE011A25EEB2
:10040000022A97ED085A97ED094A25EE025A87ED20
:10041000085A9EED056A35EE011A26EE022A24EEF0
:10042000024A34EE011A87ED094A8FD19FED102A56
:100430009FED105A21EE021A9FED0F2A9FED0F6AD1
:100440009FED0F7ADFED0F0ADFED0F1ADFED0F2AB8
:10045000DFED0F3ADFED0F4ADFED0F5ADFED0F6AE8
:1004600081FE024A0024B7EE000A4FF000475EE02A
:1004700017B7D135B3CE010C0000802F3EF17F4F6E
:1004800027DA1DBECEF4833F89DA40C04BA908406D
:1004900027DA1D3ECEF483BF89DA40404BA908C05D
:1004A000ABAA2A3DABAAAA3D0000803D9A99593FCC
:1004B000CDCC4C3EABAAAA3E7B142E3E80EE011A58
:1004C000B4EE461A61EE027AF1EE10FA77FE817A06
:1004D000B4EE461ABCEEE78AF1EE10FA18EE100AF6
:1004E000B0FA80F027FA00F508EE105A4FF01F0519
:1004F000B8EE488AC8BF3F25281AC7EE887A08EEAA
:10050000100AB8EE488A27EE871A31EE201A21EE3B
:10051000271A31EE211A21EE271A72EEC87A37EE29
:10052000811A0434B4F5807F86ED001A40D0161984
:1005300096ED001A81FE041A31EE051AB4EE401A47
:10054000F1EE10FABADBB4EE461A61EE027AF1EE81
:1005500010FA77FE817AB4EE461ABCEEE78AF1EE25
:1005600010FA18EE100AB0FA80F027FA00F508EE3B
:10057000105A4FF01F05B8EE488AC8BF3F25281A09
:10058000C7EE887A08EE100AB8EE488A27EEA31A5A
:1005900031EE241A21EE271A31EE251A21EE271A00
:1005A00078EE267ABBE700BF5655D53F9A99993E1B
:1005B00092ED001A92ED046A92ED035A36EE017A3A
:1005C0001FED494A35EE011A1FED4A5A92ED012AF4
:1005D00027EE047A21EE051AD2ED020A31EE071A4F
:1005E00030EE827AD2ED3B0AD2ED3C1AD2ED3F2AB0
:1005F000D2ED3D3A72EEA00A71EEA21AD2ED3E2A79
:1006000060EE840A61EE851A72EEA32AB4EE000A47
:100610001AA827EE007A71EEA00A62EE801A31EE77
:10062000077A70EEA10AA0F108048DED1A7A30EE77
:10063000871A0027CDED290AD019D0ED081AD0ED80
:10064000032AD0ED073A90ED057AD0ED060A71EE57
:10065000A22A33EE866A62EE842A26EE056A30EE1E
:10066000877A36EE226A27EE007A203736EE077A4E
:10067000E02F84ED037A90ED0C6AD0ED070AD0EDFF
:100680000B3AD0ED092A76EE200A73EEA11AD0EDCE
:100690000A3A60EE840A61EE851A73EEA22A71EEC0
:1006A000A00A62EE801A37EE011A30EEA17A37EE18
:1006B000011A84ED047A04F10804BDD11FED86CA45
:1006C000DDED224A21EE0C1ADDED256A34EEC18AF9
:1006D000DDED244A36EEC1DA34EEC1AADDED264A5C
:1006E000DDED276A9DED1A4A9DED1B5A9DED1C6AB2
:1006F0009DED1D7ADDED1E0ADDED1F1ADDED202AD0
:10070000DDED213ADDED235A34EEC1EA36EEC1FAD1
:10071000DDED284ADDED296A34EE414A5FED9D7A30
:1007200035EE415A36EE416A37EE417A70EEC10A33
:1007300071EEC11A72EEC12A73EEC13A75EEC15A5A
:1007400074EEC18A36EEC11A24EE274A25EE27BA86
:1007500066EE276A67EE274A60EEA70A21EEA77ABF
:1007600062EEA72A23EEA76A28EE279A25EEA78A2B
:100770006AEE275A6FEE273A68EEA71A21EE275A3B
:100780002DEE27AA6EEE277ABCF1000F8DED1A4AE6
:100790008DED1BBACDED1C6ACDED1D4ACDED1E0AC7
:1007A0008DED1F7ACDED202A8DED216A8DED229AF7
:1007B0008DED238ACDED245A8DED25AACDED267A37
:1007C000CDED273ACDED281A8DED295A119100F083
:1007D000ED803BEE041A73EEC93A31EE261A76EE3E
:1007E000666A37EEC66A79EE647A74EE814A71EE13
:1007F000C81A38EE608A70EEA40A37EE444A1FED3C
:10080000D49A32EECBBA60EE890A24EE094A35EE6C
:10081000C77A35EE655A6BEE095A1FEDDABA34EE37
:10082000204A66EE896A21EE0B1A75EE845A24EE90
:10083000833A76EEA54A73EE016A67EE897A76EE20
:10084000A06A28EE098A76EE846A77EEA47A76EEBC
:10085000A56A7AEE622A27EE097A38EE278A76EEC2
:10086000A46A62EE892A37EE087A76EEA76A26EE47
:10087000096A72EE872A76EE886A63EE893A36EE66
:10088000226A76EE876A61EE891A73EE863A76EE10
:10089000A26A1FEDF7AA25EE095A71EEA31A76EEA9
:1008A000866A2DEE0A9A35EE215A76EEA36A2EEE6E
:1008B0000AAA35EE499A76EEA16AB7EE04BADEF8D6
:1008C000100039EE4AAA29EE0B9A1FEDC9BA76EE4E
:1008D000856A2AEE0BAA76EE896A1FEDCCBA76EE0F
:1008E0008A6A642866EE8C6A09FE8BCA31EE661A43
:1008F00033EE663A70EEE60A34EE66DA75EEE65AE4
:1009000034EEE6EA77EEE67A38EE668A37EE66FA95
:1009100072EEE68A76EE669A73EEE63A71EEE61AC3
:1009200035EE665A79EE66AA7AEE66BA2CEE014A80
:100930002CEE03BA6CEE206A6CEE0D4A6CEE250AC2
:100940002CEE0E7A6CEE272A2CEE086A2CEE0F9A0B
:100950002CEE288A6CEE295A2CEE23AA6CEE217A12
:100960006CEE053A6CEE2A1A2CEE2B5A8DED1A4AD3
:100970008DED1BBACDED1C6ACDED1D4ACDED1E0AE5
:100980008DED1F7ACDED202A8DED216A8DED229A15
:100990008DED238ACDED245A8DED25AACDED267A55
:1009A000CDED273ACDED281A8DED295ADEF804C099
:1009B0006FF002010CEB4C009FED0D3A01EA400094
:1009C00044F24815184443F64858B0EE43CA00F1C3
:1009D000700600F580700CF5C0790024002100221B
:1009E000C0F606050027C0F60608089002E000BF22
:1009F000CAF24971281990ED001A90ED01DA34EE2F
:100A0000411A3BEE4DDA21EE011A2DEE0DDA90ED92
:100A100002EA3DEE011A36EECEDA90ED03EA2DEE53
:100A20000DDA34EECEEA31EE0D1A2EEE0EDA90ED3E
:100A300004EA31EE0D1A30EECEDA90ED05EA2DEE35
:100A40000DDA37EE4EEA31EE0D1A2EEE0EDA90ED9B
:100A500006EA31EE0D1A32EECEDA90ED07EA2DEE0F
:100A60000DDA36EE4EEA31EE0D1A2EEE0EDA08EB06
:100A7000040031EE0D1A90ED00DA90ED01EA39EE46
:100A80004DDA38EE4EEA2DEE0DDA2EEE0EEA90ED4E
:100A900002FA3EEE0DDA35EECFEA90ED03FA2EEED5
:100AA0000EEA3AEE4FFA3DEE0EDA2FEE0FEA90ED37
:100AB00004FA3DEE0EDA37EECFEA90ED05FA2EEEAF
:100AC0000EEA33EECFFA3DEE0EDA2FEE0FEA90ED9E
:100AD00006FA3DEE0EDA31EECFEA90ED07FA2EEE91
:100AE0000EEA35EE4FFA3DEE0EDA2FEE0FEAB4EED7
:100AF000431A3DEE0EDAF1EE10FAB8BF0A46B4EE34
:100B00004CDA203481FE433AF1EE10FAB8BF0F46BA
:100B100001318DFE4CCAB4F5806F7FF46BAF08EBEA
:100B2000471105EB421091ED003A90ED001A39EEB5
:100B300043DA91ED013A34EE41CA38EE438A90ED42
:100B4000023A91ED024A76EEC36A90ED033A75EEF1
:100B5000C45A74EEC34A90ED043A91ED034A70EE24
:100B6000C30A90ED053A90ED011A3AEE449A91EDE0
:100B7000044A37EE43AA90ED063A91ED067A3BEE31
:100B8000411A77EEC47A91ED054A32EEC3BA31EEDE
:100B9000C7EA90ED073A91ED077A33EEC44A36EE94
:100BA00043FA75EE478A0F90CDED1C6A8DED274A0A
:100BB0008DED259A34EE263A36EEC44ACDED1E0A66
:100BC000CDED1D4A30EE895A30EEC96ACDED267A58
:100BD000CDED245A37EEA47A74EEE70A8DED1FAA04
:100BE00006F148007AEE251A7AEE652A8DED238A01
:100BF0003AAC7BEE083A7BEE484A7EEE015A71EE43
:100C00004E6A78EE8C7A3CEE688A3FEE0D9A3FEEA3
:100C10004DAA40F298658DED20BA0E918DED1B1A0C
:100C200009908DED28EA06F1D808BCF5C07F88BF91
:100C30004FEA4C0983F86D208DED1ACA04F10801C2
:100C40008DED22DA00228DED21FAC0F60705CDEDFB
:100C5000298A83F86E7000BFA81890ED001A90EDF5
:100C600010BA90ED01CA90ED11DA21EE271A2BEEA1
:100C700025BA2CEE08CA2DEE26DA3BEE011A3DEE1F
:100C80000CBA90ED20CA90ED21DA2CEE03CA2DEEBD
:100C900004DA31EE0C1A3BEE0DBA90ED30CA90ED4D
:100CA00041DA2CEE07CA2DEE06DA31EE0C1A3BEED5
:100CB0000DBA90ED40CA90ED31DA2CEE05CA2DEE5A
:100CC00020DA31EE0C1A3BEE0DBA90ED50CA90EDE1
:100CD00051DA2CEE21CA2DEE22DA31EE0C1A3BEE5F
:100CE0000DBA90ED60CA90ED61DA2CEE23CA2DEEBC
:100CF00024DA31EE0C1A3BEE0DBA90ED70CA90ED8D
:100D000071DA2CEE09CA2DEE0ADA31EE0C1A3BEE3E
:100D10000DBA90ED02CA90ED12DA90ED03EA90ED73
:100D200013FA2CEE27CA2DEE25DA2EEE08EA2FEE66
:100D300026FA3DEE0CCA3FEE0EDA90ED22EA90ED77
:100D400023FA2EEE03EA2FEE04FA3CEE0ECA3DEE35
:100D50000FDA90ED32EA90ED43FA2EEE07EA2FEE2D
:100D600006FA3CEE0ECA3DEE0FDA90ED42EA90ED47
:100D700033FA2EEE05EA2FEE20FA3CEE0ECA3DEED7
:100D80000FDA90ED52EA90ED53FA2EEE21EA2FEEB3
:100D900022FA3CEE0ECA3DEE0FDA90ED62EA90EDDB
:100DA00063FA2EEE23EA2FEE24FA3CEE0ECA3DEE55
:100DB0000FDA90ED72EA90ED73FA2EEE09EA2FEE5B
:100DC0000AFA3CEE0ECA3DEE0FDAA0188F1880ED3D
:100DD000001A103207ED01BA402A87ED00CA80EDF3
:100DE00003DA7FF439AF9DED3A0AF1EE04BA00253B
:100DF000B5EE400AF1EE10FAAFBF0020B1EE400AA6
:100E00008DED3A0A01209DED3B2A2A90B5EE402A4D
:100E1000F1EE10FAAFBF0020B1EE422A8DED3B2A71
:100E200001209DED3C5A2B90B5EE405A32EE001A4F
:100E3000F1EE10FAAFBF0020B1EE455A8DED3C5AED
:100E400001209DED3D6A2C90B5EE406A31EE051A09
:100E5000F1EE10FAAFBF0020B1EE466A8DED3D6AAB
:100E600001209DED3E7A2D90B5EE407A31EE061AC6
:100E7000F1EE10FAAFBF0020B1EE477A8DED3E7A69
:100E80000120DDED3F0A2E90F5EE400A31EE071A03
:100E9000F1EE10FAAFBF0020F1EE600ACDED3F0A8F
:100EA0000120DDED401A2F90F5EE401A31EE201AA8
:100EB000F1EE10FAAFBF0020F1EE611ACDED401A4D
:100EC0000120DDED412A3090F5EE402A31EE211A65
:100ED000F1EE10FAAFBF0020F1EE622ACDED412A0B
:100EE0000120DDED423A3190F5EE403A31EE221A22
:100EF000F1EE10FAAFBF0020F1EE633ACDED423AC9
:100F00000120DDED436A3290F5EE406A31EE231A9E
:100F1000F1EE10FAAFBF0020F1EE666ACDED436A44
:100F20000120DDED447A3390F5EE407A31EE261A59
:100F3000F1EE10FAAFBF0020F1EE677ACDED447A02
:100F400001209DED458A3490B5EE408A31EE271A96
:100F5000F1EE10FAAFBF0021B1EE488A8DED458A5F
:100F600001219DED46EA3591B5EE40EA31EE081AD1
:100F7000F1EE10FAAFBF0022B1EE4EEA8DED46EA77
:100F800001229DED47FA3692B5EE40FA31EE0E1A87
:100F9000F1EE10FAAFBF0024B1EE4FFA8DED47FA33
:100FA0000124DDED488A3794F5EE408A31EE0F1AC0
:100FB000F1EE10FAAFBF0027F1EE688ACDED488A56
:100FC0000127DDED499A31EE281AF5EE409A38975F
:100FD000F1EE10FA1293CDF840E0CDF83490CDF850
:100FE00058800790CDE90421CDE90247AFBF00202A
:100FF000F1EE699ACDED499A012071EE29AA20EE11
:101000002B1A069081EE2A4A22EE2B1A3990C1EE55
:101010002A4A25EE2B1A60EEAB0A81EE2A9A26EEBA
:101020002B1A61EEAB1A81EE2A6A62EEAB2A63EEEE
:10103000AB3AC2EEAA2A66EEAB6A8DED134ABDEE5C
:10104000C41ABDEEC43A27EE2B4A86ED003ACDED28
:101050000C4AC4EE2A5ABDEEE43ABDEEE44AC0EEB4
:10106000AA4A86ED014A8DED0B9ABDEEC94ABDEE46
:10107000C99A8DED0A6A86ED029A81EEAA9AFDEE72
:10108000C61ABDEEC6AA67EEAB7A86ED03AAFDEEE0
:10109000E5CABDEEE5AA87EEAACA86ED04AA83EEEC
:1010A000AAAAFDEEE43ABDEEE4BA68EE2B7A86ED2C
:1010B00005BA86EEAABA87EEAADA6EEE2B7A11EEA0
:1010C000102A87EEAAEA6FEE2B7ABDEEC91AFDEE62
:1010D000C96A87EEAAFA28EEAB8A13EE104AC6ED6B
:1010E000066ABDEEE23AFDEEE26AC8EE2A8A14EE26
:1010F00010AAC6ED076ABDEECA4AFDEECA6A11EE35
:10110000901AC6ED086AFDEECB1AFDEECB6A13EE1F
:1011100090BA69EEAB3AC6ED096AFDEECC6AFDEE17
:10112000CC7AC3EEAA9AC6ED0A7AFDEECD7ABDEE70
:10113000CD8A11EE108A86ED0B8ABDEECE1AFDEE39
:10114000CE3A13EE10CAC6ED0C3AFDEECFBABDEEA4
:10115000CF3A11EE907A16EE909A17EE900A1CEEA6
:10116000903A199786ED0D3ACDF85490FDEEE8CA05
:10117000BDEEE83A189011EE100A86ED0E3A17907F
:1011800002FB02F0FDEEE96A03EE900A0AFB0AF0A8
:10119000FDEEE91AC6E9105504FB04F5C6ED0F1A79
:1011A00008EE100A03FB03F014EE10EA07EE905A63
:1011B00001FB01F50DEE900A08FB08F00AEE905ACB
:1011C0000BFB0BF50FEE900A0EFB0EF00EEE905A95
:1011D0000CFB0CF507EE100A09FB09F000EE905A23
:1011E00007FB07F505EE100A17981BEE907A00FB37
:1011F00000F007FB07F99DED131A0BEE900A1CEEA9
:10120000900A0CEE909A16EE909AF6EEC16A06EEEF
:10121000105A189D149060EE261AF8EEE33AF8EE94
:10122000E76A9DED0C0AB8EEC88AF6EEC07A9DED2D
:101230000B0A73EEA63A62EE276AB6EEC02ADDED1F
:101240003C7A9DED0A0A71EEA61A27EE822A73EE09
:10125000886AB6EEC00A9DED3D8A31EE822A28EEFC
:10126000000ADDED3E3A32EE000AB6EEE52ADDED8B
:101270003F1AF8EEEAAA23EE822A76EEAA6AF8EE80
:10128000ED5A30EE020AB6EEE42A76EEA55AF8EEF2
:10129000EE4A21EE822A75EEA44A30EE020AB8EE3A
:1012A000EF2AF6EEC96ADDED405A34EE822A65EE89
:1012B000A64AF8EEE00AF6EEE22ADDED416A30EEEB
:1012C000240A66EEA22A32EE202A30EE220AB8EE76
:1012D000C77AF6EECA0ADDED422A32EE072A22EE7E
:1012E000A07AB8EEC66AF6EECB0ADDED434A05FBFE
:1012F00005F530EE070A24EEA07A04EE105A32EE1D
:10130000062A30EE070AB8EEC55AB6EECC7A9DED45
:10131000446A32EE052A26EE075AB8EEC44AB6EE03
:10132000CD7ADDED450A00FB00F509FB09F030EE52
:10133000050A20EE875A01EE100A32EE042A30EE3A
:10134000050AB8EEEB4AB6EECE5A9DED467AA018E5
:10135000504432EE042A27EE054AB8EEEC9AB6EE77
:10136000CFAA9DED475A0844184403EE105A30EEB8
:10137000040A25EE0A4A5844404430EE040AB8EE06
:10138000C33A9DED484AB8EEC11A6044199D7044B5
:101390002844159D32EE092A2844189DB6EEE89A95
:1013A0002844179D32EE032A24EE099AB6EEE9AAE4
:1013B0009DED493A2844149D30EE090A23EE0AAA0D
:1013C0003844284432EE019A30EE0ABA00EB09059F
:1013D00086ED119A9FEDEE2A062D86ED10BA139731
:1013E00080F2D8819DED3ACA9DED3BDAC5F1060742
:1013F000B7EE000A0DF1E80E500001EE100A600091
:1014000008EE900AB8EEC11A3BEE0CEA39EE009AEB
:101410003BEE0DFAF8EEE88A2EEE0EEA39EE011AEE
:101420002FEE0FFA79EE288A61EE0F9A68EE8EAAF7
:101430004FEA4A00F4EE6A9A0022F1EE10FA38FE02
:10144000811A08EE900A3FFE0EEA3BEE27FAF8EE0C
:10145000E88A2FEE0FFA79EE288A61EE0F9A6EEE87
:1014600028AAC8BF01224800F4EE6A9AF1EE10FAE9
:1014700038FE811A08EE900A3FFE0EEA3BEE08FAAB
:10148000F8EEE88A2FEE0FFA79EE288A61EE0F9ACD
:101490006EEE28AAC8BF02225800F4EE6A9AF1EE56
:1014A00010FA38FE811A08EE900A3FFE0EEA3BEE73
:1014B00023FAF8EEE88A2FEE0FFA79EE288A61EE29
:1014C0000F9A6EEE28AAC8BF03224FEA4B00F4EE33
:1014D0006A9A06F10C0BF1EE10FA38FE811A08EE4A
:1014E000900A3FFE0EEA3BEE21FAF8EEE88A2FEE74
:1014F0000FFA79EE288A61EE0F9A6EEE28AAC8BF1D
:1015000004224FEA4800F4EE6A9AF1EE10FA38FE2F
:10151000811A08EE900A3FFE0EEA3BEE25FAF8EE3D
:10152000E88A2FEE0FFA79EE288A61EE0F9A6EEEB6
:1015300028AAC8BF05224FEA4C00F4EE6A9AF1EEE1
:1015400010FA38FE811A08EE900A3FFE0EEA3BEED2
:1015500026FAF8EEE88A2FEE0FFA79EE288A61EE85
:101560000F9A6EEE28AAC8BF0622D6E90805F4EE47
:101570006A9A4000F1EE10FAD6E90A3138FE811A73
:1015800008EE900A3FFE0EEA3BEE22FAF8EEE88AF9
:101590002FEE0FFA79EE288A61EE0F9A6EEE28AAE6
:1015A000C8BF07226800F4EE6A9AF1EE10FA38FE1E
:1015B000811A08EE900A3FFE0EEA3BEE24FAF8EE9E
:1015C000E88A2FEE0FFA79EE288A61EE0F9A6EEE16
:1015D00028AAC8BF08225800F4EE6A9AF1EE10FA61
:1015E00038FE811A08EE900A3FFE0EEA3BEE06FA3C
:1015F000F8EEE88A2FEE0FFA79EE288A61EE0F9A5C
:101600006EEE28AAC8BF09224800F4EE6A9AF1EEED
:1016100010FA38FE811A08EE900A3FFE0EEA3BEE01
:1016200020FAF8EEE88A2FEE0FFA79EE288A61EEBA
:101630000F9A6EEE28AAC8BF0A22306BF4EE6A9A9F
:101640004000F1EE10FA38FE811A08EE900A3FFED3
:101650000EEA3BEE07FAF8EEE88A2FEE0FFA79EE83
:10166000288A61EE0F9A6EEE28AAC8BF0B22706B13
:10167000F4EE6A9A4000F1EE10FA38FE811A08EE94
:10168000900A3FFE0EEA3BEE05FAF8EEE88A2FEEEE
:101690000FFA79EE288A61EE0F9A6EEE28AAC8BF7B
:1016A0000C22B06BF4EE6A9A4000F1EE10FA38FEAC
:1016B000811A08EE900A3FFE0EEA3BEE04FAF8EEBD
:1016C000E88A2FEE0FFA79EE288A61EE0F9A6EEE15
:1016D00028AAC8BF0D22F06BF4EE6A9A4000F1EE22
:1016E00010FA38FE811A08EE900A3FFE0EEA3BEE31
:1016F00003FAF8EEE88A2FEE0FFA39EE289A2FEE69
:1017000001FA2EEE09EAC8BF0E22B4EE4EFAF1EE4F
:1017100010FAC8BF0F220EEB820039FE019A90ED3D
:10172000001A56F8220031EE0BBA013046F82200BA
:10173000D6E9068C96E814049BE80A08013F7FF47A
:101740005BAEB06AD6E908E51590D6E90B90179024
:10175000706B1390D6E90E701995CDF860901497C0
:101760000190A01850440844184458444044604430
:1017700070442844159D28444844DDF85C90139D2E
:10178000484428443844019FC519384609E000BF41
:10179000000000004846B7EE000ADDF85C90B0EEAD
:1017A000429A159F072D3767189FC6E91D79139F29
:1017B000F767149FC6E9207006F1480080E814041A
:1017C00006F1540080E80A0806F1600080E8005144
:1017D00086ED10BA199F86ED119A86ED22BA86ED34
:1017E000239AF7668DED0C3A8DED0B4A8DED0A5A72
:1017F00000F3B6819DED3ACA9DED3BEAB0EE49DAC1
:10180000DDF82490EF1F00BF500001EE100A6000C9
:1018100009EE900AB8EEC11A3BEE0CFA3DEE00DA82
:101820007BEE0E8AF8EEE99A2FEE0FFA3DEE011AE2
:1018300068EEA88A7DEE299A61EE28AA69EE8FBA31
:101840004FEA4A00F4EE6BAA0022F1EE10FA39FEDC
:10185000811A09EE900A38FE8FFA7BEE278AF8EE9D
:10186000E99A68EEA88A7DEE299A61EE28AA6FEEC1
:1018700029BAC8BF01224800F4EE6BAAF1EE10FAB3
:1018800039FE811A09EE900A38FE8FFA7BEE088A3B
:10189000F8EEE99A68EEA88A7DEE299A61EE28AA08
:1018A0006FEE29BAC8BF02225800F4EE6BAAF1EE1F
:1018B00010FA39FE811A09EE900A38FE8FFA7BEE93
:1018C000238AF8EEE99A68EEA88A7DEE299A61EEFD
:1018D00028AA6FEE29BAC8BF03224FEA4B00F4EEE4
:1018E0006BAAF1EE10FA39FE811A09EE900A38FE61
:1018F0008FFA7BEE218AF8EEE99A68EEA88A7DEEEF
:10190000299A61EE28AA6FEE29BAC8BF04224FEACD
:101910004800F4EE6BAAF1EE10FA39FE811A09EED6
:10192000900A38FE8FFA7BEE258AF8EEE99A68EE87
:10193000A88A7DEE299A61EE28AA6FEE29BAC8BF5F
:1019400005224FEA4C00F4EE6BAAF1EE10FA39FED4
:10195000811A09EE900A38FE8FFA7BEE268AF8EE9D
:10196000E99A68EEA88A7DEE299A61EE28AA6FEEC0
:1019700029BAC8BF06224FEA4E00F4EE6BAAF1EE78
:1019800010FA39FE811A09EE900A38FE8FFA7BEEC2
:10199000228AF8EEE99A68EEA88A7DEE299A61EE2D
:1019A00028AA6FEE29BAC8BF0722D6E91B05F4EEB4
:1019B0006BAA4000F1EE10FAD6E91D3139FE811A0A
:1019C00009EE900A38FE8FFA7BEE248AF8EEE99A47
:1019D00068EEA88A7DEE299A61EE28AA6FEE29BAF0
:1019E000C8BF08226800F4EE6BAAF1EE10FA39FEC7
:1019F000811A09EE900A38FE8FFA7BEE068AF8EE1D
:101A0000E99A68EEA88A7DEE299A61EE28AA6FEE1F
:101A100029BAC8BF09225800F4EE6BAAF1EE10FAF9
:101A200039FE811A09EE900A38FE8FFA7BEE208A81
:101A3000F8EEE99A68EEA88A7DEE299A61EE28AA66
:101A40006FEE29BAC8BF0A224800F4EE6BAAF1EE85
:101A500010FA39FE811A09EE900A38FE8FFA7BEEF1
:101A6000078AF8EEE99A68EEA88A7DEE299A61EE77
:101A700028AA6FEE29BAC8BF0B22F06FF4EE6BAA4A
:101A80004000F1EE10FA39FE811A09EE900A38FE94
:101A90008FFA7BEE058AF8EEE99A68EEA88A7DEE69
:101AA000299A61EE28AA6FEE29BAC8BF0C22D6F88F
:101AB0008000F4EE6BAA4000F1EE10FA39FE811AB4
:101AC00009EE900A38FE8FFA7BEE048AF8EEE99A66
:101AD00068EEA88A7DEE299A61EE28AA6FEE29BAEF
:101AE000C8BF0D22D6F88400F4EE6BAA4000F1EED8
:101AF00010FA39FE811A09EE900A38FE8FFA7BEE51
:101B0000038AF8EEE99A68EEA88A3DEE29DA68EED3
:101B1000818A2FEE0DFAC8BF0E223AA8F4EE4F8A42
:101B2000F1EE10FAC8BF0F2200EB82003DFE01DA91
:101B300090ED001A59F8220031EE0BBA013049F845
:101B40002200D6E917B8D6F864C067B106F1480A92
:101B50009AE81404D6E91513D6F868E0013753E67D
:101B6000B0EE42DA07E0D6E91AE7D6E9151306F136
:101B7000480A9AE8140406F1900080E8140406F17B
:101B80009C0080E80A0806F1A80080E8005186ED74
:101B900022BA02FB02F086ED23DAC6F8B47001EE39
:101BA000100A04FB04F0B8EEC10A01EE102A8DED14
:101BB000180A0025B8EEC10A01EE100A8DED190AC7
:101BC000C6E92E55C6E93055C6E932559DED3ACAEB
:101BD0009DED3BBAF8EEC1FA0AFB0AF001EE104A9D
:101BE0000BEE901AB8EEC10A01EE100A01FB01F0EB
:101BF0008DED170AB8EEC1FA01EE10AA0AEE900AAE
:101C000003FB03F0B8EEC11AB8EEEA2AB8EEEBAA6D
:101C10000BEE900A0BFB0BF00CEE903AB8EEEB0AD1
:101C2000F8EEEC8A0CEE900A08FB08F00DEE90BA84
:101C3000B8EEEC3AF8EEED9A0DEE900A0CFB0CF0D3
:101C40000EEE908AB8EEED4AF8EEEEAA0EEE900A8D
:101C50000EFB0EF0B8EEEE5A0CEE900A07FB07F002
:101C60000BEE90CA0DEE90EA0EEE900A0EEE107A90
:101C7000F8EEEBBAF8EEECCAF8EEEDDAF8EEEEEAD2
:101C8000B8EECEEA62EEADDA24EE8EEA66EEABBADC
:101C90003DEE8EEA65EEAAAA3EEE2BEA61EEA99A27
:101CA0003EEE2AEA27EE811A3EEE29EA7CEEAE9A53
:101CB0003EEE011A39EE85EA28EE0AAA3EEE04EA63
:101CC000F0EE409A31EE0A1A3EEE03AA9DED180A94
:101CD0000EEB07003AEE00AA604423EEA8EA9DED61
:101CE000190A3AEE2FAA4044584431EE0E1A2CEE4F
:101CF00000EA3AEE0FAA9DED170A1044204431EE97
:101D00000E1A2BEE00EA3AEE02AA50440844F0EE16
:101D10004FEA31EE0EEA3AEE29FA184486ED34EA3B
:101D2000092886ED35FA00F35981089FB7EE000ABD
:101D30009DED0C3A9DED0B4A9DED0A5AC0F10A0546
:101D40000DF1E809500001EE100A60007EEE0C8AE9
:101D500009EE900AB8EEC11A3FEE00AA28EEA8FAE2
:101D60007EEE0B8AF8EEE99A3AEE011A68EEA88A3E
:101D70007AEE299A61EE28AA69EE8FBA4FEA4A00F4
:101D8000F4EE6BAA0022F1EE10FA06F1900A39FE89
:101D9000811A09EE900A38FE8FFA7EEE278AF8EE55
:101DA000E99A68EEA88A7AEE299A61EE28AA6FEE7F
:101DB00029BAC8BF01224800F4EE6BAAF1EE10FA6E
:101DC00039FE811A09EE900A38FE8FFA7EEE088AF3
:101DD000F8EEE99A68EEA88A7AEE299A61EE28AAC6
:101DE0006FEE29BAC8BF02225800F4EE6BAAF1EEDA
:101DF00010FA39FE811A09EE900A38FE8FFA7EEE4B
:101E0000238AF8EEE99A68EEA88A7AEE299A61EEBA
:101E100028AA6FEE29BAC8BF03224FEA4B00F4EE9E
:101E20006BAA06F19C0BF1EE10FA39FE811A09EE4D
:101E3000900A38FE8FFA7EEE218AF8EEE99A68EE73
:101E4000A88A7AEE299A61EE28AA6FEE29BAC8BF4D
:101E500004224FEA4800F4EE6BAAF1EE10FA39FEC4
:101E6000811A09EE900A38FE8FFA7EEE258AF8EE86
:101E7000E99A68EEA88A7AEE299A61EE28AA6FEEAE
:101E800029BAC8BF05224FEA4C00F4EE6BAAF1EE66
:101E900010FA39FE811A09EE900A38FE8FFA7EEEAA
:101EA000268AF8EEE99A68EEA88A7AEE299A61EE17
:101EB00028AA6FEE29BAC8BF06224FEA4E00F4EEF8
:101EC0006BAA06F1A80EF1EE10FA39FE811A09EE9E
:101ED000900A38FE8FFA7EEE228AF8EEE99A68EED2
:101EE000A88A7AEE299A61EE28AA6FEE29BAC8BFAD
:101EF0000722D6F8B400F4EE6BAA4000F1EE10FA17
:101F000039FE811A09EE900A38FE8FFA7EEE248A95
:101F1000F8EEE99A68EEA88A3AEE29AA68EE818A74
:101F20002FEE0AFAC8BF0822F4EE4F8AF1EE10FA3B
:101F3000C8BF092209EB82003AFE01FA90ED001AAF
:101F400057F8220031EE0EEA013047F822009AE8F5
:101F500014049BE80A089EE80051013D7FF4F2AEAC
:101F6000D6F8B4000AFB0AF51990D6E92E900AEECD
:101F7000105A03FB03F51890D6E9307009EE905A19
:101F800008FB08F5179004FB04F00BEE905A01EEE5
:101F9000100A01FB01F0D6F8C85008EE900A0BFBBE
:101FA0000BF015950AEE900A0CFB0CF0D6F8CC500D
:101FB0000CEE900A4846B946199FF8EEC1FAF8EEC1
:101FC000CAEAB8EEE82AF8EEE99AF8EEEAAAF8EEDC
:101FD000EBBAF8EEECCA1AE0000000000020B7EE01
:101FE000000A15900020F0EE44BAF0EE43AAF0EE9D
:101FF00045CA179000201FED08FA9DED0C3A9DEDA3
:102000000B4A9DED0A5A4FF0000918900020F4EE9B
:10201000460A80FE861AC6E93624F1EE10FA4FF021
:102020000A02B4EE417A87FE011AC8BF0B22F1EE14
:1020300010FAC8BF0C22B4EE415A85FE011AF1EE27
:1020400010FAC8BF0D22C6E938A106F1F001C6E9B1
:102050003A3B81E80051C6E93F701898B4EE414A16
:10206000C6E9410984FE011A1798F1EE10FAB4EEA0
:10207000413AC6F80C0186ED34EA159886ED46EA39
:10208000C6F81451C6F81001C8BF0E22F1EE10FABE
:1020900086ED35FAC8BF0F22169B3BEEACEA53F82B
:1020A00022003EEE2AEA013043F82200D6F8D8504A
:1020B0003EEE29EA05FB05F03EEE02EA01EE100ACB
:1020C0003EEE2EEAB8EEC11AD6F8F8403EEE2FEA00
:1020D00004FB04F03EEE011A0AEE100A0EEE904ADE
:1020E000B8EECAAAD6F8FC1031EE0A1A01FB01F0CC
:1020F0000FEE901A08EE900A4AF6FC28F8EEE88AED
:10210000D6F800C131EE281A0CFB0CF0C0F6070817
:1021100009EE900A4AF27854F8EEE99AD6F804E10A
:1021200031EE291A0EFB0EF0C0F607040AEE900AF3
:102130001121F8EEEAAAD6F808A131EE2A1A0AFB14
:102140000AF00AEE100AB8EECAAAD6F80C9131EEDF
:102150000A1A09FB09F00EEE100AB8EECEEAD6F81C
:10216000102131EE0E1A02FB02F00AEE100AB8EE50
:10217000CAAAD6F8147131EE0A1A07FB07F00AEE64
:10218000100A4AF62810B8EECAAAC0F6070031EEC7
:102190000A1AB1EEC11A80EE01AAB1EECF1A80EE92
:1021A00001FAB1EECD1A80EE01EAB1EEC91A80EE65
:1021B000019A01EE105A4AF63815C0F6070586ED69
:1021C00047AA86ED35FA86ED23EA86ED119AB8EE38
:1021D000C11A96ED37DA2CEE011AB8EECDDAD6ED4B
:1021E000388A2BEE0DDAF8EEE88AD6ED399AF8EE59
:1021F000E99AD6ED3AAAF8EEEAAAD6ED3BBAF8EE9D
:10220000EBBAD6ED3CCAF8EEECCAD6ED3DDAF8EE04
:10221000EDDAF8EEEEEAF8EEEFFA62EEAEEA3EEE56
:10222000811A64EEAFEA0FEE90CA31EE2E1AF8EE84
:10223000EFFA66EE2FEA0FEE90EA31EE2E1AF8EE84
:10224000EFFA60EEAFEA0FEE90AA31EE2E1AF8EE3A
:10225000EFFA67EE2FEA0FEE909A31EE2E1AF8EEB3
:10226000EFFA65EE2FEA0FEE902A31EE2E1AF8EE15
:10227000EFFA64EE2FEA0FEE907A31EE2E1AF8EEB6
:10228000EFFA63EE2FEA31EE2E1A31EE0D1A27EE39
:10229000A8DAD6ED248A31EE0D1A28EE29DA31EECD
:1022A0000D1A23EEAADA31EE0D1A21EEABDAD5EDD6
:1022B00002BA31EE0D1A25EEACDAD5ED03CA31EED5
:1022C0000D1A26EEADDA31EE0D1AB8EEE8DAD6EDDB
:1022D000258A2CEE0DDAF8EEE88AD6ED269A6BEE1A
:1022E000288AF8EEE99A38EE8DDA67EEA98AD6EDFB
:1022F000279A3DEE28DAF8EEE98AD6ED289A68EEBC
:10230000288AF8EEE99A3DEE28DA63EEA98AD6ED3E
:10231000299A3DEE28DAF8EEE98AD6ED2A9A61EE9E
:10232000A88AF8EEE99A3DEE28DA65EEA98AD6ED9C
:102330002B9A3DEE28DAF8EEE98AD6ED2C9A66EE75
:10234000A88AF8EEE99A3DEE28DA62EEA98AD6ED7F
:102350002D9A3DEE28DAF8EEE98A31EE011A64EEA4
:10236000A88A2AEE011A7DEE288A98ED00AA98ED37
:1023700001DA7AEE419A3DEE411A29EE8AAA21EE5F
:102380000DDA38EEA81AD6ED128A2FEE011AB8EE41
:10239000E8FAD6ED138A2CEE0FFAF8EEE88AD6EDBD
:1023A000149A6BEE288AF8EEE99A38EE8FFA67EE07
:1023B000A98AD6ED159A3FEE28FAF8EEE98AD6ED0D
:1023C000169A68EE288AF8EEE99A3FEE28FA63EE4C
:1023D000A98AD6ED179A3FEE28FAF8EEE98AD6EDEB
:1023E000189A61EEA88AF8EEE99A3FEE28FA65EEAF
:1023F000A98AD6ED199A3FEE28FAF8EEE98AD6EDC9
:102400001A9A66EEA88AF8EEE99A3FEE28FA62EE8A
:10241000A98AD6ED1B9A3FEE28FAF8EEE98AD6EDA6
:102420001C9A64EEA88AF8EEE99A3FEE28FA66EE66
:10243000298AD6ED1D9A3FEE28FAF8EEE98AD6ED04
:102440001E9A60EEA88AF8EEE99A3FEE28FA67EE47
:10245000298AD6ED1F9A3FEE28FAF8EEE98AD6EDE2
:10246000209A65EE288AF8EEE99A3FEE28FA64EEA3
:10247000298AD6ED219A3FEE28FAF8EEE98AD5EDC1
:10248000009A63EE288AD6ED03DA7FEE28AA39EEA9
:10249000C1FAD5ED018A2FEE29FA78EEC19A69EEDC
:1024A000A88A7BEEC19A3CEEC11A69EEAB9A7AEE2D
:1024B000AABA61EE2CAA2EEE2BEA96ED001AD6ED02
:1024C00001BAD6ED02CAB8EEC11AF8EEEBBA2CEE9C
:1024D000011A2BEE2BBAB8EEECCA3BEE011A67EEEE
:1024E0008C7AB8EEEDBA31EE271A68EE0B7A96EDDB
:1024F000048A31EE271AF8EEC87A96ED058A63EE63
:10250000A73AF8EEC87A31EE231A61EEA71AD6ED93
:10251000063A31EE211AF8EEE31AD6ED073A65EEE7
:10252000A11AF8EEE33A31EE211A66EEA31AD6EDBF
:10253000083A31EE211AF8EEE31AD6ED093A62EEC6
:10254000A11AF8EEE32A31EE211A64EEA21AD6EDB2
:102550000A2A31EE211AF8EEE21AD6ED0B2A26EEFF
:10256000216AF8EEE21A31EE061A20EEA16AD6EDE3
:102570000C0A31EE061AB8EEE06AD4ED001A27EE26
:10258000066A96ED0D7A31EE061AB8EEC76A90ED3E
:10259000007A25EE065A96ED0E6A31EE051AB8EE6F
:1025A000C65A90ED016A24EE054A96ED0F5A31EEB7
:1025B000041AB8EEC54A90ED025A23EE043A37EEFB
:1025C0004E4A31EE031A76EE4E0A24EE073A90EDAB
:1025D000037A31EE011A20EE864A35EE4E6A77EE26
:1025E0004E0A29EE011A26EE055A20EE876A31EED0
:1025F000C17AD4ED010A27EE217A70EEC11AD4ED2A
:10260000022A61EEA00A72EEC11AD4ED033A61EE1D
:10261000A21A73EEC12AD4ED044A62EEA32A74EE24
:10262000C13AD4ED065A63EEA43A75EEC14AD4ED30
:10263000076A64EEA54A76EEC15AD4ED057A65EED6
:10264000A65A37EEC11AF4EE654A21EE271AC4FEE7
:10265000E54AF1EE10FAB4EE641A81FE641AB8BFCE
:102660001021F1EE10FAB8BF0F21F4EE413A83FECB
:10267000C11AF1EE10FAB8BF0E21F4EE412A82FE23
:10268000C11AF1EE10FAB8BF0D21F4EE411A81FE25
:10269000C11AF1EE10FAB8BF0C21F4EE410A80FE27
:1026A000C11AF1EE10FAB8BF0B21B4EE417A87FEE1
:1026B000411AF1EE10FAB8BF0A21B4EE416A86FE63
:1026C000411AF1EE10FAB8BF0921B4EE415A85FE65
:1026D000411AF1EE10FAB8BF0821B4EE414A84FE67
:1026E000411AF1EE10FAB8BF0721B4EE413A83FE69
:1026F000411AF1EE10FAB8BF0621F4EE41AA8AFEA3
:10270000C11AF1EE10FAB8BF0521F4EE419A89FE24
:10271000C11AF1EE10FAB8BF0421F4EE418A88FE26
:10272000C11AF1EE10FAB8BF0321B4EE41FA8FFEE0
:10273000411AF1EE10FAB8BF0221B4EE41DA8DFE73
:10274000411AF1EE10FAB8BF0121B4EE41AAF1EE40
:1027500010FAB8BF00210A2915D30A39B6EE000ACB
:1027600004EB8100B7EE00FA0323B4EE002A90EDEB
:10277000003A1298032280F86F3000201792102739
:10278000159033468CE00629B6EE000AB7EE00FA43
:10279000B4EE002A0FD3063900EB8100022390ED3E
:1027A000003A1298022280F86F300020099B17929D
:1027B0001027159074E002290FD3023905EB810030
:1027C000012390ED003A1298012280F86F30089BA7
:1027D0000A2700201792159062E04AF6541BC0F6B3
:1027E000060B0BEB8700DBF80040002F069EC06A4B
:1027F00008BF4FF0004632B1B6F1FF3FC8BF06EB4D
:102800004404039E17440BEB8705B9F1000FAD6D2F
:10281000044406D0B6F1FF3FC8BF06EB4404029E55
:102820004F440BEB8700BAF1000FD0F884002C4422
:1028300006D0B6F1FF3FC8BF06EB4404049E5744E0
:102840000BEB8702129DD2F8B020BEF1000F20449E
:1028500006D0B6F1FF3FC8BF06EB4000059E7744A7
:1028600010440246B6F1FF3FC8BF06EB42020BEB35
:102870008707BCF1000F08BF0246079808BF304623
:10288000D7F8DC70079008EB81003A4490ED003AED
:10289000002000271790500085F86F7015900A27C8
:1028A000781E4AF6541E032807F00200C0F6060EF2
:1028B0001891199016935AD24FF000494FF0000822
:1028C000F246002200231998169C189D30B3781EFA
:1028D00054F82010DAF800C041B12AAEB9F1FF3F38
:1028E000C8BF09EB480856F820900B44002818BFD1
:1028F00001322C2002FB00E0BA1E54F8227050F87E
:10290000230008EB0C013FB12AABB9F1FF3FC8BF70
:1029100009EB410153F8229001EB0008129A0D983F
:10292000179B02EB800E43F00200032806BF05F060
:1029300001016D0800210EF17000022BD561199084
:1029400000F08B80012B7BD0002B40F0808007981B
:102950001599084447F2F471C0F2240100FB01808C
:102960004EF6E871C0F2480100EB010875E06FF027
:10297000070000EB87002AAA191814184FF0004925
:102980004FF000084FF02C0BBC46F246002200230B
:1029900011E000BFBCF1040F18BF013202FB0BE0D5
:1029A00005EB060800EB830A19981039103CB84271
:1029B000BC463FF488AF4868DAF8005038B1B9F146
:1029C000FF3FC8BF09EB4808D4F804900344013224
:1029D00002FB0BE6086856F82360454438B1B9F1AC
:1029E000FF3FC8BF09EB4505D4F800900344BCF194
:1029F000020F18BF013202FB0BE051F8047C50F8C3
:102A000023002E443FB1B9F1FF3FC8BF09EB460692
:102A100054F8049C3B440132351802FB0BE651F894
:102A2000080C56F823600028ACF10407B2D0B9F1C5
:102A3000FF3FC8BF09EB450554F8089C0344A9E7CC
:102A400047F2F470C0F2240001FB008805E041F475
:102A5000640040F4533000EB4808C2F80880C2F824
:102A6000109094ED001A94ED014A94ED035A94ED00
:102A7000056AB8EEC11AB8EEC44A94ED027A11EEB6
:102A8000101AB8EEC77AB8EEC55AD4ED040AF8EEBB
:102A9000E00AB8EEC66AD4ED061A16EE108AF8EE11
:102AA000E11AD4ED072A11EE90AAF8EEE22AD4ED4D
:102AB000083A12EE909AF8EEE33AD4ED094A13EE92
:102AC000900AF8EEE44AD4ED0A5A14EE902AF8EE91
:102AD000E55AD4ED0B6AB8EEE66AD4ED0C6AF8EE6E
:102AE000E61AD4ED0D6AF8EEE62AD4ED0E6AF8EE99
:102AF000E63AD4ED0F6AF8EEE64ADDE92A76DDE93A
:102B00002C5341EAC77117EE107A189114EE101A7F
:102B1000DDE934CB41EAC67194ED111A159147EA0B
:102B2000C5712E9D179115EE101A10EE907A41EA9C
:102B3000C37121EE033A129147EAC571DDE92F57BF
:102B4000139148EAC5764AEAC778DDE931A749EA30
:102B5000CA7940EAC77A15EE900A339F40EACC75ED
:102B6000DDE9361042EAC77716EE102A12EE90CA57
:102B700042EACB7B11EE902A4CEAC07042EAC17364
:102B8000149013EE902ADDE9381008EE103A42EA6C
:102B9000C17218990E9B04EE101A159914EE90CA82
:102BA00005EE101A179905EE907A06EE101A129992
:102BB00003F11C070F9B4CEAC07007EE101A139923
:102BC0001C1F149B00EE901A01EE906A02EE908A90
:102BD00003EE909A04EE90AA06EE905A07EE90BA91
:102BE0000DF1680809EE103A0AEE102A0BEE100AF1
:102BF00040F29863A8F1040508F13C010026C0F6F4
:102C0000070300BF9A1992ED001A92ED01CA92EDE6
:102C100002DA92ED03EA21EE041A2CEE05CA2DEE3B
:102C200006DA2EEE07EA3DEE011A3EEE0CCA92EDF0
:102C300004DA92ED05EA2DEE20DA2EEE21EA31EEED
:102C40000D1A3CEE0ECA92ED06DA92ED07EA2DEE71
:102C500022DA2EEE23EA31EE0D1A3CEE0ECA92ED88
:102C600008DA92ED09EA2DEE24DA2EEE25EA31EEAD
:102C70000D1A3CEE0ECA92ED0ADA92ED0BEA2DEE39
:102C800026DA2EEE27EA31EE0D1A3CEE0ECA92ED50
:102C90000CDA92ED0DEA2DEE08DA2EEE09EA31EEAD
:102CA0000D1A3CEE0ECA92ED0EDA92ED0FEA2DEE01
:102CB0000ADA2EEE0BEA31EE0D1A3CEE0ECA97ED53
:102CC00000EA3CEE01DA31EE4C1A2DEE03CA21EE99
:102CD000031A94ED01DA31EE0E1A3CEE0DCA281DEE
:102CE000403685ED01CA043481ED001A0439043FF1
:102CF000B6F5007F054685D1DDE9199CB5EE084A99
:102D0000A8F11401B6EE045A0026B6EE0C6A03EEE2
:102D100010CAC9E900CCB0EE431ADDF840B000BFDC
:102D200091ED067A0EEB060577EE410A503660EE1D
:102D3000821A60EE842A60EE853A60EE860A71EEB1
:102D4000811A72EE812A73EE813A30EE811AC5ED56
:102D50001E1AC5ED1F2AC5ED203A85ED211A91ED09
:102D6000071AF02E71EE470A60EE821A60EE842A8E
:102D700060EE853A60EE860A71EE871A72EE872A57
:102D800073EE873A30EE877AC5ED221AC5ED232A15
:102D9000C5ED243A85ED257A91ED087A77EE410A62
:102DA00060EE821A60EE842A60EE853A60EE860A52
:102DB00071EE811A72EE812A73EE813A30EE811A39
:102DC000C5ED261AC5ED272AC5ED283A85ED291A45
:102DD000D1ED090A30EEC71A61EE021A61EE042A3B
:102DE00061EE053A21EE061A71EE871A72EE872A15
:102DF00073EE873A31EE071AC5ED2A1AC5ED2B2A74
:102E0000C5ED2C3A85ED2D1A91ED0A1A01F1140148
:102E100031EE607A67EE021A67EE042A67EE053A31
:102E200027EE067A71EEA01A72EEA02A73EEA03A8F
:102E300037EE207AC5ED2E1AC5ED2F2AC5ED303AB2
:102E400085ED317A7FF46CAF9DED281A9DED295AFE
:102E500035EE411A21EE022A21EE041A32EE052A3D
:102E600031EE051A89ED3E2A89ED3F1A9BF81D8047
:102E7000B8F13C0F4AD199ED021A99ED032A99ED68
:102E8000044A99ED055A99ED066A99ED077A0022F0
:102E90000EEB0206D6E9274706F1900506F1A40AD3
:102EA00023CD9AE80806C6F88000C6F88410C6F854
:102EB0008850C6E92347C6E92539D6F8B00038322C
:102EC000C6E927A0D6E92D01E02AC6E92901D6E9FD
:102ED0002F01C6E92B01D6F8C400C6F8B400D7D13B
:102EE00032EE011A35EE042A37EE064A21EE001AB8
:102EF00022EE002A24EE000ADDF86490C9F800C032
:102F000089ED011A89ED022A89ED030ADDF844C032
:102F1000B8F1000F00F0C780DBF824009FED650AD0
:102F200006889FED652A9FED654A9FED655A00234F
:102F30004FF0010EB5EE403A013330F81350F1EE88
:102F400010FA2FDDB6EEC31A33EE411ABCEEC33AC7
:102F500021EE006A21EE027A61EE040A27EE067A7B
:102F600036EE0F6A21EE051A36EE076A20EE877AF2
:102F700013EE101A36EE076A21EE071A0EFA01F167
:102F800036EE011A03EE101A21EE011AB8EE433A9A
:102F900021EE011A21EE031A8FEE013AAC1B2FD15C
:102FA00079E000BFB1EE431AB6EEC13A31EE433AD2
:102FB000BCEEC11A23EE006A23EE027A63EE040A25
:102FC00027EE067A36EE0F6A23EE053A36EE076AEA
:102FD00020EE877A11EE101A36EE076A23EE073AD2
:102FE0000EFA01F136EE031A03EE101A21EE011A61
:102FF000B8EE433A21EE011A21EE033AAC1B4AD057
:103000000CEB8607F14314F0030601EB050220D018
:1030100097ED001A012E21EE031A07F1040187ED46
:10302000001A01D1013C13E091ED001A022E21EEAD
:10303000031A01F1040781ED001A01D1023C08E0F6
:1030400097ED001A391D21EE031A033C87ED001A93
:103050000F46032A1FD3A7F1100200BF92ED041AF6
:1030600092ED056A92ED067AD2ED070A21EE031A77
:1030700026EE036A82ED041A02F1100182ED056A60
:10308000043C27EE031A20EE836A82ED061A82EDD5
:10309000076A0A46E2D1434505D009EB83012E4673
:1030A00091ED003A46E74AB0BDEC108B01B0BDE8A7
:1030B000F08F00BF1872313E1872B13D20986C3D00
:1030C0001872313D2DE9F04F81B02DED108BF8B025
:1030D00093464268894600F5CF61019102F5C071BF
:1030E000B2F5C07F099288BF51000BEB82040891B2
:1030F000C268069001694EF60060C0F202000292BA
:1031000090FBF2F22C200491642908BF182004F1EE
:1031100070050D90C2F1180005EB80009100079238
:1031200002F010F80021C4F88C1441F6C471C0F606
:10313000070104F5916060396FF0170C2B46059478
:10314000039500BF51F8607F0CF1180C43F8607FC5
:103150000760D1E90176D1E90354D1E9052ED1E91F
:10316000078A5F6040F8047C9E6040F8086CDD6070
:1031700040F80C5C1C6140F8104C5A6140F8142C6B
:10318000C3F818E040F818ECD1E90927D1E90B653C
:10319000D1E90D4EC3F81C8040F81C8CC3F820A068
:1031A00040F820ACD1E90F8A5A6240F8242C9F6283
:1031B00040F8287CDE6240F82C6C1D6340F8305CDF
:1031C0005C6340F8344CC3F838E040F838ECD1E99F
:1031D0001127D1E91365D1E9154EC3F83C8040F8B9
:1031E0003C8CD1F85C80C3F840A040F840AC5A64F5
:1031F00040F8442C9F6440F8487CDE6440F84C6CF6
:103200001D6540F8505C5C6540F8544CC3F858E0CC
:1032100040F858ECC3F85C8040F85C8CBCF15F0F60
:10322000A0F160008ED3089860210BEB8002049817
:10323000642808BF802107980B910438082802F100
:1032400070010C920E91CDF828B000F22082DFE8D8
:1032500010F009001E02AA021E0229041E021E020C
:103260001E025D050B98099FC0EB00113846B7F5AB
:10327000C07F98BF4FF4C0708000BA0000EB870792
:10328000DDF818A00BF16C030BF5137C002400BFD4
:10329000A0080BEB020509EB800E05EB00181EEDF4
:1032A0003C0A98ED331A98ED372A1EED3B5A98EDFB
:1032B0003B3A21EE000A22EE051A1EED3A2A98ED5D
:1032C0003F4A31EE000A23EE021A1EED392A30EE93
:1032D000010A24EE021A1EED382A98ED433A30EE28
:1032E000010A23EE021A1EED372A98ED473A30EE16
:1032F000010A23EE021A1EED362A98ED4B3A30EE03
:10330000010A23EE021A1EED352A98ED4F3A30EEEF
:10331000010A23EE021A1EED342A98ED533A30EEDC
:10332000010A23EE021A1EED332A98ED573A30EEC9
:10333000010A23EE021A1EED322A98ED5B3A30EEB6
:10334000010A23EE021A1EED312A98ED5F3A30EEA3
:10335000010A23EE021A1EED302A98ED633A30EE90
:10336000010A23EE021A1EED2F2A98ED673A30EE7D
:10337000010A23EE021A1EED2E2A98ED6B3A30EE6A
:10338000010A23EE021A1EED2D2A98ED6F3A30EE57
:10339000010A23EE021A1EED2C2A98ED733A30EE44
:1033A000010A23EE021A1EED2B2A98ED773A30EE31
:1033B000010A23EE021A1EED2A2A98ED7B3A30EE1E
:1033C000010A23EE021A1EED292A98ED7F3A30EE0B
:1033D000010A23EE021A1EED282A98ED833A30EEF8
:1033E000010A23EE021A1EED272A98ED873A30EEE5
:1033F000010A23EE021A1EED262A98ED8B3A0CEBF9
:10340000020530EE010A23EE021A1EED252A98ED80
:103410008F3A05EB001030EE010A23EE021A1EED82
:10342000244A90ED005A30EE013A25EE044A1EED92
:10343000235A98ED976A33EE043A26EE054A1EEDBC
:10344000225A98ED9B6A33EE043A26EE054A1EEDA9
:10345000215A98ED9F6A33EE043A26EE054A1EED96
:10346000205A98EDA36A33EE043A26EE054A1EED83
:103470001F5A98EDA76A33EE043A26EE054A1EED70
:103480001E5A98EDAB6A33EE043A26EE054A1EED5D
:103490001D5A98EDAF6A33EE043A26EE054A1EED4A
:1034A0001C5A98EDB36A33EE043A26EE054A1EED37
:1034B0001B5A98EDB76A33EE043A26EE054A1EED24
:1034C0001A5A98EDBB6A33EE043A26EE054A1EED11
:1034D000195A98EDBF6A33EE043A26EE054A1EEDFE
:1034E000185A98EDC36A33EE043A26EE054A1EEDEB
:1034F000175A98EDC76A33EE043A26EE054A1EEDD8
:10350000165A98EDCB6A33EE043A26EE054A1EEDC4
:10351000155A98EDCF6A33EE043A26EE054A1EEDB1
:10352000145A98EDD36A33EE043A26EE054A1EED9E
:10353000135A98EDD76A33EE043A26EE054A1EED8B
:10354000125A98EDDB6A33EE043A26EE054A1EED78
:10355000115A98EDDF6A33EE043A26EE054A1EED65
:10356000105A98EDE36A33EE043A26EE054A1EED52
:103570000F5A98EDE76A33EE043A26EE054A1EED3F
:103580000E5A98EDEB6A33EE043A26EE054A1EED2C
:103590000D5A98EDEF6A33EE043A26EE054A1EED19
:1035A0000C5A98EDF36A33EE043A26EE054A1EED06
:1035B0000B5A98EDF76A33EE043A26EE054A1EEDF3
:1035C0000A5A98EDFB6A33EE043A26EE054A1EEDE0
:1035D000095A98EDFF6A90ED702A33EE043A26EE10
:1035E000054A1EED085A90ED741A33EE043A22EEA5
:1035F000052A1EED074A90ED780A33EE022A21EEE5
:10360000041A1EED063A32EE011A20EE030A1EEDF0
:10361000052A90ED7C3A31EE000A23EE021A90ED75
:10362000805A30EE010A1EED041A1EED032A25EE23
:10363000011A90ED845A1EED023A30EE010A25EE91
:10364000021A90ED882A1EED014A30EE010A22EEA0
:10365000031A90ED8C2A9EED006A30EE010A22EEEC
:10366000041A90ED902A30EE010A22EE061A0F3469
:1036700030EE010AD819043380ED010AABF13C0B9E
:103680008C42ACF13C0CFFF403AE00F01CBC0B9878
:103690000999C0EB001E0846B1F5C07F98BF4FF4F2
:1036A000C07080005C4600EB81084AF6AB2CDDF868
:1036B00018A04FEA810B04F16C0204F51377002681
:1036C000CAF6AA2CA6FB0C05280900EB400309EB5F
:1036D000800504EB0B0000EB431015ED0A0A90ED9A
:1036E000331A90ED4B2A15ED095A90ED633A21EE0D
:1036F000000A22EE051A15ED082A90ED7B4A31EEFC
:10370000000A23EE021A15ED072A07EB0B0130EE33
:10371000010A24EE021A01EB431130EE010A15ED05
:10372000061A91ED002A90EDAB4A22EE011A15ED32
:10373000052A30EE010A24EE021A15ED042A90ED56
:10374000C34A30EE010A24EE021A90EDDB4A30EE55
:10375000010A15ED031A15ED025A24EE011A90ED37
:10376000F34A91ED783A30EE010A24EE051A15ED90
:10377000014A91ED902A30EE010A23EE041A95EDEC
:10378000003A30EE010A22EE031A0F3630EE010A3B
:1037900002EB0800043280ED010A3C3C7645A7F1BB
:1037A0003C078FD38FE30B98099AC0EB001E10469D
:1037B000B2F5C07F98BF4FF4C0708000594600EB4F
:1037C00082084AF6AB2CDDF818A04FEA820B01F113
:1037D0006C0301F513740025CAF6AA2C084600BF35
:1037E000A5FB0C16B10801EB410600EB0B0709EB3A
:1037F000810107EBC60711ED280A97ED331A97ED03
:10380000392A11ED275A97ED3F3A21EE000A22EEB0
:10381000051A11ED262A97ED454A31EE000A23EEEE
:10382000021A11ED252A30EE010A24EE021A11EDDA
:10383000242A97ED4B3A30EE010A23EE021A11EDDD
:10384000232A97ED513A30EE010A23EE021A11EDC8
:10385000222A97ED573A30EE010A23EE021A11EDB3
:10386000212A97ED5D3A30EE010A23EE021A11ED9E
:10387000202A97ED633A30EE010A23EE021A11ED89
:103880001F2A97ED693A30EE010A23EE021A11ED74
:103890001E2A97ED6F3A30EE010A23EE021A11ED5F
:1038A0001D2A97ED753A30EE010A23EE021A11ED4A
:1038B0001C2A97ED7B3A30EE010A23EE021A11ED35
:1038C0001B2A97ED813A30EE010A23EE021A11ED20
:1038D0001A2A97ED873A04EB0B0230EE010A23EE29
:1038E000021A11ED192A97ED8D3A02EBC60630EE59
:1038F000010A23EE021A11ED183A96ED004A30EE55
:10390000012A24EE033A11ED174A97ED995A32EE47
:10391000032A25EE043A11ED164A97ED9F5A32EE2E
:10392000032A25EE043A11ED154A97EDA55A32EE19
:10393000032A25EE043A11ED144A97EDAB5A32EE04
:10394000032A25EE043A11ED134A97EDB15A32EEEF
:10395000032A25EE043A11ED124A97EDB75A32EEDA
:10396000032A25EE043A11ED114A97EDBD5A32EEC5
:10397000032A25EE043A11ED104A97EDC35A32EEB0
:10398000032A25EE043A11ED0F4A97EDC95A32EE9B
:10399000032A25EE043A11ED0E4A97EDCF5A32EE86
:1039A000032A25EE043A11ED0D4A97EDD55A32EE71
:1039B000032A25EE043A11ED0C4A97EDDB5A32EE5C
:1039C000032A25EE043A11ED0B4A97EDE15A32EE47
:1039D000032A25EE043A11ED0A4A97EDE75A32EE32
:1039E000032A25EE043A11ED094A97EDED5A32EE1D
:1039F000032A25EE043A11ED084A97EDF35A32EE08
:103A0000032A25EE043A11ED074A97EDF95A32EEF2
:103A1000032A25EE043A11ED064A97EDFF5A96ED7A
:103A2000721A32EE032A25EE043A11ED054A96ED9C
:103A3000780A32EE032A21EE041A11ED043A32EE2E
:103A4000011A20EE030A96ED7E2A11ED034A31EEAB
:103A5000000A11ED025A22EE042A96ED844A11ED75
:103A6000013A30EE020A24EE052A96ED8A4A91EDDB
:103A7000001A30EE020A24EE032A96ED903A30EE58
:103A8000020A23EE011A0F3530EE010A03EB08019A
:103A9000043381ED010A3C387545A4F13C04FFF480
:103AA0009FAE10E20B980999C0EB001C0846B1F5D7
:103AB000C07F98BF4FF4C070800000EB810EDDF82E
:103AC00018A04FEA81080BF16C020BF51377002563
:103AD000EB080BEB080009EB830600EB431016ED37
:103AE0001E0A90ED331A90ED3B2A16ED1D5A90ED0B
:103AF000433A21EE000A22EE051A16ED1C2A90ED3B
:103B00004B4A31EE000A23EE021A16ED1B2A30EE64
:103B1000010A24EE021A16ED1A2A90ED533A30EEFD
:103B2000010A23EE021A16ED192A90ED5B3A30EEE7
:103B3000010A23EE021A16ED182A90ED633A30EED0
:103B4000010A23EE021A16ED172A90ED6B3A30EEB9
:103B5000010A23EE021A16ED162A90ED733A30EEA2
:103B6000010A23EE021A16ED152A90ED7B3A30EE8B
:103B7000010A23EE021A16ED142A90ED833A30EE74
:103B8000010A23EE021A16ED132A90ED8B3A07EB89
:103B9000080130EE010A23EE021A01EB431330EE66
:103BA000010A16ED121A93ED002A90ED9B5A22EEAF
:103BB000011A16ED112A30EE010A25EE021A16ED51
:103BC000102A90EDA35A30EE010A25EE021A16EDE6
:103BD0000F2A90EDAB5A30EE010A25EE021A16EDCF
:103BE0000E2A90EDB35A30EE010A25EE021A16EDB8
:103BF0000D2A90EDBB5A30EE010A25EE021A16EDA1
:103C00000C2A90EDC35A30EE010A25EE021A16ED89
:103C10000B2A90EDCB5A30EE010A25EE021A16ED72
:103C20000A2A90EDD35A30EE010A25EE021A16ED5B
:103C3000092A90EDDB5A30EE010A25EE021A16ED44
:103C4000082A90EDE35A30EE010A25EE021A16ED2D
:103C5000072A90EDEB5A30EE010A25EE021A90ED9C
:103C6000F37A30EE010A16ED061A16ED055A27EE24
:103C7000011A90EDFB7A93ED703A16ED046A30EE7E
:103C8000010A27EE051A93ED784A56ED030A30EE45
:103C9000010A23EE061A93ED802A16ED025A30EE41
:103CA000010A24EE201A16ED013A30EE010A22EE46
:103CB000051A93ED882A96ED004A30EE010A22EEAD
:103CC000031A93ED902A30EE010A22EE041A0F3502
:103CD00030EE010A02EB0E00043280ED010AABF176
:103CE0003C0B6545A7F13C07FFF4F2AEEBE000BFEB
:103CF0006F98FBBF6F987B3FBC8EFB3F454477BFFF
:103D0000375A903EE9FF703EC04BFD3D0B98099934
:103D1000C0EB001E0846B1F5C07F98BF4FF4C070DD
:103D200080005C4600EB81084AF6AB2CDDF818A059
:103D30004FEA810B04F16C0204F513770025CAF6F3
:103D4000AA2C00BFA5FB0C03D80800EB400309EB2D
:103D5000800604EB0B0000EB031016ED140A90ED47
:103D6000331A90ED3F2A16ED135A90ED4B3A21EE9F
:103D7000000A22EE051A16ED122A90ED574A31EE8E
:103D8000000A23EE021A16ED112A30EE010A24EE83
:103D9000021A16ED102A90ED633A30EE010A23EE76
:103DA000021A16ED0F2A90ED6F3A30EE010A23EE5B
:103DB000021A16ED0E2A90ED7B3A30EE010A23EE40
:103DC000021A16ED0D2A90ED873A07EB0B0130EE43
:103DD000010A23EE021A01EB031330EE010A16ED7D
:103DE0000C1A93ED002A90ED9F5A22EE011A16ED5F
:103DF0000B2A30EE010A25EE021A16ED0A2A90ED82
:103E0000AB5A30EE010A25EE021A16ED092A90EDA2
:103E1000B75A30EE010A25EE021A16ED082A90ED87
:103E2000C35A30EE010A25EE021A16ED072A90ED6C
:103E3000CF5A30EE010A25EE021A16ED062A90ED51
:103E4000DB5A30EE010A25EE021A16ED052A90ED36
:103E5000E75A30EE010A25EE021A90EDF35A30EEE1
:103E6000010A16ED041A16ED036A25EE011A90ED0B
:103E7000FF5A93ED783A30EE010A25EE061A16ED58
:103E8000025A93ED844A30EE010A23EE051A16ED2C
:103E9000013A93ED902A30EE010A24EE031A96EDD2
:103EA000003A30EE010A22EE031A0F3530EE010A15
:103EB00002EB0800043280ED010A3C3C7545A7F195
:103EC0003C07FFF43FAF079A029902EBD270B1F5BD
:103ED000FA5F08BF421000EE102A1FED7B2AB8EEF1
:103EE000C01A0D99DDF80C90099B09EB81001FEDBC
:103EF0007F0A890000F5687C0B9801EB830E089916
:103F000021EE000A21EE021A9AED155A9AED162AB0
:103F10009AED174A1FED883A1FED886A0A9D0AF14B
:103F20005006421E0EF582634FEA8108002700BF4B
:103F300024EE064A22EE037A05EB080437EE044A23
:103F400096ED007AD4ED1C0A67EE011A30EE855A20
:103F500034EE214A25EE005AE91834EE054A22EEE5
:103F6000062A81ED004A023794ED1C5AD4ED1D0A51
:103F700065EE011A30EE877A31EE822A27EE007A5A
:103F800004F1740632EE072A24EE037A974232EEE9
:103F9000072A05F1080581ED012AC9DB6FF0070149
:103FA00001EB80010E9850F8223047585CF8010070
:103FB000CAE914370D9B5CF82220C3F12C010AEBEF
:103FC0008101CAF85820CAF85C0001F1600203F1CF
:103FD000E8004FF0FF3101EB900341074FEA9000FA
:103FE0000BD5D2E90017D2E9026510320138C9E9D0
:103FF0000017C9E9026509F11009032B2BD304301E
:10400000403AA9F1400300BF52F8401F043843F87A
:10401000401F0428D2E90117D2E90365D2E9054C13
:10402000D2E9079BC3E90117C3E90365C3E9054C5E
:10403000D2E90917D2E90B65D2E90D4CC3E9079B18
:10404000D2F83C90C3E90917C3E90B65C3E90D4CED
:10405000C3F83C90D8DC0B9C0D9A0121101BE83072
:1040600001EB9000AAEB8202A30000BFD118D1E9B6
:104070004476D1E9465101380128C2E94476C2E9C3
:10408000465102F11002F1DCA0080A99C4F58872C9
:104090000D9001200AEB820200EB9400714401F5BF
:1040A0008061603251F8103F013842F8103F01281A
:1040B000D1E90137CE68C2E90137D660F2DC0E984B
:1040C000059900F5E4790C981FEDF30A1FEDF31A3A
:1040D0001FEDF32A00F50D7001F57F73002200BF7C
:1040E00093ED034A93ED056A93ED023A93ED045A7A
:1040F00093ED067A36EE044A25EE005A37EE033A7F
:1041000024EE014A23EE023A34EE054A071D34EE4E
:10411000033A0232083380ED013AA2423846DFD337
:104120000C980AF5966B0AF58362A0F128034FF00C
:10413000390E00BF52F8986F43F8986FD2E90165C5
:10414000D2E9034102F1140C9CE88110C3E9016536
:10415000C3E9034103F11401D2E90C6581E8811040
:1041600002F12407D2E90E4CD2F820A083CFC3F885
:1041700020A058629962DF62C3E90C65D2E9146538
:10418000C3E90E4C02F14407D2E9164CD2F840A024
:1041900083CFC3F840A058649964DF64C3E9146511
:1041A000D2E91C65C3E9164C02F16407D2E91E4C42
:1041B000D2F860A083CFDF6602F18407C3F860A065
:1041C000D2F880A058669966C3E91C6583CFD2E90E
:1041D0002465C3E91E4C03F1840CC3F880A08CE86D
:1041E00083002EF00100AEF1130E1228C3E92465FE
:1041F000A0D10B997220A0EB51024FEA510E530847
:104200004FEA8E045BF804000BEB0405CBF80000CA
:104210006868012BCBF8040017DDD5E90201022BF9
:10422000CBF80800CBF80C100FD0D5E90401042B13
:10423000CBF81000CBF8141007DBD5E90601043BDE
:10424000CBE906010BF1200BDCD1DDF818C00CEB3B
:1042500082000D9A00F59660D9E90013012A0160E9
:10426000436014DD09F108078ACFD9F8146000F122
:104270000804042A8AC4466109DBD9E90613043A12
:1042800009F12009C0E9061300F12000E4D1DDF8AE
:104290002CB00C989FED090A9FED091A9FED092A91
:1042A000DDF828A04FEADB0600F5DA7200F5FC75B0
:1042B00000240DF15809002306E000BFB3CE010C25
:1042C000000000003FE8A83BB0EE413A2846174600
:1042D000314600BF90ED104A97ED107A90ED115ADB
:1042E00027EE044A97ED117A90ED126A34EE033A04
:1042F00027EE054A97ED125AD0ED130A33EE043A31
:1043000025EE064A97ED135A33EE043A25EE204A7D
:1043100090ED145A97ED146A33EE043A26EE054AEE
:1043200090ED155A97ED156A34EE033A26EE054ADC
:1043300090ED165A97ED166A33EE043A26EE054ACA
:1043400090ED175A97ED176A33EE043A26EE054AB8
:1043500090ED185A97ED186A33EE043A26EE054AA6
:1043600097ED195A34EE033A90ED194A97ED1A6A0F
:1043700025EE044A90ED1A5A97ED1B7A33EE043A73
:1043800026EE054A90ED1B5AD7ED1C0A33EE043A8F
:1043900027EE054A90ED1C5AD7ED1D1A33EE043A6C
:1043A00020EE854A90ED1D5AD7ED1E2A34EE033AD1
:1043B00021EE854A90ED1E5AD7ED1F3A33EE043AAE
:1043C00022EE854A90ED1F5A33EE043A23EE854AD9
:1043D000403733EE043A403004397FF47BAFC3F109
:1043E000C20109EB830004EE101A80ED003A043A92
:1043F000B8EEC44A24EE024A24EE033AB4EE403A40
:1044000083FE000AF1EE10FAC8BF1C460133622B8E
:104410007FF45AAF1FED560A304600BF95ED101AD3
:1044200095ED112A21EE011A043831EE000A22EE30
:10443000021A95ED122A30EE010A22EE021A95EDCB
:10444000132A30EE010A22EE021A95ED142A30EEFC
:10445000010A22EE021A95ED152A31EE000A22EE2B
:10446000021A95ED162A30EE010A22EE021A95ED97
:10447000172A30EE010A22EE021A95ED182A30EEC4
:10448000010A22EE021A95ED192A31EE000A22EEF7
:10449000021A95ED1A2A30EE010A22EE021A95ED63
:1044A0001B2A30EE010A22EE021A95ED1C2A30EE8C
:1044B000010A22EE021A95ED1D2A31EE000A22EEC3
:1044C000021A95ED1E2A30EE010A22EE021A95ED2F
:1044D0001F2A30EE010A22EE021A05F1400530EEE5
:1044E000010A9BD100200C99A0EB84001FED8C1ACF
:1044F00004F1110701F51D71334600BF0A1811EDD3
:104500000F2A12ED203A12ED1F4A23EE022A11ED76
:104510000E3A32EE011A24EE032A11ED0D3A12ED95
:104520001E4A31EE021A24EE032A11ED0C3A12ED66
:104530001D4A31EE021A24EE032A11ED0B3A12ED58
:104540001C4A31EE021A24EE032A11ED0A3A12ED4A
:104550001B4A32EE011A24EE032A11ED093A12ED3C
:104560001A4A31EE021A24EE032A11ED083A12ED2E
:10457000194A31EE021A24EE032A12ED183A31EEEE
:10458000021A11ED072A11ED064A23EE022A12ED56
:10459000173A32EE011A11ED052A23EE043A12ED14
:1045A000164A31EE031A11ED043A24EE022A12EDF6
:1045B000154A31EE021A11ED032A24EE033A12EDE8
:1045C000144A31EE031A11ED023A24EE022A12EDDA
:1045D000134A32EE011A11ED012A24EE033A12EDCC
:1045E000124A31EE031A91ED003A24EE022A12ED3E
:1045F000114A31EE021A24EE032A043B31EE021A6C
:1046000001F140017FF47AAF0C981FEDD32AA0EBA3
:10461000840000F5DA7000BF90ED103A90ED114A79
:1046200023EE033A043E33EE022A24EE043A90EDE0
:10463000124A32EE032A24EE043A90ED134A32EE87
:10464000032A24EE043A90ED144A32EE032A24EEB3
:10465000043A90ED154A33EE022A24EE043A90ED26
:10466000164A32EE032A24EE043A90ED174A32EE4F
:10467000032A24EE043A90ED184A32EE032A24EE7F
:10468000043A90ED194A33EE022A24EE043A90EDF2
:104690001A4A32EE032A24EE043A90ED1B4A32EE17
:1046A000032A24EE043A90ED1C4A32EE032A24EE4B
:1046B000043A90ED1D4A33EE022A24EE043A90EDBE
:1046C0001E4A32EE032A24EE043A90ED1F4A32EEDF
:1046D000032A24EE043A00F1400032EE032A9BD173
:1046E00022EE002AB1EEC22A9CF8A22681EE022A0E
:1046F0009FED1C1A101F152A38BF1120111D6E2A9C
:1047000088BF7221814282FE012A24DD0C1A25D045
:1047100009EB8001221F01EB840112F00305A1F1D6
:10472000440393ED003A04F10101A4F1010230D0F9
:1047300013ED014A043BB4EE434A84FE033AF1EE22
:1047400010FAC8BF2146012D12D11446DDF804909D
:10475000032A22D24FE0DDF80490A2E0DDF80490B5
:10476000002149E0000000009A99593F9A99193FA9
:1047700013ED014A043BB4EE434A84FE033AF1EEE2
:1047800010FAC8BF1146022DA4F1020540F0A18421
:104790002C46DDF80490032A2DD3A3F1100200BFAC
:1047A00092ED035A92ED027AB4EE435A85FE033A33
:1047B00092ED016AF1EE10FAB4EE437A87FE033A05
:1047C00092ED004AC8BF2146F1EE10FAB4EE436AFA
:1047D00086FE033AC8BF611EF1EE10FAC8BFA11EE3
:1047E000B4EE434A84FE033A103AF1EE10FAC8BF21
:1047F000E11E043CD4D101390844A8EB80011FED2F
:10480000273A514401F50A730C99B0EE434A01F579
:104810000A72002193ED045AD2ED041A93ED056A51
:10482000D2ED052A65EE211A25EE055A93ED067A9A
:10483000D2ED063A31EE833A35EE044A26EE225A9C
:1048400026EE066AD3ED070AD2ED074A33EE053AA3
:1048500034EE064A27EE235A27EE076A33EE053A6E
:1048600034EE064A20EEA45A20EEA06A33EE053A52
:1048700034EE064A0431103310327145CAD324EEA7
:10488000000AB1EEC00A83EE000A1FED493A22EE9B
:10489000033AB4EE430AF1EE10FAC4BFB0EE402A78
:1048A00007461FED4E0A0020B4EE402A8CF8A2768F
:1048B000F1EE10FA8AF86C0040F3A38279004FF011
:1048C000240E2429C8BF4FEA470EE0294FF0E0012B
:1048D000B8BF7900A1EB0E0808F10801012011F121
:1048E000080F8AF86B00C0F2A9800998059A800029
:1048F000A0EB8E001FED650A504401F1080300F59E
:104900007C7002F574740025B0EE401A0D9A2646AC
:10491000074600BF96ED102A97ED105A96ED113A12
:1049200025EE022A97ED115A96ED124A32EE011A3F
:1049300025EE032A97ED123A96ED136A31EE021A2C
:1049400023EE042A97ED133A31EE021A23EE062ADB
:1049500096ED143A97ED144A31EE021A24EE032A2A
:1049600096ED153A97ED154A32EE011A24EE032A18
:1049700096ED163A97ED164A31EE021A24EE032A06
:1049800096ED173A97ED174A31EE021A24EE032AF4
:1049900096ED183A97ED184A31EE021A24EE032AE2
:1049A00097ED193A32EE011A96ED192A97ED1A4A47
:1049B00023EE022A96ED1A3A97ED1B5A31EE021AAF
:1049C00024EE032A96ED1B3A97ED1C6A31EE021A8B
:1049D00025EE032A96ED1C3A97ED1D7A31EE021A68
:1049E00026EE032A96ED1D3AD7ED1E0A32EE011A85
:1049F00027EE032A96ED1E3AD7ED1F1A31EE021A62
:104A000020EE832A96ED1F3A31EE021A21EE832A18
:104A1000403731EE021A4036043A7FF47BAF0E9AEB
:104A20009D4202EB850205F10105A0F1040082ED33
:104A3000001AFFF669AF002900F0F4810E9841F0EA
:104A4000010300EB810202F1100092ED040A8A07D3
:104A500008F1070215D510ED011A10ED022AB4EE87
:104A6000401A81FE000A0838F1EE10FAC8BF0B4662
:104A7000B4EE402A82FE000AF1EE10FAC8BF4B1EC7
:104A80000239032A2BD3103890ED032A90ED024A05
:104A9000B4EE402A82FE000A90ED013AF1EE10FADF
:104AA000B4EE404A84FE000A90ED001AC8BF0B46DF
:104AB000F1EE10FAB4EE403A83FE000AC8BF4B1E76
:104AC000F1EE10FAC8BF8B1EB4EE401A81FE000A48
:104AD0001038F1EE10FAC8BFCB1E0439D4D1591EDC
:104AE000CEF1A1008142AEF1040380F2A3810E98C1
:104AF00047F6442700EB8100C0F6070790ED013A26
:104B000090ED025AD7ED065A97ED0A8A90ED034AC6
:104B100025EE830A28EE056A97ED0E9A90ED042A99
:104B200036EE000A29EE046A97ED12AA90ED051AF6
:104B300030EE060A2AEE026A97ED16BA30EE060A41
:104B40002BEE017A90ED066A97ED1ACA70EE070A0D
:104B500090ED077A6CEE061A97ED1E0A70EEA10A28
:104B600060EE071A97ED05DAD7ED092A70EEA11A63
:104B70006DEE030A62EE854AD7ED0D3A74EEA00A97
:104B800063EE846AD7ED114A70EEA60A64EE827A6B
:104B9000D7ED156A70EEA70A26EE81EAD7ED197AED
:104BA0008DED0E0ACDED0F1A30EE8EEA27EE86FA65
:104BB00097ED1D0A3EEE0FEA20EE07FAD7ED049AB4
:104BC0007EEE0F1A97ED08FA29EE83EA6FEE05AA3A
:104BD000D7ED0C8A3AEE8EEA68EE84BAD7ED10AAC9
:104BE0003EEE2BEA6AEE82BAD7ED03CA3EEE2BEA1E
:104BF0006CEE83BAD7ED14DAD7ED07CA6DEE81EA11
:104C00006CEE85CA3EEE2EEA7CEEABBAD7ED18EA22
:104C1000D7ED0BCA6EEE86FA6CEE84CA7EEE2FFAE2
:104C20007BEEACCA97ED1CEAD7ED0FBA8DED0D0AFD
:104C3000CEF183022EEE070A6BEE820A7FEE80BA77
:104C40003CEEA00AD7ED02CA65EE850A6CEE835AE7
:104C5000D7ED13FA70EEA50A6FEE815A28EE048A9A
:104C600030EE250A70EE880A69EE025A97ED178A2F
:104C700070EEA50A68EE065A2AEE018A30EE250A81
:104C800070EE880A6BEE065A97ED1B8A70EEA50A45
:104C900068EE075A2CEE078A70EE255A30EE888AA5
:104CA0002DEE050A69EE850A97ED019A97ED005AF7
:104CB00029EE03AA25EE033A30EE0A0A30EE833AD3
:104CC00062EE840A2FEE044A30EE200A33EE043AF4
:104CD00023EE824A28EE822A30EE040A33EE022ABC
:104CE00024EE813A2AEE811A30EE030A32EE011ADE
:104CF00026EE862A2DEE863A30EE020A31EE031AAF
:104D000027EE872A2EEE873A30EE022A31EE033A5A
:104D10009142CDED101ACDED11BACDED125A8DEDB7
:104D2000138A8DED142A8DED153A70DA90ED001A84
:104D30009DED0F0A2CEE816A90ED084A36EE006A6E
:104D400025EE010A9DED0D5A29EE017A9DED0E1A10
:104D50008DED0F6ACEF1240025EE045A2EEE046A82
:104D600021EE041A35EE024A36EE035A31EE081AE5
:104D700037EE217A30EE2B0A84FE053A8142B4EEFA
:104D8000454A81FE032A8DED107A8DED110A8DEDD5
:104D9000131A8DED144A8DED155A4DDDF1EE10FA12
:104DA0004FF00307B4EE431AC8BF022785FE824ABC
:104DB000F1EE10FA80FE041AF4EE425A9DED0F2A2D
:104DC000C8BF0127F1EE10FAB4EE440A9DED100AB7
:104DD000C8BF0027F1EE10FAB4EE410A80FE010AC6
:104DE000C8BF4FF0FF37F1EE10FAC8BF6FF00107F0
:104DF000B4EE402AF1EE10FA40F380816FF0020722
:104E000036E08AF86B000120B0EE410A7EE1F4EE54
:104E1000425AF1EE10FA22DDF4EE651AF1EE10FAC4
:104E200008DD23E00021CEF1A1008142AEF10403B0
:104E3000FFF65DAE00271DE0F1EE10FA4FF003071C
:104E4000B4EE431AC8BF0227F1EE10FAC8BF01271B
:104E5000F4EE425AF1EE10FAC8BF00270AE0B4EEB1
:104E6000612AF1EE10FA01DD022703E06FF001077D
:104E700001390437C8189D2802DB00F21B1209E033
:104E80007F2804DB7A0802EB40027E3202E007EB67
:104E90008002803A49F29C76C0F607066FF007055B
:104EA00006F12C03ED1B03EB850396ED030A96ED4B
:104EB000071A96ED0B2A93ED003A93ED044A93ED11
:104EC000085A002FCAF80C2052D09FED996AD3EDF2
:104ED0000C1A059A71444FF48463A3EB8101B0EE80
:104EE000467A4FF6FE66F0EE460A02F5816200232E
:104EF000CFF6FF76D2ED032AD2ED023A60EE222AF7
:104F000061EE233AD2ED014A73EEA22A62EE243A10
:104F10005518A5F2044472EEA32AD4ED003A05EB2D
:104F20008604A5F20C45D4ED004A63EE233A64EE04
:104F3000244AD5ED005A74EEA33A65EE254A54EDA5
:104F4000025A73EEA43A61EEA54A62EEA25A74EEDA
:104F5000A33A75EEA00A63EEA22A63EEA33A32EEFC
:104F6000866A33EE877A013304325B45C2D34AE066
:104F70009FED6F6A059A71444FF48463A3EB81013E
:104F8000B0EE467A4FF6FE66F0EE460A02F5816212
:104F90000023CFF6FF7600BFD2ED031AD2ED022A2E
:104FA00060EE211A61EE222AD2ED013A72EEA11AC8
:104FB00062EE232A5518A5F2044471EEA21AD4ED2C
:104FC000002A05EB8604A5F20C45D4ED003A63EE09
:104FD000222A64EE233AD5ED004A73EEA22A65EE4A
:104FE000243A61EEA14A72EEA32A74EEA00A62EEA0
:104FF000A11A62EEA22A31EE866A32EE877A013376
:1050000004325B45C8D327EE200AB1EEC00AB5EEE4
:10501000003A86EE000A01EE100A02EE107AB8EEAF
:10502000C11AB8EEC22A9CF83F0022EE032A0328D8
:1050300032EE011A2BD89CF8A30650B39FED3D2AFF
:10504000B4EE420AF1EE10FA01DD01283CD001284D
:1050500052D199ED022AB0EE003A31EE422AB0EE7A
:10506000C22AB4EE432AF1EE10FA4EDA9FED322A4C
:105070000B20B4EE420AF1EE10FA47DD99ED012A59
:105080009FED2E3A30EE422AB4EE432A19E00B206F
:105090003CE00498642808D099ED002A9FED283A56
:1050A000B4EE432AF1EE10FA2DDD9FED252A0B20F8
:1050B000B4EE420AF1EE10FA28DD99ED013AB4EEB1
:1050C000423AF1EE10FA21DD01208AF86C000B2043
:1050D0001CE013ED014A043BB4EE434A033C84FE5A
:1050E000033AF1EE10FAC8BF2946DDF80490032A0E
:1050F000BFF453ABFFF77FBB0B2007E0B7F1FF3FD7
:105100003FF7B8AEB4E60B2000E00B20DCF87C16CD
:1051100089ED010A89ED021ACCF878169AF86C101C
:105120008CF8A31678B0BDEC108B01B0BDE8F08F01
:10513000000000006666663F3D0A573FCDCCCCBDFF
:10514000D7A3703F002200F03DB80000010002002C
:1051500003000400050006000700080009000A001B
:105160000B000C000D000E000F00100011001200CB
:1051700013001400150016001700180019001A007B
:105180001B001C001D001E001F002000210022002B
:1051900023002400250026002700280029002A00DB
:1051A0002B002C002D002E002F003000310032008B
:1051B00033003400350036003700380039003A003B
:1051C0003B003C0000B500BF1300964694461039E2
:1051D00028BFA0E80C50FAD85FEA417C28BF0CC079
:1051E00048BF40F8042BC90728BF20F8022B48BF4E
:1051F00000F8012B00BD76312E355F46554C4C5FD3
:1052000041524D434C414E47000000000000000059
:10521000000000002DE9F04F81B02DED048B86B029
:10522000814690F8A006159C1D46884610B19FED5A
:10523000DE0A31E009F5D36090ED000A09F29460CE
:1052400090ED001A09F29C60B8EEC00A90ED002AB9
:1052500031EE000AB8EEC22A9FEDD43A30EE420A8F
:105260009FEDD32A80FE024AB4EE434A9FEDD14A15
:10527000F1EE10FA33FE023AB4EE402A33FE000A91
:10528000F1EE10FA33FE000A9FEDCB2A21EE041A4C
:1052900020EE020A30EE010ABCFEC01AD9F8040062
:1052A0000021B1EB500F09F2946181ED000AC9F8B9
:1052B0009846039226D000F5C071B0F5C07F88BF34
:1052C000410020F0030202EB81014008294401F56E
:1052D000B771A8F1080200BF52F8083FC3F3C073CA
:1052E00001F8023F0138D2E9003623F00043136091
:1052F000C6F3C0734B70536823F000435360EBD187
:10530000D9F80400411E08EB8103049593ED000ACF
:1053100012D011F00306A0F102021BD013ED012AF6
:10532000012EA3F1040382FE000A18D1264611467D
:10533000039C032A2AD23FE0D9F8446006F1FF0714
:10534000B246B5EE400AB346F1EE10FA01F3A68379
:1053500001F0B6BB2646039C032A17D22CE013EDBE
:10536000012A022EA3F1040382FE000A264604D17C
:10537000C11E039C032A09D21EE013ED012A043B3F
:10538000011F82FE000A039C032A15D3A3F1100219
:1053900092ED034A92ED025A92ED013A84FE000A20
:1053A000043992ED002A85FE000AA2F1100283FE64
:1053B000000A82FE000AEBD10021B1EB900F00F051
:1053C000CE8011EE101A3246F7EE005A85089FED96
:1053D000A21A9FEDA22A9FEDA23A9FEDA24A9FED4D
:1053E000A25A9FEDA26A9FEDA27ADFEDA20ADFED3D
:1053F000A21ADFEDA22ADFEDA23ADFEDA24AB34600
:1054000001EB060C08F108004FF000422B46A246C3
:105410003AE000BFC5EEA66AF4EE436A66EE827A11
:10542000F1EE10FA77FEA67AF4EE436ABCEEE78A54
:10543000F1EE10FA18EE101AB1FA81F122FA01F623
:1054400008EE106A4FF01F06B8EE488AC8BF3F2624
:10545000711AC7EE887A08EE101AB8EE488A67EE1D
:10546000846A76EE856A66EEA76A76EE866A66EEEE
:10547000A76A77EE487A77EEA66A103066EEA06AE1
:10548000013BE4EC016A4CD050ED026A50ED017A28
:1054900066EEA66A67EEA77A76EE816A90ED008ADC
:1054A00076EEA76A68EE087A90ED018A76EEA76A32
:1054B00068EE087A76EEA76AF4EE656AF1EE10FA05
:1054C000A8DBF4EE436A66EE827AF1EE10FA77FE1C
:1054D000A67AF4EE436ABCEEE78AF1EE10FA18EE13
:1054E000106AB6FA86F622FA06F108EE101A4FF0A4
:1054F0001F01B8EE488AC8BF3F21C7EE887A891BD2
:1055000008EE101AB8EE488A67EEA16A76EEA26A33
:1055100066EEA76A76EEA36A66EEA76A78EE247A4C
:10552000A9E701EE10CAD9F84460B8EEC11A06F135
:10553000FF0725B306F17F0E02EE10EA9FED524AF7
:10554000B8EEC22AA5F1010CBCF1030F05F003016E
:1055500018D29FED153A012228465446EEE0D9F8BC
:105560004400344600F1FF0782460646B5EE400A85
:10557000B346F1EE10FA01F3918201F0A1BAB246FE
:1055800001F085BA0AEB85009FED073A9FED3F5A7F
:105590009FED3F6A9FED3F7ADFED3F0A5446A0F151
:1055A00008030122284613E000000000000020420A
:1055B000000020C2CDCC4C3FCDCC4C3E73EE051A42
:1055C000002A01FE833A8142A3F1100300F0B68065
:1055D000D3ED011AF4EE421AF1EE10FA60DA73EE2E
:1055E000051A002A01FE833AD3ED001AF4EE421A9E
:1055F000F1EE10FA6FDB71EEC22A71EE861A72EECE
:10560000A23AF4EE421A73EE871A72EEA02AF1EE75
:1056100010FA4FF0000271FEA21A31EE833A53EDF8
:10562000011AF4EE421AF1EE10FA60DB71EEC22AB2
:1056300071EE861A72EEA23AF4EE421A73EE871AEF
:1056400072EEA02AF1EE10FA4FF0000271FEA21ADB
:1056500031EE833A50E000BFB3CE810C0000802FC2
:105660003EF17F4F27DA1DBECEF4833F89DA40C07A
:105670004BA9084087DC864027DA1D3ECEF483BF65
:1056800089DA40404BA908C048E1FA3F85EB7140F8
:10569000CDCC70C29A9949C2CDCC1C41CDCC70C240
:1056A00071EEC22A71EE861A72EEA23AF4EE421A36
:1056B00073EE871A72EEA02AF1EE10FA4FF0000294
:1056C00071FEA21A31EE833AD3ED001AF4EE421ABB
:1056D000F1EE10FA8FDA73EE051A002A01FE833A12
:1056E00053ED011AF4EE421AF1EE10FA9EDA73EE5F
:1056F000051A002A01FE833A53ED021A0438F4EE2B
:10570000421AF1EE10FAFFF659AF71EEC22A71EEAD
:10571000861A72EEA23AF4EE421A73EE871A72EE0D
:10572000A02AF1EE10FA4FF0000271FEA21A31EE3B
:10573000833A8142A3F110037FF44AAF21EE041AA9
:10574000002900F0838004EB800010ED014AB4EEE4
:10575000424AF1EE10FA09DA1FED344A002A33EE1C
:10576000044A04FE033A01291CD16FE034EE425A88
:105770001FED396A35EE057A5FED3A0A34EE064AD6
:1057800037EE206A1FED3C7AB4EE424A35EE074A06
:10579000F1EE10FA4FF0000236FE044A34EE033AFE
:1057A000012953D010ED024AB4EE424AF1EE10FA4C
:1057B00007DA1FED4A4A002A33EE044A04FE033A90
:1057C00019E034EE425A1FED4E6A35EE057A5FED70
:1057D0004F0A34EE064A37EE206A1FED517AB4EED6
:1057E000424A35EE074AF1EE10FA4FF0000236FE5B
:1057F000044A34EE033A022928D010ED034AB4EEED
:10580000424AF1EE10FA07DA1FED602A002A33EE61
:10581000022A02FE033A19E034EE425A1FED646A8E
:1058200035EE057A5FED650A34EE064A37EE206AFA
:105830001FED677AB4EE424A35EE072AF1EE10FA10
:105840004FF0000236FE022A32EE033AB4EE413A3D
:10585000BA46002A18BFF246F1EE10FAD8BFF24657
:10586000AAF1400E02EE10EABCF1030FB8EEC22A14
:1058700004D21FEDB33A01222B46ABE004EB8500C6
:105880001FEDB73A1FED7F4A1FED7F5A1FED7F6A6C
:105890001FED7F7A083801222B4609E073EE040AD7
:1058A000002A00FE833A9942A0F1100000F0928095
:1058B000D0ED010AF4EE420AF1EE10FA3CDA73EE92
:1058C000040A002A00FE833AD0ED000AF4EE420AF0
:1058D000F1EE10FA4BDB70EEC21A70EE850A71EE33
:1058E000A12AF4EE420A72EE860A71EE871AF1EEF0
:1058F00010FA4FF0000270FEA10A30EE833A50ED2C
:10590000010AF4EE420AF1EE10FA3CDB70EEC21A24
:1059100070EE850A71EEA12AF4EE420A72EE860A52
:1059200071EE871AF1EE10FA4FF0000270FEA10A34
:1059300030EE833A2CE000BF70EEC21A70EE850A9A
:1059400071EEA12AF4EE420A72EE860A71EE871A0F
:10595000F1EE10FA4FF0000270FEA10A30EE833A29
:10596000D0ED000AF4EE420AF1EE10FAB3DA73EE6B
:10597000040A002A00FE833A50ED010AF4EE420ABE
:10598000F1EE10FAC2DA73EE040A002A00FE833A3E
:1059900050ED020A043BF4EE420AF1EE10FAFFF673
:1059A0007DAF70EEC21A70EE850A71EEA12AF4EE98
:1059B000420A72EE860A71EE871AF1EE10FA4FF083
:1059C000000270FEA10A30EE833A9942A0F1100065
:1059D0007FF46EAF002900F0838004EB830010EDAC
:1059E000014AB4EE424AF1EE10FA09DA1FEDD94A43
:1059F000002A33EE044A04FE033A01291CD16FE069
:105A000034EE425A1FEDDE6A35EE057A5FEDDF0AAD
:105A100034EE064A37EE206A1FEDE17AB4EE424AD0
:105A200035EE074AF1EE10FA4FF0000236FE044A56
:105A300034EE033A012953D010ED024AB4EE424A43
:105A4000F1EE10FA07DA1FEDEF4A002A33EE044AAE
:105A500004FE033A19E034EE425A1FEDF06A35EEC7
:105A6000057ADFEDD80A34EE064A37EE206A9FED5C
:105A7000D67AB4EE424A35EE074AF1EE10FA4FF00C
:105A8000000236FE044A34EE033A022928D010ED13
:105A9000034AB4EE424AF1EE10FA07DA9FEDCB2A40
:105AA000002A33EE022A02FE033A19E034EE425A8B
:105AB0009FEDEE6A35EE057ADFEDC20A34EE064A56
:105AC00037EE206A9FEDC07AB4EE424A35EE072ADF
:105AD000F1EE10FA4FF0000236FE022A32EE033ADF
