:020000040800F2
:1000000000100020E9380608E5040608E7040608A1
:10001000E9040608EB040608ED0406081163060867
:10002000000000000000000000000000EF040608CF
:10003000F104060800000000F3040608F5040608B1
:100040001563060819630608F90406081D63060807
:100050002163060825630608296306082D63060840
:1000600031630608FF04060835630608396306088D
:100070003D630608416306084563060849630608B0
:100080004D63060851630608556306085963060860
:100090005D63060861630608656306086963060810
:1000A0006D630608716306087563060879630608C0
:1000B0007D63060833050608816306088563060824
:1000C000896306088D630608916306089563060830
:1000D000996306089D630608A1630608A5630608E0
:1000E000A9630608AD630608B1630608B563060890
:1000F000B9630608BD63060839050608C16306082A
:10010000C5630608C9630608CD6306083F050608EF
:10011000D1630608D5630608D9630608DD630608BF
:10012000E1630608E5630608E9630608ED6306086F
:10013000F16306086D050608F5630608F96306080D
:10014000FD630608016406085305060805640608F1
:10015000096406080D64060811640608156406089B
:100160002DE9F04F9FB0804600208A46CDE90C0073
:100170008DF82F00112001F037FD102001F034FD23
:10018000DFF8E0BEDBF82800B8B10227112001F04B
:100190002DFDB8F1000F09D001F02AFD06D301F0C2
:1001A0003BFD012802D101F03DFDF8E7102001F0F0
:1001B0001DFD38461FB0BDE8F08FB8F1000FE4D048
:1001C000D8E9260181F00801084307D198F84E00CC
:1001D0000128DAD098F84600012806D00020022134
:1001E000012201F049FD01F0B1FD9BF8390078B121
:1001F000DBF83000ADF83400D8E9261004224B4279
:10020000824127D381F40001084319D104201FE063
:1002100001F0EEFC1ED3BAF1000F00F053820CACDB
:10022000204601F09FFDDFF8405E20460522296848
:1002300001F012FE2868AAEB0000A0F10A0A46E2CB
:10024000404601F02DFE01460220012908BF04208E
:1002500001F054FE0DF12F0001F07AFE9DF82F0001
:1002600001F07EFE404601F093FED8E92676CDF8F7
:100270002880781E66F100010022D0F11F0372EB86
:10028000010158D287F04000304300F0AD8187F083
:100290008000304300F03A8187F48070304300F0F2
:1002A000358187F4005030434BD087F40030304321
:1002B00000F08E8187F48020304300F0898187F43C
:1002C0000020304300F0D28287F48010304300F0E9
:1002D000188487F00060304333D086F02000384324
:1002E00000F03B8487F00050304368D087F08040B6
:1002F000304300F05C8487F00040304300F0CA8453
:1003000086F00100384300F0648586F0020038432F
:1003100000F06A8186F00400384300F0A68586F07C
:100320000800384300F0108687F08050304308D032
:100330001F2701F0BABB012101FA00F010F08B0F6A
:1003400039D0D8F87410DFF8244DD346B8F81080AF
:1003500091F82100251D216091F820A0099191F8C4
:100360005590242107900020CDE91600CDE910001A
:10037000284601F013FE04F133000D21C4E90A768A
:1003800084F832A0A4F8308001F014FE04F141009A
:10039000072184F8409001F00DFE87F000603043A3
:1003A00003D087F0805030434DD1DDE90998DA461B
:1003B000DFF8B0BC5DE010F0802F3FF463AF0120A8
:1003C00001F0FBFD0021D8F8744040F27123DFF802
:1003D0009C0CCDE91811CDE9161162890160C0E9C4
:1003E0000214C0E90411C0E906115A43BAF1000F22
:1003F000426004D0CAEB4A1101EB9A01416001F05E
:100400000BFC012808BF01F00DFCDFF8605C04F173
:10041000280000220027294601F0D2FDD8E9260154
:1004200080F0005008434FF0010040F0F081D4F814
:10043000B860217C2872CA071EBF01F004000121A8
:1004400081EA9000E4E1DDE909980799DA46072995
:10045000AED80120DFF80CBC884010F0B50F08D0F2
:1004600009F16C0004F108010FAA01F0A9FDD8E917
:10047000267699F84200013089F8420087F400504E
:10048000304300F0388187F08050304300F06381C2
:1004900087F00060304340F0908108F1580008F187
:1004A000500101F0A0FD00204FF4004104F13202A0
:1004B00088F89000C4E90A1099F8441099F83500BA
:1004C000D9F8E46084F84110B9F8DA1084F83400FF
:1004D00009F1980001F08EFD0746D9E92601002FA9
:1004E000C4E90E1041F0E08294F83200294600225F
:1004F000002488F815003046776801F061FD01F0AE
:100500008BFB012841F0498201F045BADFF85C1B02
:100510004FF40070D8F8745000248DF85740888448
:10052000DFF84C0B8F600F460C628C778C830C7558
:100530000C70C1E9036400F13C0B95F83301C1F87C
:1005400018B0012807D195F83B01D8F800400121E7
:1005500001F0AAFD0444D5F8EC0108F1580110900F
:1005600008F1500001F0B0FD20441190688B12900A
:10057000D8F800001390E88A149001F04DFB012890
:1005800008BF01F04FFBB5F8EA0001F0BBFD05F52F
:100590009D79044607F120000422494601F0D2FD6E
:1005A00016A80021242201F013FE95F83801002836
:1005B00000F0B485B5F8E610DFF8B02A05F12800A0
:1005C00001F018FD0746002841F0DD8100F0A9BDCB
:1005D000D8F8749099F80000032840F0CF8448467A
:1005E00001F02CFE01F05FBAD8F8747001200121EF
:1005F0000124C7F86C8002F073FA002F384618BF48
:10060000012001F0DAFCD8E9260181F0020108435B
:1006100007D1387B0124C1071CBF00F0040084EA25
:10062000900401F0F9FA012808BF01F0FBFA07F184
:1006300071022046414602F05FFAB8F88C00DFF8FC
:100640002C9AA8F81200002088F8A100C9E90070CF
:10065000798989F80E0089F80D0098F8110089F859
:100660000C0040F271204843BAF1000FC9F80800AD
:1006700005D0CAEB4A1000EB9A00C9F80800388D83
:1006800007F1180807289ABFDFF8E81951F8206029
:100690000026404609F10401002201F091FC0A9A6B
:1006A000D2E9260181F00201084340F0A58401202F
:1006B000147C012C89F80E0040F0C88407F1420533
:1006C00000F09CBCD8F850004FF0000A0C90B8F82D
:1006D0005400ADF8340000208DF836000CA900203D
:1006E00002F084FA10B1074601F0DFB901200021C1
:1006F00002F0C6FC80E5079F062F11BF032F0020E4
:100700004FF40041C4E90A10002299F8350099F825
:100710004410D9F8046184F8411084F83400294663
:1007200098F8150084F83200304601F049FC072F94
:1007300018BF022F40F0C28509F1700109F16C0069
:100740000C68002C00F0D4854189006802F0C2FCDE
:10075000211D2046F4E700210420CDF814A009F162
:10076000580AC4E90A0199F8430099F8341084F84A
:10077000410094F83200089184F8341002F0B4FC7F
:1007800044468046E068002800F0AE8702F0B4FCE2
:10079000E1684875D4E91410CDE91010E068D0E99B
:1007A0001412CDE91612A17D002900F09387E17D96
:1007B000002918BF012100F08EBF09F158000FAACF
:1007C000294601F0FDFB0120079F84F83400D8E999
:1007D000260180F0040008430CD194F8320002F0A6
:1007E00083FC61680222531E834203D244F8221024
:1007F0000132F8E799F8205099F82110284602F0C4
:100800009AFC84F8335084F8320001F006B90026CF
:1008100004F1C402414602F06FF9B8F88C0088F880
:10082000A170A8F81200D8F8980010F0300F07D087
:10083000D8F89C10C8E906010120687600F056BC83
:1008400098F810006876207CC10700F048844007C3
:1008500040F1458498F81000042840F04084D4E921
:100860000801C8E90601012000F03EBCCDF814A043
:100870009BF839000CAADFF800180432002808BFE2
:1008800001F11802D8F874501488002D28466F6EB4
:1008900018BF012001F091FB002F384618BF01203E
:1008A00001F08BFB01F0B8F9012808BF01F0BAF99B
:1008B00004F1960008F158010890D5F8E40016906C
:1008C00008F15000CDE9021001F0FEFB1790B5F8D9
:1008D0002A01069595F85B4095F838B002F08CFC3B
:1008E000B5F854001A90069890F85850069890F869
:1008F00059A0069890F85A6006987E3002F086FC5F
:1009000006FB1A50069D4FF0000960430490C0B2E8
:1009100000EB0A060796002F00F0B08397F8CE0090
:1009200010B9012087F8CF0097F8D200FF2826D011
:1009300097F8D100864222D207F1680507F17404C6
:10094000C0B2864213D0204602F072FC014628460F
:1009500002F08EFC97F8D100002818BF012001F0AA
:100960002CFB97F8D100013887F8D100E8E7002088
:10097000ADF84000384610A902F090FC069DCDF875
:10098000249007F1680807F17409002697F8CE0053
:10099000F1B2514545D2A8B1BBF1010F02D197F890
:1009A000CE0070B302F03EFD0028044618BF0120BF
:1009B00001F003FB00202146E074404602F058FCA1
:1009C0000136E3E797F8D0000028E5D0484602F06A
:1009D00033FD0028E0D0484602F02AFC014640469C
:1009E00002F046FCBBF1010F03D097F8D200FF28BC
:1009F000E6D097F8D1000028E2D0013887F8D1007E
:100A0000DEE7B9680029CDD097F8D4000128C9D015
:100A1000488904384881404602F02AFC0020B8602A
:100A2000CEE7DDF82880E0B101F0F6F8012808BF34
:100A300001F0F8F8DDF82490D5F81C11089A079E0B
:100A40005FFA89F001FB0020F86395F85100012856
:100A500003D12846394602F0FBFC09F101093F6841
:100A600059E797F8D0000028DED004980006DBD0C4
:100A70004846049EF1B201F1FF04E1B2091B18BF20
:100A80000121056835B129B1012001F096FA281D30
:100A90002646EFE73006069DC6D0BBF1010F10D108
:100AA000B96819B197F8D400012821D102F0BAFC35
:100AB0000028044618BF012001F07FFA02F044FD2F
:100AC0000DE002F0AFFC0028044618BF012001F041
:100AD00074FA02F039FD97F8D200FF2804D097F895
:100AE000D100013087F8D100013E3006D5D19BE717
:100AF000488904384881484602F0BAFB0020B860B3
:100B0000F2E7D8F87450CDF814A06E6E02F022FD12
:100B100082469BF83970BDF834900120012144468B
:100B20004FF0010801F0DCFF002E304618BF012015
:100B300001F043FA96219620002F18BF0A20BAF13F
:100B4000000F08BF084695F8D910012940F0F2833C
:100B50002768002F18BF9637EDE3D8E905018142D9
:100B600040F26386091AD8F87800002800F044861D
:100B7000026DD0E9260383F020031843DFF8E83440
:100B8000DFF8EC0408BF00F120031868D8F85030F3
:100B9000121AD8F8600003445C18A24200F22E86B4
:100BA0009A4240F22E861044C01A00F028BE4446F5
:100BB0000025DFF8B864D8F87480E76FCDE91255E6
:100BC000CDE91055FB7ED7E90001BA7E3560B576D8
:100BD000337694F820307276DFF89424002B434665
:100BE00018BF02F10C03C6E9033001207161756082
:100BF000308101F011F8012808BF01F013F8B87E28
:100C000005284FF0000038BF012001F0D6F9D7E9E0
:100C100000010A9C0022C4E9060108F128003146BF
:100C200001F0CEF92068B98901EB4004B87E0121BA
:100C300002F096FC20447060D8F8B80028B190F813
:100C4000B810012918BF0020054606F1090002F07E
:100C500099FC002D00F0B485D8F8B8000A9C04F186
:100C60005801D0F8A40002F095FC1790B8F8AC0039
:100C7000189020681990D8F8B800D0F8B41090F8FF
:100C8000B800B0FA80F01A91410916A802F08AFC67
:100C900000F098BDF54E00210120D8F874402022C4
:100CA00088F89010ADF840103081F14894F89A50CF
:100CB000B1763176C6E900117161012100F10C03B2
:100CC00094F8B9007576C6E90332D8F8005001F0FF
:100CD000EBF9D4F8A410054408F15000169108F17E
:100CE000580101F0F1F928441790E08B02F084FAE2
:100CF000D4F8B4001A9000F08FFF012808BF00F06C
:100D000091FF04F17005B8F88C1006F1180228461E
:100D100001F070F90746002840F0C68694F89A0062
:100D200002F084FC00EB470094F8B81070600229D0
:100D300002BFB4F88C100844706006F1090002F09C
:100D400021FC727E04F12C00012102F077FC0746A1
:100D500094F8B800B0FA80F0410916A802F022FC1D
:100D600098F8A80001281AD1D4F8A000B8B190F8DA
:100D7000D810022913D1D0F8D010D8F878208A42A0
:100D80000DD194F89A1090F861208A4207D1B0F8FA
:100D90005400D4F8B410814288BF02F09BFC94F850
:100DA000C00040F0020084F8C0004FB90020DFF816
:100DB0002C3E2A46009010A9002002F091FC074624
:100DC000D4F8A000002800F06F8602F063FE00F067
:100DD0006BBEDFF8085E00242020D8F87460ADF800
:100DE0004040C5E90340012096F89B10AC766C6149
:100DF000C5E90044288196F89A00297608F158013F
:100E00006876D6F8A400169008F1500001F05CF95D
:100E10001790F08B02F0F0F9D6F8B4001A9000F0B9
:100E2000FBFE012808BF00F0FDFE96F89A0002F0D4
:100E3000FDFB00EB47001430686005F1090002F08B
:100E4000A1FB6A7E06F12C00012102F0F7FB96F867
:100E5000B800B0FA80F0410916A802F0A3FB009494
:100E600006F1700210A9002053E140460026D8F890
:100E70007480C46FA07E05284FF0000038BF0120A9
:100E80000121012701F02CFEE07E28284FF0000010
:100E900038BF012001F091F8DFF8405DA07EE17ECF
:100EA000AF73C5E90086AE606873297300F0B4FEC5
:100EB000012808BF00F0B6FE0A9800244FF0000990
:100EC000C8F86C00B8F8280007289CBFDFF8081D98
:100ED00051F820402046002C18BF012001F06DF889
:100EE00008F11806291D0022304601F069F8687BD8
:100EF00002F01EFE07464188008804F116022023F6
:100F000002F024FE398904F13800224602F06EFE18
:100F1000FB88BA88E18A3046CDF8009002F09CFE4A
:100F20000A9E687B0121346802F01AFB00EB440042
:100F3000A86002F0B7FE08F10D0029460022B04675
:100F400002F0BEFE00F0AFBDCBF8288001200027E4
:100F500088F89100CAEB4A10D8E9092388F8A170F3
:100F600000EB9A014046984700283FF40FA9044639
:100F7000404603F037F82746FFF708B998F8A7006E
:100F8000DFF84C1C013088F8A7009BF839000CAA48
:100F900004320028484608BF01F11802148850F8AE
:100FA000187F01210390012001F09AFD002F38469F
:100FB00018BF012001F001F800F02EFE012808BF43
:100FC00000F030FE04F1960039460790002089F8C1
:100FD0005500D7F8E40090F841B0D9F81800B0F8FF
:100FE0004451002900F0A18191F85E01042880F0AD
:100FF0003082D1F8E810F4E707F13605012001212D
:10100000012401F06DFD002E304618BF012000F0D4
:10101000D4FF6988288806F11602202302F096FD85
:10102000298906F13800324602F0E0FDEB88AA88F3
:10103000F18A4046009402F00FFE0A98D0E926019A
:1010400080F0400008431CBF0A98047C89F80D40DA
:1010500002F028FE07F10D004946002202F030FEA2
:10106000BAE300BF18E900203C39002048E800201E
:1010700098E30020E4EB002008E7002095F87000DA
:10108000A8B195F88A00012811D195F837005821A8
:10109000002808BF3C21685C4FF4907108BF4FF4F2
:1010A0008E71089A695801FB0020C5F8B00095F8C8
:1010B0005820D5F8201116A802F0C0FF284602F0EB
:1010C000DDFFDFF804BBDDF814A00746002840F080
:1010D000EB84DDE9020100F086FF00F0E5BCD4E915
:1010E0000601C8E90601002084F87800D8E9060165
:1010F000C5E9040198F81100287605F1090002F00D
:1011000041FA03F095FC002004F10E01009016AAAC
:1011100030462B4602F0E4FA00F0C5BC95F82500F5
:10112000387095F83B010894D8F8004095F8206095
:101130000121CDF814A002F013FA98F81C10DFF882
:101140009C2A117740F2E241714301EB44010844CB
:1011500008301061DFF8700A406AC16B404688476A
:101160000028824618BF012000F027FF00204FF022
:10117000FF3188F81C00DFF8680A006803F066FC9D
:10118000D8E9260180F08000084312D1D8F8740015
:1011900090F8290201280CD198F81800012808D1EC
:1011A00008F1100003F058FCD8F87400002180F812
:1011B0002912444608F11008404603F075FC064623
:1011C000D4E926010995CDF81C9003F07FFC13D1DA
:1011D000DFF8F809083086420CD0B07B800709D5CB
:1011E000708931680844B189084400790B2808BF28
:1011F0004FF0010A0AF1010ADFF8D8095FFA8AF90B
:101200004FF0000A5F4600F15C05DFF8C00900F10D
:101210000804A6B1CA4512D2304639462A4600F023
:10122000CFFE0A990AF1010A087F01300877A64229
:10123000404618BF301D066804370235E9E7DDF87F
:101240002880CA4509D2204639462A4600F0B8FE11
:10125000043702350AF1010AF3E7DDF82490DFF8DC
:101260007C7900205146072906D80BEB41024BF848
:10127000210001311084F6E7DFF86409006803F00B
:1012800029FC87F814A000F0C7FC012808BF00F073
:10129000C9FC99F8690199F89411DDF814A00028A7
:1012A00000F0F181002900F09A82012097F82010C7
:1012B0008DF8790016A803F013FCFCE2756800F0C5
:1012C000ABFC012808BF00F0ADFC002485B1DFF8BD
:1012D0000C19E0B2002201EB800003F053FC70898E
:1012E000316801F0F7FE68682E4601340546EDE7E7
:1012F00000F092FC012808BF00F094FCB8F88C00C4
:10130000002588F814500130A8F88C00D8F80C009B
:10131000002800F08383D9F80411484603F03AFC12
:10132000D8F80C000121017577E3DFF89CB84FF085
:10133000FF37BAE300278144D5F8E40004F15801EF
:1013400002F028F938441790B5F82A01189020685F
:101350001990B5F854001A9096F8CD00002818BFDF
:10136000012000F02AFE96F8CD7005F17E0001F014
:101370004DFFDDF814A0002E42D000F04DFC0128F6
:1013800008BF00F04FFC96F8CD00002818BF0120E0
:1013900000F013FE96F8CD00D5F81C11C01B00FB21
:1013A00001900121F0630A98046895F8610002F049
:1013B000D7F800EB4400F062D5F820119639884246
:1013C00005D995F8372012B985F83581F06AD5F836
:1013D0001C21A2F1960398429CBF891A884205D924
:1013E00095F83700012808BF85F8358195F8510038
:1013F000012803D12846314602F02AF83668BAE7B8
:1014000095F83710582295F86100002908BF3C2252
:10141000A95C4FF4907208BF4FF48E72DDF82880FB
:10142000AA5802FB0191C5F8B0100121D8F800407C
:1014300002F096F800EB4400D5F8201195F85820FA
:10144000C5F8A00016A803F0F3FB284602F016FE2C
:1014500029E34FF000080026CDF81890CDE9041AD2
:10146000002F00F0DB8097F85E010428C0F0C480F4
:10147000D7F83401411C1CBF396F884215D8B7F822
:10148000380107289ABFDFF8501751F82040002490
:101490002046002C18BF012000F08FFD4FF0FF30D8
:1014A000C7F8340104F1300001E007F5B57001F030
:1014B000ADFE99F85000CDE90865012803D020B9A8
:1014C00097F8578101E097F8588107F1A40507F1D3
:1014D000BC064FF000094FF0000AC14546D2306803
:1014E00048B1304601F0A4FE0146284601F0C0FE96
:1014F0004FF0010A2BE0BBF1010F06D1D7F8D01055
:1015000019B197F86301012824D13846002101223E
:1015100003F0C6FB0028044618BF012000F04DFD73
:101520000020BAF1000FE07418BFBBF1000F0AD120
:1015300097F85A01FF2806D197F8660118B9A07BE1
:1015400040F00800A0732846214601F091FE09F101
:101550000109C2E7488904384881284601F088FE1D
:1015600000204FF0010AC7F8D000F0E7049CBC420D
:1015700008D0012000F021FDD4F80C01D7F80C119F
:10158000081A00E00020DDE90716DDE905A9099D3C
:101590000844786299F8500001282DD10A98012159
:1015A000046897F8310101F0DBFFF96800EB4400B3
:1015B00021F07F4196397861884205D999F8400039
:1015C00010B9012089F85500D7F8E810A1B1D1F879
:1015D0000C117869A1F19602904206D8FA6822F0BF
:1015E0007F42511A9639884206D999F8400001285D
:1015F00004BF012089F85500300606D197F85E0136
:1016000000260338022838BF0126A8B2B7F8445193
:10161000A84288BF0546D7F8E87021E7DDF82880A2
:10162000D9F82C00344608F10806169008F1580144
:10163000304600F049FDA9B2E3B2CDE91701D8F870
:1016400000001990B9F838001A90D9F81800C2783B
:10165000C06820F07F4102F01F0216A803F086FB4D
:1016600000F0DAFA012808BF00F0DCFA484600F082
:10167000E5FDDFF854B50746002800F0FA800020A9
:1016800088F80E0010E209F5A470002900F0088126
:1016900097F8201003F024FA3D7D0FAC002D00F0E8
:1016A000A280DBF80000002800F09D80DBF80060DD
:1016B000307880060AD520460021012200F088FDFE
:1016C000B0783F288DF83C0000F2F580013D0BF129
:1016D000040BE3E701210175A07D012804D1E07D21
:1016E000B0FA80F0400900E0002006904FEA0814AC
:1016F0000FAEDDF828804FF000094C454AD0D8F8ED
:101700000C00C0B1B9F1000F15D0BAF80C00DFF829
:10171000B81437462C2221F8090001EB0906BAF863
:101720000A0026F8020C56F80C0DDAF8001000F04A
:1017300009FDB2463E4650462946324600F040FC7E
:10174000D8F80C0010B30DF1400B286816AA5946C2
:1017500003F042FBD8F80C102868497D03F058FBD1
:10176000089F384603F072FB80460998394690F886
:101770004320DAF80000407803F070FB4044DDF8C5
:101780002880012281B2584600F066FB043509F139
:101790001009B2E7DDF8249099F8200099F821109B
:1017A00001F0C9FCDFF83414DFF81CB4DDE905A54D
:1017B000079F81F8320099F8200081F833002DE16D
:1017C00003F036F90020DFF8143408F10E01009020
:1017D00010AA284601F084FFDDF8288063E100208C
:1017E00089F8910160E00DF1570000F0B1FB9DF820
:1017F000570000F0B5FB5EE0D8F860000844C8F878
:101800006000D8F81C1081B1DFF8C023DFF8C433C2
:1018100012689B6A1A44D8F850301844801A8842DB
:1018200082BFC81A1044C8F8600003F037FBDFF825
:10183000A403DFF89813D8E90923806A09680844EB
:10184000D8F86010081AC0EB401101EB9001404637
:101850009847002800F0B1810746D8F84840404634
:1018600002F0C0FB002C3EF491AC3846A047FEF7D6
:101870008DBC03980468002C3FF401AFD8E9260121
:1018800080F40030084308D194F85E01042804D3A2
:1018900004F17C00314600F0A6FB04F1E800E9E722
:1018A00097F8201003F01CF997F8212009F5B8707B
:1018B000002101F0C3FE07980078042805D1B9F88B
:1018C0003C110420022908BF03200138C0B248445B
:1018D00090F8C40187F8240098F8A800012802D0E5
:1018E000D8F80C0010B1012087F82500D9F8C800FD
:1018F00003F0DCFA052803D0062803D1012406E012
:10190000002404E000200121002401F0E9F810A8DF
:101910002146089A03F0DCFA00F07EF9012808BF9E
:1019200000F080F9AD4C09F1280009F596712246C6
:1019300003F018FB074630BB99F82E010138012847
:1019400020D899F83311607F31B100F07F006077C3
:10195000A07F60F07F0005E040F080006077A07F0E
:1019600000F07F009B49A07798488068C96B81424E
:1019700003D1207F08B101382077984909F1EC00A4
:1019800003F0B8FD002798F8A700DFF83CB201305B
:1019900088F8A70088E000F045F93D46B5B18F4FC3
:1019A000E0B2002207EB800003F0ECF870893168A8
:1019B000084497F8321003F02BFA6F68013400F0F6
:1019C0002BF92E4601283D46E8D1E4E799F8351079
:1019D00009F1AC0003F084F8D9F8D000002800F039
:1019E000EF80D0F8D05090F85140002D284618BF15
:1019F00001200121012601F073F8687D079F00B9DD
:101A00006E7599F8960018B100253CB9012805D1EA
:101A1000D9F8E410484603F06FFE002500F0FCF80A
:101A2000012808BF00F0FEF8D8E9261081F0040272
:101A300002430FD081F0805202430DD081F4005256
:101A400002430BD081F00062024309D081F008010B
:101A5000084307D1012006E0022004E0032002E051
:101A6000042000E00020002107F03F02052F88BF7E
:101A700001210D2323FA02F21143D8F80C2001F0C2
:101A80000101002A18BF012203F092FE99F82100FB
:101A90002A46811F18BF0121033818BF01200840C2
:101AA0004E4903F0B9FE0746CFB303F0BBFE00205A
:101AB000002403F0BDFE012000F020FA122088F877
:101AC000A04003F0C9FE0020002101F0D9FA98F8E7
:101AD000A10010B1013888F8A100D8E9261001F062
:101AE000804200F005039B1837D000F001008018F9
:101AF00011D0D8F8700070B1D8F86C00002818BF69
:101B0000012000F05AFAD8E91B30002100220024FD
:101B10009847C8F87040404603F0A0FE32E0D8E98C
:101B200026010422434272EB010144D32D490842AD
:101B300037D010F4C07F05D0D8F8741091F8351163
:101B4000012908D010F4C02F32D0D8F8740090F8D2
:101B5000580001282CD101202BE011F4F01F03D0F4
:101B6000FF2088F8140008E081F40051084304D1F4
:101B7000D8F80800807D012804D0DBF824008169B2
:101B800040468847BAF1000F7EF400AB01E000F058
:101B900049F800F041F80128F9D003F0C5FFFEF73D
:101BA000F5BA04F0F9F90138B0FA80F0400900E024
:101BB000002004F0F7F903F071F90027FEF7E6BA08
:101BC0000025079F2AE700BF18E900203C390020C4
:101BD00008E7002098E30020E4EB002048E800201C
:101BE000C4F000208001060004F0F4B904F0F3B959
:101BF000D8E926010422404272EB01007047826856
:101C0000521C8260426832B10268531C036011703A
:101C10004168491E416070470148C068704700BF75
:101C2000B0E2002010B5114850F8041CC90716D0C6
:101C30000F4C22786178914212D20E4A52F831004C
:101C400002EBC1010122496804F0D6F960780C2842
:101C500003D3002004F02EFA60780130607010BDCC
:101C600004F02BFABDE8104004F030BA44040248F6
:101C7000B0E2002094E500202DE9F041002706465F
:101C8000304C8846154602284FF0000038BF01202E
:101C90000121A047B8F1030F4FF0000038BF012029
:101CA0000121A047022D38BF012738460121A04756
:101CB000254F012E02D1B86C00B1804797F84F0034
:101CC000012E08BF022835D0B0420DD004F014FA1E
:101CD00018B10120002104F015FA97F8230001281B
:101CE0001CBF012000F00AF9012E12D026BB97F884
:101CF0004F0028B10020002404F0AAFA87F84F40D2
:101D0000B8F1010F0CBF00200120BDE8F04104F044
:101D1000B1BA15B9002004F0C9FA97F84F000128AC
:101D200008D0002004F0A6FA0120012404F090FA63
:101D300087F84F40BDE8F08100200121BDE8F04167
:101D400000F0CEBEE12A000808E700200448817FA9
:101D5000012904D1C07F800748BF04F0BDBA704795
:101D600030E500202DE9F04781461A20FFF73CFFBF
:101D7000334D95F84D00012805D104F0AFFA3148F4
:101D80000068461C00E000262F4F97F83C00002812
:101D900041D0022818D0012822D1BC6A2C4A002345
:101DA000E007610804F09CFA4FEA4008A87F012888
:101DB00018D12648864215D20020A877A88B00F1BA
:101DC000010AA5F81CA00FE0A87F012819D11F481F
:101DD000864216D20020A877A88B0130A88311E094
:101DE000002618E0B5F81CA0A4FB0601184A002341
:101DF00004F076FAB96B401A1FFA8AF108FB010663
:101E000009E0A88B4FF4FA71A6FB012300FB013017
:101E1000510A41EAC05695F82200C9F8006001282D
:101E200008D10C48864205D8002085F82200288C6D
:101E3000013028841A20BDE8F047FFF7D7BE00BF65
:101E400008E700201400024830E500202FDD2406BA
:101E500018F00100FF47E8011CB504F0C4FA07D8E8
:101E6000DFE800F003090E12180004F0C3FA04E0E2
:101E700004F0CCFA0FE004F0CDFAADF804000AE06B
:101E800001EB8100C00003E00020ADF80400480130
:101E9000009000E000916946204604F0C2FA1CBDA3
:101EA000D0E9262182F080030B4313D082F4801303
:101EB0000B431CD082F400330B4312D082F48023F6
:101EC0000B430ED082F400230B4310D082F48072B7
:101ED000114311D1406F90F82E010138022804D32C
:101EE0000AE0406F90F8540030B101207047406F15
:101EF00090F851000128F8D00020704710B5104923
:101F000091F82320824218D0012803D191F8502063
:101F1000012A12D00D4B0BA21C68125CC4F30614EC
:101F2000944208D01C6860F302041C601C68C4F36F
:101F30000614A242FAD181F82300002010BD00BF90
:101F400008E7002001030F232F171F3F0800024856
:101F50000249097801700020704700BFE7F00020B7
:101F600070B5084A0021084B602907D0561854580C
:101F70000C31E5587668B543E550F5E703490A6842
:101F8000086070BD38420608000002489808024800
:101F900001498863704700BF60E70020002204F019
:101FA00057BA28B10068401AB0FA80F0400970476B
:101FB00000207047002204F069BA012100F090BDB2
:101FC00070B5002805460E4618BF0120144604F0DF
:101FD0008CFA1EB168892968084430600CB1A88960
:101FE0002080002070BD0A6802608A88897982801A
:101FF000817170472DE9FF410646A92090460D46A4
:10200000FFF7F2FD01200421012401F039F82448F2
:10201000244F0522395864F30201395006F10801B2
:1020200002A800F08FF8029802220123F860B86835
:102030000399400960F35F11B96040F6740170685C
:102040003860B8686FF3541040EA4510B86078689B
:1020500040F400007860B86940F00100B86104F015
:1020600047FA054680B9786A40F002007862786ADB
:1020700020F0020078627868C0F3C52088F800007C
:10208000B86920F00100B8610020042100F0F8FFD9
:10209000A920FFF7ABFD284604B0BDE8F08100BFE2
:1020A0002CFCFFFF5408024810B5064A002902F133
:1020B0000C0408BF02F1080404F020FA2168084467
:1020C000023010BDCCE2002010B58A79012A04BF8D
:1020D0008279002A0CD00A68084B9A420AD3036816
:1020E000074CA34298BF93423CBF0122827101E09A
:1020F00000228A71BDE8104004F024BA00B817FE2F
:10210000FF47E80110B50E4A00210023022904BF51
:10211000D8B210BD1C0610D104F03CFA0CD0B3F8B4
:102120003841844208D193F85E31023B032B4FF0D3
:10213000000338BF012300E000230131E6E700BFC0
:1021400074EE0020F0B5EAB104F029FA38BF154664
:10215000042A28BF25462E1F01F0030418BF2E466F
:102160009C4211D1A2EB060C04228C198319F6B201
:1021700000279CFBF2FEBAB2B2420DD28D5C013751
:102180008554F8E70020F0BD00231404FBD0CC5C9C
:10219000013AC4540133F8E71FFA8EF100268E424B
:1021A00005D254F8262043F826200136F7E70749E0
:1021B00001EA8E02A11813440CF003020024A2428B
:1021C000E1D90D5D1D550134F9E700BFFCFF0300A7
:1021D000F0B500F00303C3F104039A421C4638BF74
:1021E0001446042A28BF1C46231F18BF2346D21AB0
:1021F0000024A5B29D4202D241550134F9E74FF0C7
:1022000001340344002701FB04F5042492FBF4F499
:10221000A6B2B74203D243F827500137F9E7064D7B
:1022200002F0030205EA840423440024A24298BF7A
:10223000F0BD19550134F9E7FCFF03002DE9F04F1B
:1022400093B0DFF8787882460120BAF1000F87F862
:102250004100DFF86C08DAF81840C0F81CA05046BE
:1022600018BF012004F0A2F9002C204618BF01205D
:1022700004F09CF99AF8500078B14FF480200021C6
:102280004FF48025002604F094F9C7E90A56BD6989
:10229000002D18BF012503210AE04FF40030002172
:1022A0004FF40036002504F084F9C7E90A650221DD
:1022B000079187F840509A4A116860F30401116051
:1022C0009AF80000032807D10120002500260123E9
:1022D000F8610127032085E394F83011042905D122
:1022E000B4F832010421022808BF0321B4F83801F0
:1022F0004D1E04F07BF9E9B2D4F8E840084490F8A8
:10230000C451FFF789FC012808BFFFF78BFCF4B12B
:1023100094F83011042905D1B4F8320104210228BF
:1023200008BF0321B4F838014E1E04F05FF9F1B282
:10233000084490F8C401401BB0FA80F04FEA5016F0
:1023400008D1D4F8E840002CE2D1002003E00020BE
:10235000012600E001200290DAF818B00024584667
:1023600018B1D0F8E8000134FAE704F049F990F820
:102370002E010138B0FA80F0400904FA00F0C4B22E
:10238000DFF838072146806B04F03EF903909AF895
:10239000150001280CD19AF8000048B9601E0121EF
:1023A000012404F08BF903988AF80040CAF80C0065
:1023B0001EB168B204F087F96CE0DFF80007D0E9DD
:1023C0000A010EACC4E90001012004F0EFF804F0AA
:1023D00017F9002818BF012004F0E8F8DFF8EC56E0
:1023E0005E46D4E9000180F40030084303D1F07C5C
:1023F0000130F07408E0D4E9000180F48020084343
:1024000002BFB0780130B07096F83011042905D1C0
:10241000B6F832010421022808BF0321B6F83801BA
:102420004F1E04F0E3F8F9B201220844002190F9AC
:10243000C40104F04DF92968B77C01EB800207F074
:102440000F07537886F82B30F37811F8201047EAFD
:102450000111B174917803F07F0242EAC111F17069
:10246000296801EB8000807810B9012003F002FF99
:10247000D6F8E860002EB4D104F05AF9294AD16A9E
:1024800021F47F4141EA00202549D062086840F4E8
:1024900080000860DFF8381607984FF6FF79039C34
:1024A0000027CDF820A001EBC000043005900020EB
:1024B0000B90002006909BF85E010428C0F0738208
:1024C0009AF850000A940DF14B020DF14A030028CE
:1024D0004FF4AC7008BF40F257101BF8004040F2B8
:1024E000571008BF4FF4AC701BF800804FF49F707A
:1024F00008BF4FF4A0703BF80050DBF830010EA984
:1025000004F01CF904F07CF80D90DBF83401411C58
:102510000AD0DBF87010884206D90BF5B57009E0D7
:102520000C080248080402484FF0FF30CBF8340191
:102530000D98303000F06AFE9DF84B009DF84A106F
:102540009BF8312104F0FEF89BF830118BF8110054
:102550009BF81200C1F3410100F0F000084402F0C2
:10256000060140EA4100DFF868158BF81200079871
:1025700051F830008BF81300059800688BF80200C2
:102580000EAB0FCB8BF81A208BF819108BF81B3081
:102590008BF818000BF1200000210322FFF718FE32
:1025A000DBF87000ABF82C009BF8230000F007006C
:1025B0008BF823009BF8310104280FBFE020DFF8DF
:1025C000141531F810001B308BF80F508BF80B00EE
:1025D0000C97002C00F08A80DBF8E40090F85000A3
:1025E00000284FF4AC7008BF40F257101BF80000F1
:1025F00009900BF1A40000F01FFF0746006828B9FE
:1026000058463946002204F0A3F83868798908440E
:102610000438ABF81C00FFF7FFFA012808BFFFF7EA
:1026200001FB4FF0000A002F52D07D6835B12868B9
:1026300020B958462946002204F08AF8788939687A
:1026400004220330033120F0030021F003010E18AF
:102650000021341F16F8019C04F0D4F816F8010C80
:10266000C9F3800120F0040040EA810006F8010C63
:10267000BA7B120744BF40F02000E07048F2883275
:102680001DB12A886B891A44043A22803A7C1AB117
:10269000A27802F0E00206E07A7CA37802F01F0242
:1026A00003F0E0031A4481F00101A2702F468A442E
:1026B0009BF830110429B6D1BBF8321100F0F700B5
:1026C0002F46023918BF012140EAC100E070AAE795
:1026D0005FFA8AF00999DDF820A00C9F4FF6FF7988
:1026E000884284BF401AABF85C0003E048F28830AF
:1026F000ABF81C00B8F1000F77D09BF80340002521
:1027000045450BD25846002104F07FF8FFF784FAC4
:10271000012808BFFFF786FA0135F1E704F01F062C
:102720000BF1B004B846204600F086FEDFF8A8732F
:102730000546F0B200F1FF06F0B2B04218BF002D1E
:102740000DD0286848B9384604F07BF869892860BC
:10275000042204F07DF8286808B16D68E9E7204696
:1027600000F06AFE054628B1286818B10438ABF8B5
:102770001E0001E0ABF81E904746FFF74DFA012816
:1027800008BFFFF74FFA95B3286880B303300021E4
:1027900004226E6820F00300041F04F033F84FF6A3
:1027A000FF7026B131684FF6FF7001B1081F20801D
:1027B000297C19B1A07800F0E00013E080B2484510
:1027C00009D1DBF8E40090F85000012803D19BF810
:1027D00058010028EED0687CA17800F01F0001F0BD
:1027E000E0010844A0703546CDE7ABF81E900D9887
:1027F000FCB290F82E0101281CD1B048806B04F087
:102800002DF802462C20DBF8E4109BF85FA0099419
:1028100004FB0029049291F850104D4615F8200F42
:102820006F1C59B1394600F07F0004F049F842F0BE
:1028300080020AE00121ABF80090A7E0394640F0A1
:10284000800004F03DF822F08002B8460B0E39708B
:102850003E46FB700B0C090A08F8042F06F8080F17
:102860007970110EBB7088F80310110C88F80210F3
:10287000110A10227971010A000C7972B0700D9959
:1028800009F104009BF85340FC31FFF75BFCDBF8D7
:102890004C00C9F81C009BF85E00297898F80020CD
:1028A00098F8023001F0800100F07F00084444EA0B
:1028B000CA117C79287098F8035042EA0422B07853
:1028C000099CDBF850E0F9700D902C2043EA0523B9
:1028D00087F800E042EA03424FEACA13DDF810A08D
:1028E00022F07F0242EA13222EF07F4343EA016383
:1028F00088F800204FEA134C1B0A87F802C07B704F
:10290000DBF85450C9F81450DBF85850C9F8185087
:10291000BBF81C50A9F8025004FB00F5BBF81E00E0
:102920002AF80500002088F80020F970012187F8B6
:1029300002C07B7087F800E0DDF820A088F8030073
:102940006648797210400D9A050C00F58070000AF7
:1029500088F80250787110040C9F30704FF46000BA
:1029600000EA02404FF0806200F58020000CB07059
:10297000ABF800904FF6FF799BF80F0002EB006078
:10298000000E8BF80F0006980130069001FA04F053
:102990000B990A9C3022014320460B915946FFF7C0
:1029A000D1FB01373034DBF8E8B0BBF1000F7FF426
:1029B00082AD42480B9BC3619AF8000001280FD1F9
:1029C000414CD4F8000440F00100C4F80004D4F8ED
:1029D000000440F00040C4F80004029D069E19E087
:1029E000029D069E384C9AF840100328D4F8002423
:1029F00061F30002C4F800240CD19AF814004FF4DB
:102A0000803101EB0040D4F80014000C60F3144155
:102A1000012004E0D4F8000420F4F8110020C4F8E8
:102A20000014D4F8001421F07871C4F80014D4F81C
:102A3000001467F34501C4F80014D4F8FC1363F3E1
:102A40001E01204BC4F8FC139AF85510DA6861F3A4
:102A50004512DA60196F41F01001196725B9194A5A
:102A6000116821F48001116021684FF6FF729143D3
:102A700018B1BAF80C20084602E003980A4680B262
:102A80001043114A1060300614D0106E012120F05E
:102A900001001066906F61F302009067106E61F3A1
:102AA000C4001066032003F02BFF0649086F40F0B6
:102AB00008000867002013B0BDE8F08F60E7002031
:102AC000BCEA00200C08024808040248B4EF0020C9
:102AD000CCE200200232000848E20020FF808000A3
:102AE000012908BF03F020BF7047FA009600640078
:102AF0004B0032001E001400F8B503270C460646B2
:102B00001546002808BF0627B1F88C10638AF80024
:102B1000B1FBF0F2B3FBF0F05040000603D194F8A3
:102B2000900001280CD12846082103F02FFF10B196
:102B30000020FFF742FAB4F88C10002084F89000CF
:102B4000B1FBF7F000F00702A85C26B101234FF0BB
:102B5000030C002615E000F00106C90708D1012387
:102B600001274FF0030C002E08BF0427002607E0C2
:102B7000042304274FF0060C002E08BF012702266D
:102B8000277420FA03F303F00303032B12D10C2361
:102B9000AF5CB34002369F43237D591E01F0030111
:102BA000B1403943A954227D272A14BF511C252145
:102BB000217500E02533B4F88C100322B1FBF2F24A
:102BC00002EB42028A1A0DD0511E20FA0CF018BFF7
:102BD00001214840044900F0010001EB4301084491
:102BE00010F84A3C6374F8BD9E3500082DE9F04F9B
:102BF0008DB0824691F80690D1F800B019200F46AA
:102C0000CD798E88FEF7F0FF03F0C5FEDFF84CC4E7
:102C1000D74C9CF83C0002281AD0012824D1DCF8BB
:102C2000282000204FF60C0100230C950A9203F097
:102C300057FBDFF830244FF47E61B9F1000FCDF877
:102C400024A00B97138C07931CD092F822501DE000
:102C50000C95DFF81054B9F1000F288C00F09A8021
:102C600095F82220B0469AE0A34540F27381DFF840
:102C7000F40390F82210002940F06C81012180F8C3
:102C8000221067E192F82250A34503D915B9012516
:102C900082F8225040000A9C002308900B98B4FB55
:102CA000F1F8B44922460068A0FB0171384603F0F0
:102CB00017FB834600FB14704FF47E62B9F1000FDE
:102CC00018BF4FF00109B0FBF2F0079A0644681EE6
:102CD000B0FA80F0400900EA0900B4F57E6F1044B4
:102CE00010D3B2B2DFF874C39045DDF824A00C9D78
:102CF0000DD2B2FBF8F21BEB020B02FB186641F19E
:102D0000000104E0DDF824A0DFF850C30C9D089A10
:102D10004FF00009BAF1000F0B9FE0FB02B140F049
:102D200019819CF85A00012840F01481DCE91094C4
:102D30000796DCE908269CF86000CDF80480ABEB30
:102D400002030128B9FBF4FECDF818E06DD10EF1B5
:102D50000405002089464FF0000A9D420AD20EF178
:102D60000107043BB3FBF7FAEAFB0726ABEB0203D0
:102D7000CCE908269D4228BF012003F00EFEDFF8B3
:102D8000DCC249469CF86000DCE90826DCE9103723
:102D9000049063E095F82220B046A34503D912B908
:102DA000012285F8222040024FEA4B244FF4FA76A4
:102DB000B9F1000F40EADB5118BF4FF00109501E76
:102DC0004FF4FA72B0FA80F0400919EA000F18BF08
:102DD00001F5007120464FF00009002303F080FA4E
:102DE00000FB1642DFF874C2C2EB0212520092B22C
:102DF000B2FBF6F2424493B21E3B38BF4B461E264E
:102E00001D339CB2B4FBF6F4C4EB0416A3EB4606E8
:102E1000F31A9E1810EB040B41F10000A98B8842B5
:102E200088BF4FF001090C9D94E00490AEF10105BC
:102E30000EF103004FF0000A002783420CD9B3FBC8
:102E4000FEF3E3FB05261AEB030A47F10007CCE982
:102E50000826ABEB0203F0E74B462746BBEB020527
:102E60004FEAE7729CF8489008910593A5FB07404C
:102E700061EB060805FB0200039408FB0702DCF87F
:102E80005470A4FB0701029202FB0711A3FB092364
:102E90005B0143EAD263520103F022FA049979B14B
:102EA00001290A9C079E0ED1BBF1010B089961F123
:102EB000000108914FEA4911B7FBF1F1081A01E04E
:102EC000079E0A9C06446548DDE90231076B059AB6
:102ED0004FF00009A1FB070103FB0711002303F0DA
:102EE000FFF90AFB0700069F0644E81B78F1000083
:102EF00019D2DDE9083ADDF830C0781E019AB4F540
:102F00007E6F15D3B1B28A4212D2013548F1000862
:102F100085EA000151EA08010CD0B61A1BF1010B39
:102F200043F10003EBE7DDF824A028460C9D04E004
:102F3000284601E04FF000086546391D081A79EB74
:102F400008004FF0000028BF012003F026FDDFF845
:102F50000CC10B9F444CBAF1000F0DD0DCF80C00F3
:102F6000032103F01DFDE06820F02000E0601CE07C
:102F7000FFB717FE18F001003A48816A01291CBF0B
:102F800039684162D7E90012C57680F81A90068345
:102F90000C3080E80608B0B23449086003F0ACF8A1
:102FA00018B90020012103F0ADF86169002209F091
:102FB0000103081D42F10002BBEB000573EB0202A6
:102FC00028BF5846BAF1010F14BF5846B9F1010F96
:102FD00008D024498A7F9AB9214A904210D9012207
:102FE0008A770EE011F1050FF3D8214A9142F0D310
:102FF0001C480121817780F84E106FF001000EE02F
:1030000048B1BAF1000F0AD1421C08D101204FF09B
:10301000FF34887719E0BAF1000FF7D0002015A12E
:10302000012551F82A1008510AEB4A00134951F8BA
:10303000202001EB8000D0E9011013598B4305FAE1
:1030400000F0084018441051002403F0C1FC19207E
:10305000FEF7CCFD20460DB0BDE8F08F30E5002036
:10306000FFB717FE08E70020000002485C04024892
:10307000FDFFFFFE1000000018000000F05F0608D2
:10308000B0B500F0010201238A4003FA01F10F4BB1
:103090001C7A24EA01010E4C114394F84C20197259
:1030A000C9B200290D4642EA010318BF012513B138
:1030B000012A01D101B1B0BD0138B0FA80F0400958
:1030C00003F088FC84F84C50B0BD00BF30E5002010
:1030D00008E70020084498F8151001F099BED004C4
:1030E0008901D00478018901024900F00F00085CD1
:1030F000704700BF0862060870B586B0044600201D
:103100000DF11205CDE90200CDE90000284603F0DB
:1031100063FC6E462946052206F10800FFF712F807
:10312000B4F88C100DF117023046FEF763FF9DF8DE
:10313000170006B070BDBFB54501002400F00202C3
:1031400000F001036DB2012902948DF80E208DF874
:103150000D300194C5F3C1158DF80F5008D140070B
:10316000032101EAE070000140EA8200184441E0D6
:1031700002A8012103F00AFC10B10020FEF71DFF98
:1031800002980DF10D0400F00300C11E18BF0146A6
:103190000291655C01A8012103F0F8FB10B1002049
:1031A000FEF70BFF9DF8041005F00300C907029914
:1031B0000FD14A1E002908BF0222511E002A08BF53
:1031C0000221A25C615C302303EA011162F38301F6
:1031D0000FE00131022988BF0021621812F8013B7B
:1031E000012988BF22461178302202EA011163F3D7
:1031F0008301084404B0B0BD1890D8F800001990BD
:1032000070470000280018007A017A01E0B50146F5
:1032100068460522FEF796FF044800994160016860
:10322000019A490961F35F1202608CBD5C08024893
:1032300070B50E4E054603F0E1FB2C683CB16868A2
:10324000844208D0606828600020606008E00020A8
:1032500003F04BF904E0012028720020C5E90000CA
:10326000306801F037FC204670BD00BFC4F000207C
:1032700070B5094E0C46054603F0C0FB286818B12E
:1032800055F8040F446000E010C52C603068BDE8BC
:10329000704001F01FBC00BFC4F000202DE9F84FC2
:1032A000834690F8CC005D4A52F820904878002878
:1032B0004DD09BF8D020002A49D0097829B10020B0
:1032C00001210027FFF70CFC03E099F8591001FBDE
:1032D00000F70BF168050BF17406304600F0ACF80E
:1032E000A0B1380612D03046FFF7A2FF01462846AB
:1032F000FFF7BEFF9BF8D200FF2805D09BF8D10056
:1033000010B101388BF8D100013FE6E799F8380099
:1033100001280BD1380609D0DBF8081031B1284656
:10332000FFF7A6FF0020CBF80800013F38060ED0BB
:10333000DBF89C000130CBF89C0099F8380000289D
:10334000F3D158460121012203F05EFBEDE70BF1BA
:1033500068080027D8F80060002E48D04046FFF7E4
:1033600067FF8246DBF8040098B30168B14230D1B0
:1033700099F8381031B99BF8CA00012103F0B0FB6D
:10338000DBF804009BF8D2100446FF3903F0AFFBD2
:10339000254664680F4414B12268B242F8D099F807
:1033A000381001290ED1D5E90312CBE91712A98AE9
:1033B000ABF8641006E003F09EFBDBF80400406805
:1033C000CBF80400A842F6D1284603F094FBCBF8D2
:1033D0000440DAF8000030B19AF80E1049075CBFDB
:1033E000043803F088FB304603F085FBB2E79BF816
:1033F000D200ADF80270FF280ED138040CD0BBF813
:10340000C80069460DF102020A30ADF80000044818
:103410000068C36B01209847BDE8F88F9CEF00203F
:10342000D4F0002038460121012201F039BC0268A5
:10343000531C036011707047B0B5044D03F05DFB81
:103440002868246801F046FB2046B0BDC4F0002087
:103450002DE9F84F0C46054690F8587090F85980C1
:1034600090F85A6090F85BB00120FEF7A6FD002DA1
:10347000284618BF0120FEF7A0FD95F8D9000128C5
:103480001ED028BB06FB18700BFB08FA90FBF8F661
:10349000ABF1010000FB08F000F10109D5F8E800EC
:1034A00000FB08F0A06404F16800FFF7C5FFA8B1B5
:1034B000C17C49070AD5A16C40680131A164F6E7D7
:1034C00095F85900D5F8E8104843E064BDE8F88F56
:1034D00000200121BDE8F84FFFF702BB94F8CE00B1
:1034E0000028F3D1BBF1000FF0D004F17400FFF716
:1034F000A3FF4FF0010C5FFA89FE5FFA8AF33106F1
:10350000E4D0D5F8E810B1465FFA8CF6012706FB47
:103510000B1101FB08F1A1640028D7D0FEB276455B
:1035200006D39E4204D8C27C5207CFD50131A16494
:10353000013740689E42EFD10028C7D04E460CF1BB
:10354000010CA9F10106DAE700202146E0744846A3
:10355000FFF78EBE01488078704700BF1C3A0020FC
:1035600010B52B220B234A4301FB03F4042808BFA8
:1035700001FB0324024931F81000204410BD00BFB4
:10358000023200080249897801700020704700BFAC
:1035900068ED0020169004F15000FEF795BD262737
:1035A0002527252670B5204D03F0ADFA06D0012958
:1035B00005D051B9287EC0F340142EE070BD3CB157
:1035C0002068002818BF012003E003F0A0FA24E0DF
:1035D000002003F0A1FA26687078410703D4287E02
:1035E000C0F3001419E000F00301032907D131787A
:1035F000204603F094FA717801F0030100E0002006
:10360000012901D1012408E0002818BF0120033955
:10361000B1FA81F1490901EA00042046214600225D
:10362000BDE8704003F0A6BAB4EE0020D8F80070F0
:103630000121FFF795BF00000C002700BCB5044630
:103640000D46002094F821108DF80700012911D1B2
:103650001F49C8601D48016821F0804101600DF1DB
:103660000700FEF775FC03F0A5FA1748012180F862
:10367000341027E01449134694F8222081F83400CE
:1036800094F82010204603F099FA20B10F48016801
:1036900021F0804115E00E48C168102048810B4898
:1036A000012D05D094F82320036862F3D33303601F
:1036B000026A0968103161F30F020262016841F089
:1036C000804101600020BCBD60E7002094080248F2
:1036D000BCEA002001480021817070471C3A00209C
:1036E0002DE9FE4FCDE901218346D3E904011C46B3
:1036F00002F05FFFDFF8688307460126D8F818005C
:1037000088F84160002818BF012088F84000207A1E
:1037100018B1A07EB0FA80F04609DFF848A3002176
:103720002C225046FEF754FD4FF0FF300021324668
:1037300001230125AAF8000094F9090003F0ACFA6E
:10374000207E242888F83D0004D80A2888BF022556
:10375000291804E0C44901EB400111F84A1CC34D8B
:1037600003F0C0FA324603F0C5FAC14903F0F8FA93
:10377000C04E0028706155D003F0F5FAAAF81E007B
:1037800003F0F8FAD4E90401BB4A03F0F7FA4CD18C
:10379000B749706903F0F6FA002800F0EA80D946CC
:1037A000BB4607681821042207F114064181002155
:1037B0003046FEF70DFDBAF81E00AF4904228846D8
:1037C0000843016866F30F014FF6FF7601600021A0
:1037D0007869304378615F46CB4620880438AAF880
:1037E0001C0080B240EA0800FEF7F2FCBAF81C00A8
:1037F000062240EA0800DFF8688201683143016070
:103800004046E168FEF79EFC20689AF803100078B5
:1038100001F0E001C0F3801002318AF80310C8F80B
:10382000080015E003F0DCFAA8E0BAF81E104FF625
:10383000FF734FF6FF7011430A681A430A60AAF833
:103840001C009AF8030000F0E00001308AF8030041
:10385000FEF7E2F9012808BFFEF7E4F9D4E9041005
:10386000C8E90A10207A667E88F83E0046EA0620FB
:1038700003F0B9FADFF8049299F80200012806D1A2
:1038800003F0B6FA8AF81B00012089F80300D4E996
:10389000040103F073FA08BF042E07D1BAF81C0024
:1038A00075490843016841F000610160FEF7B4F911
:1038B0000128B94608BFFEF7B5F9607E6D4E0428B1
:1038C00004D1DAF8080003F099FA06E06C4903F035
:1038D0009AFADAF8081021F07F410843CAF8080084
:1038E00002980078012804D803F094FA40F004000C
:1038F00005E0032804D803F08DFA20F004002867BF
:103900006048D0E902108AF813108AF80200E068D3
:1039100038B103F086FA02980078A96960F3104183
:10392000A961606858497D22CAF8140000208862A5
:1039300061688900B1FBF2F1BBF1000FC8F80C100F
:1039400004D09BF81B0010B300203DE0296B4FF61C
:10395000FF7241F480612963A96B9143A963E86315
:10396000A86B20F48030A863286B20F4F040286313
:1039700033E003F035FA706903F069FAF06818B1C2
:1039800003F065FA0020F0600720BDE8FE8FA86B09
:103990004FF6FF719BF8052088439BF804100844FC
:1039A00040EA0220A863DBF80000E8639BF81800F7
:1039B000A96B60F31041A963286B9BF8201061F399
:1039C000CE2028634FF48060296B21F48061084386
:1039D0002863686920F47030686101980C99006868
:1039E00048B10198406830B1CAF8040001980068F5
:1039F00020F07F4009E096F83100244BF26A01285C
:103A0000234808BF1346CAF804309AF80B2040EA4E
:103A10000260CAF80800029840782A6B60F302023C
:103A20002A632822286869F304002860DAF80C0069
:103A3000034662F31F63227A002A18BF40F07F43D7
:103A4000D8F83800CAF80C3011B103F01FFA01E0C1
:103A500003F044FA034903F044FA074903F045BA76
:103A600060E7002030EC0020363600080C080248E1
:103A700048E20020BCEA0020000002481C3A002076
:103A800002320008CCE2002008E70020D6BE898E72
:103A900055555500B0B5044623488078012841D1DA
:103AA00094F83710214894F8592094F85A30056852
:103AB00061F300050560016821F4F81101600168F7
:103AC00021F07871016002FB03F14FF4781202EBF0
:103AD00041414268490C61F35542426094F88910B3
:103AE000656E08291EBF426861F30E32426041686C
:103AF00021F400614160416821F4806141608DB131
:103B000005F11800214603F0F9F9B4F8280195F8F9
:103B1000CD1041EA002095F8231040EA01602862A8
:103B20002D68ECE7B0BD00BF1C3A00200808024831
:103B3000411E042808BF0221C8B200EB4000024920
:103B400001EB80004230704754E00020F0B5264D74
:103B5000D5F86CC0BCF1000F1AD095F87040012C5C
:103B600004D1AD6815B16C6E013411D0844501D318
:103B70008C452ED94FEA4C0500260CEB06078F42E8
:103B80000ED2AC19844201D38C4225D93E46F4E7CB
:103B900023B3834288BF18468B4298BF01461DE07D
:103BA0000225664686420BD9BCFBF5F6864205D354
:103BB0008E4203D806FB05F4644512D00135F1E7C7
:103BC0002BB1834288BF18468B4298BF01461F2005
:103BD00005E00020614602E006EB4C010020118068
:103BE000F0BD00203146FAE7C0E10020F8B540F210
:103BF0007126174A174B044614480025714340F2BA
:103C0000FA460095B142C06E92681B6838BF0E46F6
:103C10007D2707EB8606B229B6FBF7F638BF0626E6
:103C2000D11800EB80038A19B22A104688BFC1EB75
:103C3000C300B2EBC30F98BF1046002180220023BF
:103C400003F03EFAA5802060F8BD00BFC0E100206F
:103C5000B8E300203C390020F8B5002807460C46A0
:103C600018BF01201E46154603F05AFC386800288C
:103C700018BF012003F054FC396806980A7800F058
:103C8000010002F0DF0242EA40100870300A396891
:103C9000C874280A8E740D748C734874200AC87313
:103CA0000020F8BD0548817E012918BF7047407E7D
:103CB0000022C0F3C000014602F05CBFB4EE002059
:103CC0002DE9FE4F0D4682464020002191460024FA
:103CD00002F06FFCB54F83464FF48070B44E002164
:103CE0002C228DF80B40A7F84000304695F80D8047
:103CF000FEF76EFA4FF6FF703080287B242887F895
:103D00003D0005D801210A2888BF02210F1804E0D0
:103D1000A84901EB400111F84A7CA74C616860F3A7
:103D200005016160FDF778FF012808BFFDF77AFF04
:103D3000F8B203F0F8FB0DF10B00FFF723FC9DF93F
:103D40000B0002F0C0FC9D4903F00AF89C490028D2
:103D5000486100F02681018840890422CDF804B032
:103D6000CB46084400210438F08303F003F8F078D0
:103D7000B6F81E9000F0E0000130F070FDF74CFF47
:103D8000012808BFFDF74EFFA87B8E4F01281ED1EA
:103D90008B4F8A49786902F0F5FF002800F0FE8019
:103DA00001684089042247180021381FFEF710FAE5
:103DB000854807EB0009834FF08B3843016869F3AE
:103DC0000F010160F07800F0E0000230F07059F867
:103DD00007004FF6FF71754A0843402149F8070074
:103DE0000020C2E90A10A87B82F83E0048EA0820B9
:103DF00002F0F9FF687B042803D1B06802F0FEFFEF
:103E000002E0724903F093FB084300210422D946E3
:103E1000B060A8880438B08380B23843FEF7D8F980
:103E2000B08B4FF6FF72DFF898B1DFF880C13843EE
:103E300001681143016064496868DDF804E00844E2
:103E40000430B8F1040FCBF8180005D1B08B38431B
:103E5000016841F0006101609AF80900B84600F07D
:103E6000FE00022808D1206FC0F380008CF82000EB
:103E7000206F20F0040020675548D0E90210F1744B
:103E8000B0704FF6FF70A1692A68814313795779A2
:103E9000194441EA0721A161117853789778D278C3
:103EA00041EA032141EA074141EA0261E1619AF8EE
:103EB00008109AF80920A36962F310430529A36149
:103EC0001FD1A16B9AF8052021EA00009AF804108E
:103ED000084440EA0220A0639AF800009AF8011012
:103EE0009AF802209AF8033040EA012040EA0240A2
:103EF00040EA0360E0639AF80A00A16B60F31041A6
:103F0000A163A86833490022344B7061B06861F343
:103F10001700A968B060304882629BF83100DBF876
:103F20002C20012808BF1346736088007D21B0FB58
:103F3000F1F0CCF80C009AF80800216B60F3020154
:103F4000216320686EF30400206025480078012872
:103F500002BF606B40F400406063F06828210246B5
:103F600061F31F62A97B002918BF40F07F42DCF893
:103F70003800F260B9F1000F02D002F087FF01E0D3
:103F800002F0ACFF0A4902F0ACFFD8F8080464F371
:103F90000F00C8F808040020BDE8FE8F786902F021
:103FA00056FF02F01DFF0720BDE8FE8F60E70020EE
:103FB00030EC0020363600080C08024848E20020A9
:103FC000BCEA002000000248FCFFFDB702320008F6
:103FD000CCE200205555550008E70020D6BE898E5A
:103FE0002CF0002010B50028044618BF0120FDF772
:103FF000E4FFD4E9260181F0080281F020010243A8
:1040000008430121B2FA82F2B0FA80F05209400965
:104010001043FEF765FDD4E9260181F02001084335
:1040200004BFA068002804D0204603F08BFA0020CB
:1040300010BD2046BDE8104001F010BCB0B50E4DDB
:104040000446A87E012818BFB0BD24B1206800280E
:1040500018BF012000E0002002F05EFD2168687EAC
:1040600049780A0758BF410801F0010001460022C3
:10407000BDE8B04002F07EBDB4EE00202DE9F04F67
:1040800093B090F8D9A083464FF48010DFF87C49B4
:10409000C64BBAF1000F08BF4FF400200021C4E95D
:1040A0000A014FF480709BF83821A4F84000DBE946
:1040B00018099BF859609BF85A5004929BF85B20B2
:1040C0000792DFF84C295087000C9087DFF84409ED
:1040D000C0F81CB01420BAF1000F08BF13201A68F2
:1040E00022F00F021043186018201191BAF1000F4E
:1040F00008BF10200190FDF78FFD012808BFFDF7D4
:1041000091FDBAF1000F07D10DF14B00FFF73AFA1C
:104110009DF94B0002F0D7FA002E304618BF01205F
:1041200002F044FA0020494611B109680130FBE76A
:104130009BF8511001300139B1FA81F149098840E9
:10414000C1B2A06B02F060FA05FB06F2804604984B
:1041500008964FF6FF7782424FF0000038BF0120EB
:104160000799002918BF01210392CDF82480CDF8CA
:104170003CB0CDF818A0084000260024059002F0BD
:104180001F0002904046B9F1000F00F0CB820B9463
:10419000FDF742FD012808BFFDF744FD09F11800B5
:1041A0000C90DFF87C08807878B90C98594602F0BA
:1041B000A5FEBBF8280199F8CD2099F8231042EA12
:1041C000002040EA0160C9F82000FDF725FD012824
:1041D00008BFFDF727FDBAF1000FCDF8409000F0C1
:1041E000E98009F1800A0A965046FFF725F9A0B93F
:1041F000079890B1DDE9031081420ED29BF85B4035
:104200005CB19BF859609BF85A809BF83871504616
:10421000FFF712F9002800F02882DFF80858002480
:10422000089EE0B2B0421AD24846012102F0EDFAEF
:104230000746284602F005FB79893860042202F01F
:1042400007FBFDF7E9FC012808BFFDF7EBFC386828
:10425000002818BF012002F0A9F90134E1E758460F
:10426000514611AA334603F0B7F9BDF84410504B3C
:10427000A9F83610428903321A400368033323F049
:1042800003031A4422F8041C0599002900F0218137
:104290009BF85B209BF859E09BF85A109BF838314B
:1042A0004FF6FF7740684FF0000801264FF0000CF2
:1042B000A9F83470541E01FB1E3104FB0EF40E915C
:1042C00002FB0EF101345FFA81FA5FFA84F90121F1
:1042D000002800F00681F4B24C4560D354455ED806
:1042E000109A938EBB4205D103884589109A2B44BE
:1042F000043B938643892E4A0768DD1C1540FA1C4F
:1043000022F003022A44151F9BF85120012A0BD1E9
:1043100095F803B00BF00302022A05D1DA1952789E
:1043200012B94BF00402EA70CBB20022012B08BF95
:10433000721EDDF83CB0AA709BF86020042A0AD1F6
:10434000BBF86220023A18BF0122EE7806F0F706A9
:1043500046EAC202EA70B8F1000F4FF6FF7710D0BC
:10436000B8F80A20124D468903322A40D8F8005086
:10437000033525F003052A4405883544043D22F819
:10438000045C01310CF1010C734508BF01210E9A48
:104390005FFA8CF3D2B29A4200F08C818046661CA0
:1043A000A24508BF0126406892E700BF0C080248FA
:1043B000FCFF010011AA09F168015846089B03F0AF
:1043C0000BF9BDF84410E14BA9F83410428900689C
:1043D000033203301A4020F00300104420F8041C7C
:1043E0000798002800F0928010980A969BF8585081
:1043F0009BF859409BF85A709BF85B604FF6FF7929
:104400007430FFF719F880461098A0F83690DDF860
:10441000409007FB145099F8CE10002900F08080DE
:104420005FFA80F800274FF00009C14569D2DFF834
:10443000F80503F035F90028054618BF012002F001
:10444000B5F8284600211022FDF7C2FE584629463D
:1044500003F028F92868002818BF012002F0A6F808
:1044600010984FF6FF71C08E884206D1288869895E
:10447000109A0844D5600438D0862E686C891EB91D
:104480005846294603F00EF9E01CB0490840F11CDB
:1044900021F0030108440021043881709BF860106A
:1044A000042906D1BBF86210023918BF012103F0BC
:1044B000FCF857B17889A5496A897D6003F0FCF85A
:1044C00029881144043920F8041C09F101092F46F8
:1044D000ABE7DDF818A04FF6FF770A9EA9F8347015
:1044E000F5E00E995FFA8CF0C9B2814211D103F068
:1044F000EBF8B8F1000F0A9E40F0E0804FF00008A2
:104500000AE0DDF840900020786098E0A9F8367065
:10451000DDE003F0D9F80A9E002002F047F8CDE074
:10452000711E06FB04FB002761434D1C90FBF4F158
:104530000BFB01FA080676D0AAEB0B0001244FF022
:1045400001090E910D90B8F1000F65D0E8B2E6B206
:10455000864255D35FFA8BF0864251D8D8F80000D6
:1045600018B90F98414603F09DF810984FF6FF7167
:10457000C08E884207D1B8F80000B8F80A10084485
:1045800010990438C8860021B9F1010F6F4A08BF9D
:10459000611EB8F80A0003301040D8F8002003323A
:1045A00022F00302104400F8021CB9F1010108BF17
:1045B00089460F9991F86010042908D10F990438A1
:1045C000B1F86210023918BF012103F06EF85FB133
:1045D00078895E49B8F80A2003F06EF8B8F8001040
:1045E0001144043920F8041CD8F80000B8F80A1067
:1045F00008445749401A18BF012001F0D7FF474629
:1046000001345FFA8BF0D8F80480AAF1010A8642DF
:1046100099D1DDF834A001E04FF000080E99DDF8E3
:104620004090013986E75FEA0A6002D0002001F07D
:10463000BDFFDDF83CB0DDF818A0002F6BD0788905
:1046400042490A9E0330084039684FF6FF7703F06D
:1046500040F899F8CE00D0B399F81B00029900F009
:10466000E000084489F81B0031E008FB167004FBE9
:1046700006F190FBF6F0002601FB00F4E0B2F1B287
:1046800081423FF4CAAD4846012102F0BEF8074618
:10469000E44802F0D6F800213860798120B104386E
:1046A00000210422FDF794FD50463946FEF7E0FD57
:1046B0000136E3E703F008F880460A9EB8F80A00DE
:1046C000D64903300840D8F8001003F002F8FDF78F
:1046D000A3FA012808BFFDF7A5FA9BF851000B9C2F
:1046E000E5B2012806D109F1480258460C992B463B
:1046F00002F0F6FF05EB45000999302201EB0018A6
:1047000001200C99A84006434046FDF71BFDD9F84F
:104710000090013437E5002001F048FF0A9E4FF673
:10472000FF7796E7FDF778FA012808BFFDF77AFAD8
:10473000BAF1000F0ED0BAF1010F40F0C780B848AF
:104740008078002840F0C2800EE000BFFCFF01002E
:10475000000003489BF87000002800F0B7809BF829
:104760008A00012840F0B2809BF8D9000BF18C0937
:10477000012828D1DBF8740088B9AB4802F090FF1B
:104780000028CBF8740018BF012001F00FFFDBF800
:10479000740000211022FDF71BFDDBF87400006897
:1047A00028B9A04802F04DF8DBF874100860002822
:1047B00018BF012001F0FAFEDBF8740004224189E1
:1047C000006802F045F8DBF8744048465946354623
:1047D00008F130082768668902F090FB9BF88F008B
:1047E0009BF897209BF8601000F0E0001206013063
:1047F0008BF88F00BBF8280142EA0020874ACBF8EB
:104800009400F01C1040FA1C22F0030210440438FB
:1048100004290BD1BBF86210023918BF0121C278FC
:1048200022F0080242EAC101C17000E0C1784FF6EF
:10483000FF73002201F0FC012E4603808270C170DC
:104840009BF8D910E9B19BF89C20ABF8A8309BF8F5
:10485000511002F0E00201328BF89C20228863891B
:104860001A44043A0129ABF8AA202AD19BF859200E
:10487000DBF8E83000215A439BF83931CBE92F129D
:1048800011E09BF85110ABF8AA30ABF8A800012951
:1048900017D19BF85920DBF8E8409BF83C30002109
:1048A0006243CBE92F21C17801F0FB01C1709BF875
:1048B0005100012805D10BF1BC025846494602F0CF
:1048C0000FFF404649463022FDF73CFC5748524B0B
:1048D0000168099A62F30F0101605149897869BB47
:1048E0009BF837209BF859309BF85A409BF8891069
:1048F000D0F8005462F30005C0F80054D0F800244A
:1049000022F4F812C0F80024D0F8002422F07872C3
:10491000C0F8002403FB04F24FF4781303EB424287
:104920003D4B1B68520C62F355433B4A0829136008
:10493000394B1EBF1A6861F30E321A60BAF1000FCC
:1049400016D0BAF1010F2BD13549897869B91968A8
:1049500041F4006119609BF889101A6822F48062A2
:10496000082908BF02F580621A600BF2391110E0C5
:104970009BF870200BF13C013AB19BF88A20012A88
:1049800003D11A6842F4006202E01A6822F400625D
:104990001A60D0F80024097861F34502C0F80024B9
:1049A0009BF835211C4B9BF85110DB6862F34513D3
:1049B000194A0129D360184BD0F8FC2366F31E0274
:1049C000C0F8FC2316D1016E012221F0010101661D
:1049D000816F62F302018167016E019A21F0180173
:1049E00011430166032001F08BFF0B4B186F40F061
:1049F00008001867186F0A4940F010001867002077
:104A00008870002013B0BDE8F08F00BF60E7002081
:104A100008E70020BCEA00200C080248FCFF010067
:104A20001C3A002048E2002060E10020080402480F
:104A30000548817E012918BF7047007E0022C0F31F
:104A40008010014602F096B8B4EE002080B5032035
:104A500003F025F8002080BD70B5114E044601F02A
:104A6000CDFF217A206821B10E4DA0B10020207227
:104A700011E038B16168884207D0416821600021A7
:104A8000416007E003F092F805E001212172002166
:104A9000C4E900110546306800F01CF8284670BDD6
:104AA000C4F0002044390020B0B5064D02F025F8CE
:104AB000207A08B1044C00E02468286800F00AF865
:104AC0002046B0BDC4F000204439002080F480703E
:104AD0000843704780B5032002F0BFFF002080BD6F
:104AE0002DE9FC4100228C4623498DF807200B68F4
:104AF00090F82140012C09D123F0804008600DF18D
:104B00000700FDF725FA02F055F832E090F8204052
:104B1000DFF868E088461A4D64F35B530B600023AE
:104B2000202B0FD003EB43065EF806707644D6E9DF
:104B300001167A59C45804338A43B44021401144C1
:104B40007951EDE7D8F80000BCF1020F40F0804049
:104B5000C8F8000006D0BCF1010F0AD1D8F8000057
:104B6000102102E0D8F800000A2161F34910C8F8CA
:104B700000000020BDE8FC81940802483842060885
:104B80000000024800F108012846FDF719BA0000AC
:104B9000000000002DE9F8430746B0F88A4090F87D
:104BA000355090F844600846884603F004F82946DA
:104BB000324600F053F9B7F8DA90D7F8D450D7F866
:104BC000F8700646002F384618BF012001F08DFC12
:104BD000002D284618BF012001F087FC05F1500088
:104BE00007F1500102F0ECFF06F5967240F2E24147
:104BF000904238BF04FB01000B49884202D90022D1
:104C000000210AE00949884202D81E21002202E060
:104C10004FF496710122B0FBF1F140464B4602F091
:104C2000DEFF0020BDE8F883D47E2500C3BF03006B
:104C30002DE9F041194F0646B87E012818BFBDE89E
:104C4000F08190460D4626B13068002818BF01203B
:104C500000E0002001F060FF34686178080703D4A9
:104C6000787EC0F3800013E0480701D4002006E0FE
:104C7000237830462946424602F0D2FF61788A07FF
:104C800005D4002818BF012000EA910000E00120AF
:104C900001460022BDE8F04101F06CBFB4EE0020F7
:104CA0002DE9F041002805460F4618BF0120904627
:104CB00002F0E8FF2C4802F0F3FC0028044618BF7D
:104CC000012002F0DFFF2046002114220026FDF71C
:104CD0007FFA204600211022C4E90066FDF778FA29
:104CE00037B1D5F89C00E6740130C5F89C0037E078
:104CF000D5F8E430E878D5F870C0B8F1010F00F0CD
:104D00001F0093F8506006D1D5F810213EB144330E
:104D100005F5AC7706E0D5F81421002EF7D0433323
:104D200005F257174FF48A76B8F1010F08BF4FF418
:104D30008876A9591B780131A95139786FEA0C0698
:104D4000B2FBF1F58A1A334405FB0122B0FBF1F105
:104D50002B4423740023013AE37401FB12006074B6
:104D60002046BDE8F08100BF88E10020F8B5064686
:104D700018480D46817E29B12BB1407E00F001011B
:104D8000084622E0F8BD144626B13068002818BF56
:104D9000012000E0002001F0BFFE37687978480765
:104DA00001D4002006E03B7830462946224602F036
:104DB00037FF7978CA0702D14A0703D510B101211C
:104DC000012002E0C1F3400100200022BDE8F840CC
:104DD00001F0D0BEB4EE002010B5044608461146DE
:104DE00002F0EEFE08494FF49672084B884238BF35
:104DF0001E22B0FBF2F10022984288BF0122204619
:104E0000BDE8104002F041BFC4BF0300C3BF0300B0
:104E1000B0B5002805460C4618BF012002F080FB03
:104E200015F8050F04F03F028107C0F3810148BF68
:104E30000631C0074FF0070008BF01200844295C75
:104E400001F0C00111442954B0BD2E0002490128CF
:104E500018BF043108687047C4E2002002300229FC
:104E600006D0012909D180B2402101EBC000704772
:104E700080B2242101EB80007047022A08D0012A69
:104E800011BF002080B24FF4D77101EB00107047C2
:104E900080B24FF4147101EB80107047DBF82400EE
:104EA000CBF82880416940460847704780B50749DC
:104EB000CA1C904204D30D3188429CBF007880BD4B
:104EC00000200121FDF70CFE0E2080BD10F0002017
:104ED000B0B504462248837E53B152B1407E00F003
:104EE0000104002221462046BDE8B04001F042BE48
:104EF000B0BD012903D041B9007EC409F1E73CB13E
:104F00002068002818BF012003E001F000FE1DE02A
:104F1000002001F001FE25682978042905D169786F
:104F2000204601F0FCFD297800E00020012903D093
:104F30000024042901D100B10124022905D003294C
:104F400007D00429CDD10028CBD100240021002294
:104F5000C9E76A78002A144618BF01240021C2E775
:104F6000B4EE00202DE9F04F87B003910746D2E957
:104F70000201069201F01DFB8046DFF850054FF656
:104F8000FF7101601E20FCF72FFEDFF84415DFF8EB
:104F9000446500202C22087030460021FDF718F9E6
:104FA000D748002114221030FDF712F94FF0FF30DE
:104FB000308002F085FEDFF82455A86910B1012089
:104FC00085F8400006980399897890F82500013902
:104FD00085F84100A86B01290CD8022101F014FBCF
:104FE000DFF8F06400903030002130223080FDF78F
:104FF000EFF804E001F072FFDFF8D8640090039A44
:10500000316A107821F0007100F0010041EA40603F
:10501000306220F08070517801F0010140EA0160B7
:105020003062069890F82100042802D14FF06140C8
:1050300007E0DFF8AC1431F810004FF0E85101EB55
:105040000060DFF8A014DFF88C94D1E9022189F820
:105050001320069A89F80210D9F8081021F07F4130
:105060000143C9F8081011690631C9F814103968EC
:1050700021F07F410843C9F808007868C9F80400A6
:10508000FB2089F80F009F48016868F30401016064
:10509000117885F83D1015460A29426861F305022A
:1050A00042604FF0010088BF022001220844012124
:1050B000C0B201F01FFE286A02F02EFE95F924000E
:1050C00001F001FBD5E902018F4E4FF0000B4FF0CC
:1050D000000880F4807008434FF0000008BF4FF0D4
:1050E000FF3001900027002400200290002004904F
:1050F000287D01990844804580F03A81FCF78CFDB9
:10510000012808BFFCF78EFD44B1B8F1000F0DD0A7
:105110004C46B9464FF0000A012021E087B1DFF884
:10512000D013384601F02EFE074610E04FF6FF7010
:1051300000210124A9F81E00DFF8940341617FE0FB
:10514000DFF8AC1301F00CFE0746E1484761CFB32E
:10515000B8F1000F67D04C46B9464FF0010A002065
:1051600005900498C0B201282AD8A96951F828608E
:10517000D9498E4228D0D5E9021281F0800111432D
:105180000CD1B8F1010F08BF012807D1D648584407
:10519000017941F010010171A86946683546002186
:1051A000042255F8047D2846FDF712F8B80E296848
:1051B000C84C60F39A61CD4829603518CA4E1EE08C
:1051C0005D4686E00027A0E7049948F20825C64E10
:1051D000080608BF4FF402450131BBF5024F0491A8
:1051E0000DD04FF6FF708345B8481ABFC0F800B025
:1051F000584600683044017901F0EF0101715BF815
:10520000060065F30F004BF80600069991F82000A0
:1052100004285ED1488C012857D0022859D1A859BA
:1052200020F0006054E03888042200240438A9F8F3
:105230001E0080B27989084400213043FCF7C8FF82
:10524000A869A549006888421FD00438A9F81C0045
:1052500080B2311830434968C27892071FBF11F4F9
:105260007F419B4901220A70002104220568FCF756
:10527000AFFFB9F81C00AA0E3043016862F39A61CF
:105280000160B9F81CB0069D06E004984FF4024B8B
:105290000130A9F81CB00490B9F81E00029095F8EE
:1052A0002000042837D1688C012807D0022832D189
:1052B0004BEA0600016821F0006104E04BEA0600B9
:1052C000016841F00061016025E0A85940F00060EC
:1052D000A851BAF1000F19D0D9F8006000210422BA
:1052E0004F46301FFCF774FF8048029AAB463044AB
:1052F0007D4E915960F30F019151029008E000BF7B
:10530000008202480C08024800000248AB464F46A3
:10531000A146DDE90545A86950F82800017801F0AB
:105320000301032908D1017941F02001222903D189
:105330006E4908446649886103988078012814D131
:10534000301D5BF80010C1F3072171B15BF8062036
:1053500052010AD44FF480635BF8002003EB012173
:10536000090A61F30F224BF8002008F10108BFE69B
:10537000D5E9020180F48070084310D1DDF810C037
:10538000DDF808E05FFA8CF001280ED8A8695249D0
:1053900050F8280088420AD0544908441CE0DDF83F
:1053A00010C0DDF808E0584643E058462BE00CF109
:1053B000010CBBF5024F0DD04FF6FF7083454348FB
:1053C0001ABFC0F800B0584600683044017901F0B7
:1053D000EF01017148F208205BF8061060F30F013D
:1053E0004BF8061095F8201004290CD1698C01297E
:1053F00005D0022907D1815921F0006102E08159CD
:1054000041F00061815103998978012911D1311D41
:105410004258C2F3072262B183595B0109D44FF4A9
:105420008065435805EB0222069D120A62F30F23A2
:1054300043505FEA0C6106D05FFA8CF1012907D175
:10544000B8F1000F04D081594FF6FF72114381511A
:1054500003988078012808D199F80F004FF08061F7
:1054600001EB0060000E89F80F004FF6FF708645D3
:1054700004D05EF8061008434EF80600D5E9020194
:10548000164AC2E90A0108F01F00302299F80310F9
:10549000009D01F0E001084489F80300B9F81C0000
:1054A0003043C17801F0FC01C17028464946FCF741
:1054B00049FED6F8080465F30F00C6F808041E205C
:1054C000FCF794FB002007B0BDE8F08F243A0020E1
:1054D000BCEA002030EC00200082024860E7002097
:1054E00002320008CCE2002000000248FCFFFDB7B9
:1054F00048E200202DE9F84F83467A488A46806BBF
:1055000001F0ACF90446DAE90201DBF80C809AF804
:105510001E9080F08000084394F8201004F12100D0
:1055200022D141F0800102F01DFC877890F800C084
:1055300043EA012143784CEA0323927841EA02418D
:10554000C27847EA0222074617F8046F43EA02428C
:10555000437946EA0323BE78FF7846EA072643EA02
:10556000064323F0800320E001F07F0102F0FAFB04
:105570008678C77846EA072643EA0121437892787D
:1055800041EA0241027842EA0322437942EA0642B2
:10559000064616F8047F47EA0323B778F67847EA09
:1055A000062643EA064343F08003160E0270C670D7
:1055B000160C120A4270024686701E0E02F8043F54
:1055C000D6701E0C96701A0A42710A0A427200F8CE
:1055D000081F090C10228170201D0BF11001FCF72F
:1055E000B1FD9AF81C00DBF8081094F826204FEA69
:1055F0001867DFF8F48094F82BC0084494F8201062
:10560000E0619AF81D3001F0800103F07F03194436
:1056100084F82010214611F8253FDBF80CE043EA1E
:1056200002228B78CE7843EA0623264606F821EF3D
:1056300042EA0342734667F31F63F7701D0C69F378
:1056400006021B0A0A70B57084F82230DBF80000ED
:105650006061DBF8040084F822300A70B570F770DE
:1056600086F800E0A061B8F81C0060801F48104078
:10567000030C00F580708B700023000ACB704FF490
:10568000600184F826004FEA0C4001EA0C4184F8DE
:105690002900012084F82A0001F58021090C84F8F2
:1056A0002B10B8F81E10218011490A6822F001025F
:1056B0000A608A6960F302028A610A6822F01802AD
:1056C0000A60D1F8A02360F345020320C1F8A023AB
:1056D00001F016F90748016841F008010160BDE8D2
:1056E000F88F00BF60E7002030EC0020FF808000D2
:1056F000680402487C0802482DE9F04385B0D0E9EF
:10570000344590F835608846002C204618BF0120AB
:1057100000F0EBFE002D284618BF012000F0E5FE4A
:10572000D4F8D0000DF108090122D0E91401CDE927
:10573000020148469621FCF78FFBD5E914010025AC
:10574000CDE90001304602F014FB6E46411C0122F7
:1057500002F012FB94F85970D4F8E84002F00FFB05
:10576000B0F5167F0146104A38BF0021914201D999
:1057700000210AE00D4A914202D81E22002502E0D3
:105780004FF496720125B1FBF2F1B0F5167F04FBE0
:1057900007F340462A4638BF002302F0F4FA0020FF
:1057A00005B0BDE8F08300BFA8FD4A00C37F070035
:1057B00010B5184B9C7E74B102280DD0012812D070
:1057C00068B1032808BF002A06D0042811D1187E2A
:1057D000C0F3C00416E010BD012904D039B9187E09
:1057E00000F001040EE0187EC0F340040AE000243B
:1057F00008E0032804D11AB1187EC0F3800401E048
:1058000001F085F9204621460022BDE8104001F054
:10581000B1B900BFB4EE002089F82D0009F12300D2
:1058200002F0F0BA014800218163704760E7002070
:1058300010B500EB40000649064B51F8202001EB63
:105840008000D458406824EA0000D05010BD00BF4A
:10585000F05F06080000024800F0BEBB2DE9FE4FD5
:1058600004460F20FCF7C0F9002C204618BF012089
:10587000FCF7A3FBDFF8A4B20420D4F874A084F8EA
:10588000A000DBF82C0020B102F09AFC08B11F2622
:105890000CE1D4E9269515F0280F08D0DBF8280094
:1058A000A04204D1002084F89100CBF82800032006
:1058B00002F0E4FCDBF82800D0B190F89110012947
:1058C00016D1D0E9261281F08043134303D189F029
:1058D00000532B4307D082F00102114308D189F015
:1058E0000041294304D14FF001080146009009E02E
:1058F000A0424AD194F89110012946D100214FF0DD
:1059000000080091042180F8A0109BF83800844919
:1059100001F14041013001EA09018BF83800022011
:1059200005302840401818BF02F0AAFC032002F0FE
:10593000BFFC204602F0BEFC02F0AAFE029002F07C
:10594000B9FE019002AE01AF94F89100012802D196
:10595000029870B91DE0DBF828000028014618BF46
:10596000012118EA010F16D090F89110029899B110
:1059700090B1002002F0B4FE10B1002002F0BAFE97
:105980003046394602F0DAFEDEE7032002F090FCF2
:1059900028E0002000E00298002818BF0120FCF752
:1059A0000CFBB8F1000F1DD0DBF82400009F016A4A
:1059B000384688470646002878D1D7E9260180F086
:1059C000804008430BD1386F18B101F094F80020E3
:1059D0003867F86F18B101F08EF80020F867384684
:1059E00002F0BEFE09F0005005F00207C01903D016
:1059F000DBF82400806A804789F00050284305D1F5
:105A0000206F18B101F077F800202067E06F18B11F
:105A100001F071F80020E06789F0805028430ED033
:105A200089F0006028430FD089F40050284310D13A
:105A3000A1680020C860E16859B1886009E0E068A9
:105A400038B10020E06004E0DAF8F80008B1002185
:105A5000C160032002F012FCDBF82400016A20463A
:105A60008847064610BB204602F07AFE032002F06B
:105A70001FFC02F0A7FE20B9DBF82400006B804772
:105A8000B0B302F09FFE10B9002002F09FFE244840
:105A900000EA0900C01908D09BF84200FCF78DFA13
:105AA0009BF8420001388BF84200002602F08AFE83
:105AB00020B9DBF82400006B8047B0B100F034F867
:105AC000DBF8240058B1C06A804740B915488268A5
:105AD0002AB18078C00702D00020002190470F2013
