:020000040800F2
:1000000000100020653E06087D0706087F070608E9
:10001000810706088307060885070608B9680608E9
:100020000000000000000000000000008707060834
:1000300089070608000000008B0706088D070608E0
:10004000BD680608C168060891070608C568060865
:10005000C9680608CD680608D1680608D56806088C
:10006000D968060897070608DD680608E1680608EB
:10007000E5680608E9680608ED680608F1680608FC
:10008000F5680608F9680608FD68060801690608AB
:1000900005690608096906080D6906081169060858
:1000A00015690608196906081D6906082169060808
:1000B00025690608CB070608296906082D69060880
:1000C000316906083569060839690608D107060846
:1000D0003D69060841690608456906084969060838
:1000E0004D690608516906085569060859690608E8
:1000F0005D69060861690608D7070608656906088C
:10010000696906086D69060871690608DD07060851
:1001100075690608796906087D6906088169060817
:1001200085690608896906088D69060891690608C7
:10013000956906080D080608996906089D6906086C
:10014000A1690608A5690608F1070608A969060855
:10015000AD690608B1690608B5690608B9690608F7
:10016000BD690608C1690608C5690608C9690608A7
:10017000CD690608D1690608D5690608D969060857
:10018000DD690608E16906082DE9F04F9FB0804659
:1001900000208A46CDE90C008DF82F00112001F0D7
:1001A00061FD102001F05EFDDFF808BFDBF82800DC
:1001B000B8B10227112001F057FDB8F1000F09D0A6
:1001C00001F054FD06D301F065FD012802D101F0D4
:1001D00067FDF8E7102001F047FD38461FB0BDE885
:1001E000F08FB8F1000FE4D0D8E9260181F00801C2
:1001F000084307D198F84E000128DAD098F8460055
:10020000012806D000200221012201F073FD01F037
:10021000DBFD9BF8390078B1DBF83000ADF8340035
:10022000D8E9261004224B42824127D381F40001F1
:10023000084319D104201FE001F018FD1ED3BAF1C4
:10024000000F00F053820CAC204601F0C9FDDFF82E
:10025000685E20460522296801F03CFE2868AAEB6A
:100260000000A0F10A0A46E2404601F059FE0146AC
:100270000220012908BF042001F080FE0DF12F00AB
:1002800001F0A6FE9DF82F0001F0AAFE404601F005
:10029000BFFED8E92676CDF82880781E66F10001E9
:1002A0000022D0F11F0372EB010158D287F0400009
:1002B000304300F0AD8187F08000304300F03A8198
:1002C00087F48070304300F0358187F4005030436C
:1002D0004BD087F40030304300F08E8187F48020CB
:1002E000304300F0898187F40020304300F0D2824F
:1002F00087F48010304300F0188487F000603043AA
:1003000033D086F02000384300F03C8487F0005062
:10031000304368D087F08040304300F05D8487F040
:100320000040304300F0C48486F00100384300F000
:10033000638586F00200384300F06A8186F004008D
:10034000384300F0B28586F00800384300F01F867D
:1003500087F08050304308D01F2701F0E4BB012113
:1003600001FA00F010F08B0F39D0D8F87410DFF8D4
:100370004C4DD346B8F8108091F82100251D21601E
:1003800091F820A0099191F8559024210790002020
:10039000CDE91600CDE91000284601F03FFE04F13A
:1003A00033000D21C4E90A7684F832A0A4F8308025
:1003B00001F040FE04F14100072184F8409001F073
:1003C00039FE87F00060304303D087F0805030431F
:1003D0004DD1DDE90998DA46DFF8D8BC5DE010F0D0
:1003E000802F3FF463AF012001F027FE0021D8F8F1
:1003F000744040F27123DFF8C40CCDE91811CDE947
:10040000161162890160C0E90214C0E90411C0E953
:1004100006115A43BAF1000F426004D0CAEB4A11E8
:1004200001EB9A01416001F035FC012808BF01F0A1
:1004300037FCDFF8886C04F12800002200273146E1
:1004400001F0FEFDD8E9260180F0005008434FF08E
:10045000010040F0F081D4F8B850217C3072CA0716
:100460001EBF01F00400012181EA9000E4E1DDE912
:1004700009980799DA460729AED80120DFF834BC7D
:10048000884010F0B50F08D009F16C0004F10801A4
:100490000FAA01F0D5FDD8E9267699F8420001307F
:1004A00089F8420087F40050304300F0388187F02B
:1004B0008050304300F0638187F00060304340F0AB
:1004C000908108F1580008F1500101F0CCFD0020A6
:1004D0004FF4004104F1320288F89000C4E90A1098
:1004E00099F8441099F83500D9F8E46084F841107F
:1004F000B9F8DA1084F8340009F1980001F0BAFD77
:100500000746D9E92601002FC4E90E1041F00A83FD
:1005100094F8320029460022002488F8150030465D
:10052000776801F08DFD01F0B5FB012841F0738281
:1005300001F06FBADFF8841B4FF40070D8F87450E4
:1005400000248DF857408884DFF8740B8F600F46C5
:100550000C628C778C830C750C70C1E9036400F11C
:10056000340B95F83301C1F818B0012807D195F87C
:100570003B01D8F80040012101F0D6FD0444D5F834
:10058000EC0108F15801109008F1500001F0DCFD79
:1005900020441190688B1290D8F800001390E88ADC
:1005A000149001F077FB012808BF01F079FBB5F842
:1005B000EA0001F0E7FD05F59D79044607F120000A
:1005C0000422494601F0FEFD16A80021242201F074
:1005D0003FFE95F83801002800F0D685B5F8E61002
:1005E000DFF8D82A05F1280001F044FD074600286D
:1005F00041F0078200F0CBBDD8F8749099F8000064
:10060000032840F0DE84484601F058FE01F089BA24
:10061000D8F87470012001210124C7F86C8002F021
:10062000B1FA002F384618BF012001F006FDD8E9C5
:10063000260181F00201084307D1387B0124C1075C
:100640001CBF00F0040084EA900401F023FB0128A1
:1006500008BF01F025FB07F171022046414602F078
:100660009DFAB8F88C00DFF8549AA8F81200002020
:1006700088F8A100C9E90070798989F80E0089F825
:100680000D0098F8110089F80C0040F271204843E1
:10069000BAF1000FC9F8080005D0CAEB4A1000EB08
:1006A0009A00C9F80800388D07F1180807289ABF82
:1006B000DFF8101A51F820600026404609F10401C5
:1006C000002201F0BDFC0A9AD2E9260181F0020164
:1006D000084340F0B4840120147C012C89F80E00FA
:1006E00040F0D78407F1420500F0ABBCD8F85000C9
:1006F0004FF0000A0C90B8F85400ADF83400002018
:100700008DF836000CA9002002F0C2FA10B107469D
:1007100001F009BA0120002102F004FD80E5079FE5
:10072000062F11BF032F00204FF40041C4E90A1027
:10073000002299F8350099F84410D9F8046184F83A
:10074000411084F83400294698F8150084F83200E6
:10075000304601F075FC072F18BF022F40F0E485EA
:1007600009F1700109F16C000C68002C00F0F685AD
:100770004189006802F000FD211D2046F4E70021B8
:100780000420CDF814A009F1580AC4E90A0199F827
:10079000430099F8341084F8410094F8320008912D
:1007A00084F8341002F0F2FC44468046E0680028E9
:1007B00000F0D08702F0F2FCE1684875D4E914102B
:1007C000CDE91010E068D0E91412CDE91612A17D30
:1007D000002900F0B587E17D002918BF012100F054
:1007E000B0BF09F158000FAA294601F029FC0120E9
:1007F000079F84F83400D8E9260180F004000843FC
:100800000CD194F8320002F0C1FC61680222531E40
:10081000834203D244F822100132F8E799F82050BD
:1008200099F82110284602F0D8FC84F8335084F857
:10083000320001F030B9002504F1C602414602F051
:10084000ADF9B8F88C0088F8A170A8F81200D8F8B3
:10085000980010F0300F07D0D8F89C10C8E90601B6
:100860000120707600F06ABC98F810007076207C49
:10087000C10700F05C84400740F1598498F81000EB
:10088000042840F05484D4E90801C8E90601012095
:1008900000F052BCCDF814A09BF839000CAADFF888
:1008A00028180432002808BF01F11802D8F8745043
:1008B0001488002D2846EF6E18BF012001F0BDFB03
:1008C000002F384618BF012001F0B7FB01F0E2F914
:1008D000012808BF01F0E4F904F1960008F158017D
:1008E0000890D5F8F400169008F15000CDE90210F8
:1008F00001F02AFC1790B5F83A01069595F8634087
:1009000095F840B002F0CAFCB5F85C001A90069861
:1009100090F86050069890F861A0069890F8626090
:100920000698863002F0C4FC06FB1A50069D4FF074
:10093000000960430490C0B200EB0A060796002F3E
:1009400000F0C48397F8D60010B9012087F8D700CB
:1009500097F8DA00FF2826D097F8D900864222D2ED
:1009600007F1700507F17C04C0B2864213D020461F
:1009700002F0B0FC0146284602F0CCFC97F8D90002
:10098000002818BF012001F058FB97F8D900013862
:1009900087F8D900E8E70020ADF84000384610A9F4
:1009A00002F0CEFC069DCDF8249007F1700807F107
:1009B0007C09002697F8D600F1B2514545D2A8B17E
:1009C000BBF1010F02D197F8D60070B302F07CFDA5
:1009D0000028044618BF012001F02FFB002021460B
:1009E000E074404602F096FC0136E3E797F8D80041
:1009F0000028E5D0484602F071FD0028E0D04846C6
:100A000002F068FC0146404602F084FCBBF1010F95
:100A100003D097F8DA00FF28E6D097F8D90000282D
:100A2000E2D0013887F8D900DEE7B9680029CDD0D7
:100A300097F8DC000128C9D048890438488140462D
:100A400002F068FC0020B860CEE7DDF82880E0B155
:100A500001F020F9012808BF01F022F9DDF8249007
:100A6000D5F82C11089A079E5FFA89F001FB002047
:100A7000F86395F85900012803D12846394602F059
:100A800039FD09F101093F6859E797F8D8000028B6
:100A9000DED004980006DBD04846049EF1B201F196
:100AA000FF04E1B2091B18BF0121056835B129B166
:100AB000012001F0C2FA281D2646EFE73006069D08
:100AC000C6D0BBF1010F10D1B96819B197F8DC009D
:100AD000012821D102F0F8FC0028044618BF0120AB
:100AE00001F0ABFA02F082FD0DE002F0EDFC00280F
:100AF000044618BF012001F0A0FA02F077FD97F834
:100B0000DA00FF2804D097F8D900013087F8D9001F
:100B1000013E3006D5D19BE74889043848814846D4
:100B200002F0F8FB0020B860F2E7D8F87450CDF876
:100B300014A0EE6E02F060FD82469BF83970BDF89D
:100B400034900120012144464FF0010802F01AF8C8
:100B5000002E304618BF012001F06FFA9621962032
:100B6000002F18BF0A20BAF1000F08BF084695F8F9
:100B7000E910012940F014842768002F18BF963728
:100B800000F00FBCD8E90501814240F28C86091AB9
:100B9000D8F87800002800F06D86026DD0E92603B1
:100BA00083F020031843DFF81035DFF8140508BF81
:100BB00000F118031868D8F85030121AD8F86000FD
:100BC00003445C18A24200F257869A4240F25786CC
:100BD0001044C01A00F051BED8F87C600025D8F847
:100BE0007490DFF8D87498F82280CDE91255CDE9D9
:100BF0001055D6E90001B27EF37E3D60BD767D6082
:100C00007A763B76C7E9039001203881796101F05B
:100C100041F8012808BF01F043F8B07E05284FF0E5
:100C2000000038BF012001F008FAD6E900010A9C53
:100C30000022C4E9060109F12800394601F000FA52
:100C40002068B18901EB4004B07E012102F0DAFC9A
:100C500020447860D9F8B80028B190F8B81001297C
:100C600018BF0020054607F1090002F0DDFC002D49
:100C700000F0DC85D9F8B8000A9C04F15801D0F8DE
:100C8000A40002F0D9FC1790B9F8AC0018902068C5
:100C90001990D9F8B800D0F8B41090F8B800B0FAAC
:100CA00080F01A91410916A802F0CEFC00F0C1BDF7
:100CB0000021D8F87440DFF804642022012088F86D
:100CC0009010ADF8401094F89A303081B1763176BA
:100CD000C6E9001194F8B900C6E903127161012157
:100CE0007376D8F8005001F01FFAD4F8A410054428
:100CF00008F15000169108F1580101F025FA284436
:100D00001790E08B02F0CAFAD4F8B4001A9000F001
:100D1000C1FF012808BF00F0C3FF04F17005B8F857
:100D20008C1006F11802284601F0A4F907460028A5
:100D300040F0F88694F89A0002F0CAFC00EB4700F5
:100D400094F8B8107060022902BFB4F88C100844FF
:100D5000706006F1090002F067FC727E04F12C005D
:100D6000012102F0BDFC074694F8B800B0FA80F00B
:100D7000410916A802F068FC98F8A80001281AD1C9
:100D8000D4F8A000B8B190F8E810022913D1D0F837
:100D9000E010D8F878208A420DD194F89A1090F893
:100DA00069208A4207D1B0F85C00D4F8B4108142BF
:100DB00088BF02F0DDFC94F8C0000B2140F0020077
:100DC00084F8C000042002F0D9FC022002F012FDD9
:100DD0004FB90020DFF8803E2A46009010A900207D
:100DE00002F010FD0746D4F8A000002800F09A8613
:100DF00002F006FF00F096BEDFF85C5E00242020C3
:100E0000D8F87460ADF84040C5E90340012096F879
:100E10009B10AC766C61C5E90044288196F89A0075
:100E2000297608F158016876D6F8A400169008F1E2
:100E3000500001F089F91790F08B02F02FFAD6F8E4
:100E4000B4001A9000F026FF012808BF00F028FF28
:100E500096F89A0002F03CFC00EB47001430686002
:100E600005F1090002F0E0FB6A7E06F12C00012189
:100E700002F036FC96F8B800B0FA80F0410916A8E6
:100E800002F0E2FB96F8C1000F21012808BF0B21F8
:100E9000052002F073FC022002F0ACFC009406F185
:100EA000700210A900202B466AE140460026D8F8BF
:100EB0007480C46FA07E05284FF0000038BF012069
:100EC0000121012701F05EFEE07E28284FF000009E
:100ED00038BF012001F0B1F8DFF87C5DA07EE17E33
:100EE000AF73C5E90086AE606873297300F0D2FE67
:100EF000012808BF00F0D4FE0A9800244FF0000932
:100F0000C8F86C00B8F8280007289CBFDFF8441D1B
:100F100051F820402046002C18BF012001F08DF828
:100F200008F11806291D0022304601F089F8687B77
:100F300002F0B4FE07464188008804F1160220231F
:100F400002F0BAFE398904F13800224602F004FFAB
:100F5000FB88BA88E18A3046CDF8009002F032FF73
:100F60000A9E687B0121346802F04CFB00EB4400D0
:100F7000A86002F04DFF012002F03CFC08F10D00DA
:100F800029460022B04602F051FF00F0CABDCBF85E
:100F900028800120002788F89100CAEB4A10D8E980
:100FA000092388F8A17000EB9A0140469847002871
:100FB0003FF400A90446404603F0C8F82746FFF76F
:100FC000F9B898F8A700DFF8841C013088F8A7006A
:100FD0009BF839000CAA04320028484608BF01F1EA
:100FE0001802148850F8187F01210390012001F0A5
:100FF000C9FD002F384618BF012001F01EF800F08F
:1010000049FE012808BF00F04BFE04F19600394666
:101010000790002089F85500D7F8EC0090F841B00F
:10102000D9F81800B0F84C51002900F0B48191F8BB
:101030006601042880F04382D1F8F010F4E707F14C
:10104000360501200121012401F09CFD002E3046CF
:1010500018BF012000F0F1FF6988288806F1160208
:10106000202302F029FE298906F13800324602F0D9
:1010700073FEEB88AA88F18A4046009402F0A2FE33
:101080000A98D0E9260180F0400008431CBF0A9866
:10109000047C89F80D4002F0BBFE002002F0AAFBA0
:1010A00007F10D004946002202F0C0FEDDF828805D
:1010B00000F037BD48EA0020D839002078E9002048
:1010C000B0E40020E0EC002088E8002095F87800EB
:1010D000A8B195F89200012811D195F83F00602140
:1010E000002808BF4421685C4FF4987108BF4FF492
:1010F0009671089A695801FB0020C5F8B80095F868
:101100006020D5F8301116A803F04CF8284603F0FB
:1011100069F8DFF830BBDDF814A00746002840F07E
:101120000185DDE9020100F09EFF00F0FBBCD4E97F
:101130000601C8E90601002084F87800D8E9060114
:10114000C6E9040198F81100307606F1090002F0B2
:101150006BFA03F01DFD307A012809D1707E043846
:1011600018BF0120002102F009FB002002F042FB21
:101170000020DFF8E43A04F10E01009016AA284698
:1011800002F040FB00F0CDBC95F82500387095F8D2
:101190003B010894D8F8004095F820600121CDF873
:1011A00014A002F02FFA98F81C10DFF8AC2A11777F
:1011B00040F2E241714301EB440108440830106100
:1011C000DFF8800A406AC16B4046884700288246A3
:1011D00018BF012000F031FF00204FF0FF3188F8E8
:1011E0001C00DFF8780A006803F0E0FCD8E926016B
:1011F00080F08000084312D1D8F8740090F82902DA
:1012000001280CD198F81800012808D108F1100025
:1012100003F0D2FCD8F87400002180F8291244466B
:1012200008F11008404603F0EFFC0646D4E9260119
:101230000995CDF81C9003F0F9FC13D1DFF8080AEA
:10124000083086420CD0B07B800709D570893168A0
:101250000844B189084400790B2808BF4FF0010AFF
:101260000AF1010ADFF8E8095FFA8AF94FF0000A8B
:101270005F4600F15405DFF8D00900F10804A6B17B
:10128000CA4512D2304639462A4600F0D9FE0A999C
:101290000AF1010A087F01300877A642404618BFCC
:1012A000301D066804370235E9E7DDF82880CA45B5
:1012B00009D2204639462A4600F0C2FE04370235DC
:1012C0000AF1010AF3E7DDF82490DFF88C790020B9
:1012D0005146072906D80BEB41024BF8210001319A
:1012E0001084F6E7DFF87409006803F0A3FC87F8C0
:1012F00014A000F0CFFC012808BF00F0D1FC99F841
:10130000690199F89411DDF814A0002800F0F1812A
:10131000002900F0A282012097F820108DF87900B2
:1013200016A803F08DFC04E3756800F0B3FC0128F7
:1013300008BF00F0B5FC002485B1DFF81C19E0B24D
:10134000002201EB800003F0CDFC7089316801F0D0
:1013500013FF68682E4601340546EDE700F09AFC5D
:10136000012808BF00F09CFCB8F88C00002588F824
:1013700014500130A8F88C00D8F80C00002800F0B8
:101380008B83D9F80411484603F0B4FCD8F80C005C
:10139000012101757FE3DFF8ACB84FF0FF37C2E3FE
:1013A00000278144D5F8F40004F1580102F044F913
:1013B00038441790B5F83A01189020681990B5F89C
:1013C0005C001A9096F8D500002818BF012000F0A4
:1013D00034FE96F8D57005F1860001F069FFDDF85E
:1013E00014A0002E42D000F055FC012808BF00F0E8
:1013F00057FC96F8D500002818BF012000F01DFE0C
:1014000096F8D500D5F82C11C01B00FB01900121E6
:10141000F0630A98046895F8690002F0F3F800EBAD
:101420004400F062D5F830119639884205D995F814
:101430003F2012B985F84581F06AD5F82C21A2F138
:10144000960398429CBF891A884205D995F83F00B7
:10145000012808BF85F8458195F85900012803D176
:101460002846314602F046F83668BAE795F83F104C
:10147000602295F86900002908BF4422A95C4FF456
:10148000987208BF4FF49672DDF82880AA5802FBC4
:101490000191C5F8B8100121D8F8004002F0B2F867
:1014A00000EB4400D5F8301195F86020C5F8A8008D
:1014B00016A803F06DFC284602F094FE31E34FF0CD
:1014C00000080026CDF81890CDE9041A002F00F08E
:1014D000DB8097F866010428C0F0C480D7F83C018F
:1014E000411C1CBFB96F884215D8B7F840010728C6
:1014F0009ABFDFF8601751F8204000242046002CE6
:1015000018BF012000F099FD4FF0FF30C7F83C01F3
:1015100004F1300001E007F5B97001F0C9FE99F857
:101520005000CDE90865012803D020B997F85F8104
:1015300001E097F8608107F1AC0507F1C4064FF0B0
:1015400000094FF0000AC14546D2306848B1304624
:1015500001F0C0FE0146284601F0DCFE4FF0010A12
:101560002BE0BBF1010F06D1D7F8D81019B197F8CD
:101570006B01012824D138460021012203F040FCF0
:101580000028044618BF012000F057FD0020BAF1E2
:10159000000FE07418BFBBF1000F0AD197F8620189
:1015A000FF2806D197F86E0118B9A07B40F008001B
:1015B000A0732846214601F0ADFE09F10109C2E7FA
:1015C000488904384881284601F0A4FE00204FF0E5
:1015D000010AC7F8D800F0E7049CBC4208D00120FB
:1015E00000F02BFDD4F81401D7F81411081A00E00C
:1015F0000020DDE90716DDE905A9099D08447862A8
:1016000099F8500001282DD10A980121046897F813
:10161000390101F0F7FFF96800EB440021F07F4148
:1016200096397861884205D999F8400010B90120AF
:1016300089F85500D7F8F010A1B1D1F814117869E4
:10164000A1F19602904206D8FA6822F07F42511A20
:101650009639884206D999F84000012804BF012034
:1016600089F85500300606D197F866010026033840
:10167000022838BF0126A8B2B7F84C51A84288BF4B
:101680000546D7F8F07021E7DDF82880D9F82C005E
:10169000344608F10806169008F15801304600F06B
:1016A00053FDA9B2E3B2CDE91701D8F800001990B3
:1016B000B9F838001A90D9F81800C278C06820F03C
:1016C0007F4102F01F0216A803F000FC00F0E2FACE
:1016D000012808BF00F0E4FA484600F0EFFDDFF80B
:1016E00064B50746002800F00281002088F80E004B
:1016F00018E209F5A470002900F0108197F8201075
:1017000003F09EFA3D7D0FAC002D00F0AA80DBF8BF
:101710000000002800F0A580DBF80060307880062B
:101720000AD520460021012200F092FDB0783F2822
:101730008DF83C0000F2FD80013D0BF1040BE3E766
:1017400001210175A07D012804D1E07DB0FA80F06F
:10175000400900E0002006904FEA08140FAEDDF8C3
:1017600028804FF000094C454AD0D8F80C00C0B191
:10177000B9F1000F15D0BAF80C00DFF8C8143746DD
:101780002C2221F8090001EB0906BAF80A0026F814
:10179000020C56F80C0DDAF8001000F013FDB246FA
:1017A0003E4650462946324600F04AFCD8F80C0026
:1017B00010B30DF1400B286816AA594603F0BCFB84
:1017C000D8F80C102868497D03F0D2FB089F3846F2
:1017D00003F0ECFB80460998394690F84320DAF88C
:1017E0000000407803F0EAFB4044DDF82880012245
:1017F00081B2584600F06EFB043509F11009B2E7DA
:10180000DDF8249099F8200099F8211001F0E5FC0A
:10181000DFF84414DFF82CB4DDE905A5079F81F853
:10182000320099F8200081F8330035E103F0B0F977
:101830000A9C94F8200094F82110424603F0DEFB45
:101840000020DFF8143409F10E01009010AA284698
:1018500001F0D8FF0746A04664E1002089F8910115
:1018600060E00DF1570000F0B3FB9DF8570000F069
:10187000B7FB5EE0D8F860000844C8F86000D8F80C
:101880001C1081B1DFF8C023DFF8C43312681B6A73
:101890001A44D8F850301844801A884282BFC81AB7
:1018A0001044C8F8600003F0D5FBDFF8A403DFF8AC
:1018B0009813D8E90923006A09680844D8F8601029
:1018C000081AC0EB401101EB9001404698470028F0
:1018D00000F0B1810746D8F84840404602F036FC97
:1018E000002C3EF467AC3846A047FEF763BC039873
:1018F0000468002C3FF4F9AED8E9260180F40030EA
:10190000084308D194F86601042804D304F1840044
:10191000314600F0A8FB04F1F000E9E797F8201049
:1019200003F08EF997F8212009F5B870002101F035
:10193000D7FE07980078042805D1B9F83C11042097
:10194000022908BF03200138C0B2484490F8C401FE
:1019500087F8240098F8A800012802D0D8F80C00D5
:1019600010B1012087F82500D9F8C80003F07AFBF0
:10197000052803D0062803D1012406E0002404E052
:1019800000200121002401F0FDF810A82146089A4A
:1019900003F07AFB00F07EF9012808BF00F080F91F
:1019A000AD4C09F1280009F59671224603F0B6FB0B
:1019B000074630BB99F82E010138012820D899F844
:1019C0003311607F31B100F07F006077A07F60F05D
:1019D0007F0005E040F080006077A07F00F07F008E
:1019E0009B49A07798488068496B814203D1207F4A
:1019F00008B101382077984909F1EC0003F082FE24
:101A0000002798F8A700DFF83CB2013088F8A7005B
:101A100088E000F045F93D46B5B18F4FE0B20022B5
:101A200007EB800003F05EF970893168084497F88D
:101A3000321003F09DFA6F68013400F02BF92E4646
:101A400001283D46E8D1E4E799F8351009F1AC00EA
:101A500003F0F6F8D9F8D000002800F0EF80D0F8B5
:101A6000E05090F85940002D284618BF0120012170
:101A7000012601F087F8687D079F00B96E7599F817
:101A8000960018B100253CB9012805D1D9F8E41019
:101A9000484603F039FF002500F0FCF8012808BF94
:101AA00000F0FEF8D8E9261081F0040202430FD0BE
:101AB00081F0805202430DD081F4005202430BD0DA
:101AC00081F00062024309D081F00801084307D188
:101AD000012006E0022004E0032002E0042000E0F0
:101AE0000020002107F03F02052F88BF01210D23B0
:101AF00023FA02F21143D8F80C2001F00101002A68
:101B000018BF012203F05CFF99F821002A46811FCB
:101B100018BF0121033818BF012008404E4903F0C7
:101B200083FF0746CFB303F085FF0020002403F0B6
:101B300087FF012000F022FA122088F8A04003F06D
:101B400093FF0020002101F0EDFA98F8A10010B1F8
:101B5000013888F8A100D8E9261001F0804200F091
:101B600005039B1837D000F00100801811D0D8F879
:101B7000700070B1D8F86C00002818BF012000F088
:101B80005CFAD8E91B300021002200249847C8F8ED
:101B90007040404603F06AFF32E0D8E92601042293
:101BA000434272EB010144D32D49084237D010F46F
:101BB000C07F05D0D8F8741091F83511012908D0EC
:101BC00010F4C02F32D0D8F8740090F858000128D3
:101BD0002CD101202BE011F4F01F03D0FF2088F856
:101BE000140008E081F40051084304D1D8F808003B
:101BF000807D012804D0DBF82400816940468847B5
:101C0000BAF1000F7EF4D6AA01E000F049F800F026
:101C100041F80128F9D004F08FF8FEF7CBBA04F0B0
:101C2000C3FA0138B0FA80F0400900E0002004F067
:101C3000C1FA03F00FFA0027FEF7BCBA0025079F90
:101C40002AE700BF48EA0020D839002088E80020B1
:101C5000B0E40020E0EC002078E9002004F200204D
:101C60008001060004F0BEBA04F0BDBAD8E926012E
:101C70000422404272EB010070478268521C82606D
:101C8000426832B10268531C036011704168491EFA
:101C9000416070470148C068704700BFC8E300203A
:101CA00010B5114850F8041CC90716D00F4C227803
:101CB0006178914212D20E4A52F8310002EBC10112
:101CC0000122496804F0A0FA60780D2803D30020AF
:101CD00004F0F8FA60780130607010BD04F0F5FA95
:101CE000BDE8104004F0FABA44040248C8E30020FA
:101CF00080E500202DE9F04100270646304C88465B
:101D0000154602284FF0000038BF01200121A047EE
:101D1000B8F1030F4FF0000038BF01200121A047A8
:101D2000022D38BF012738460121A047254F012E3B
:101D300002D1B86C00B1804797F84F00012E08BF60
:101D4000022835D0B0420DD004F0DEFA18B10120DF
:101D5000002104F0DFFA97F8230001281CBF0120BE
:101D600000F00CF9012E12D026BB97F84F0028B1D5
:101D70000020002404F07EFB87F84F40B8F1010FEB
:101D80000CBF00200120BDE8F04104F085BB15B96F
:101D9000002004F09DFB97F84F00012808D0002098
:101DA00004F07AFB0120012404F064FB87F84F4023
:101DB000BDE8F08100200121BDE8F04100F0E2BE65
:101DC000852B000888E800200448817F012904D180
:101DD000C07F800748BF04F091BB7047A8E6002091
:101DE0002DE9F04781461A20FFF73CFF334D95F867
:101DF0004D00012805D104F083FB31480068461CE2
:101E000000E000262F4F97F83C00002841D0022820
:101E100018D0012822D1BC6A2C4A0023E0076108AF
:101E200004F070FB4FEA4008A87F012818D126482B
:101E3000864215D20020A877A88B00F1010AA5F8E8
:101E40001CA00FE0A87F012819D11F48864216D296
:101E50000020A877A88B0130A88311E0002618E0A5
:101E6000B5F81CA0A4FB0601184A002304F04AFBA5
:101E7000B96B401A1FFA8AF108FB010609E0A88B2A
:101E80004FF4FA71A6FB012300FB0130510A41EA2D
:101E9000C05695F82200C9F80060012808D10C4806
:101EA000864205D8002085F82200288C013028843D
:101EB0001A20BDE8F047FFF7D7BE00BF88E8002032
:101EC00014000248A8E600202FDD240618F00100C7
:101ED000FF47E8011CB504F098FB09D80FF2040293
:101EE000DFE800F003090E12180004F095FB04E08F
:101EF00004F09EFB0FE004F09FFBADF804000AE045
:101F000001EB8100C00003E00020ADF804004801AF
:101F1000009000E000916946204604F094FB1CBD4F
:101F2000D0E9262182F080030B4313D082F4801382
:101F30000B431CD082F400330B4312D082F4802375
:101F40000B430ED082F400230B4310D082F4807236
:101F5000114311D1406F90F82E010138022804D3AB
:101F60000AE0406F90F8540030B101207047406F94
:101F700090F859000128F8D00020704710B510499A
:101F800091F82320824218D0012803D191F85020E3
:101F9000012A12D00D4B0BA21C68125CC4F306146C
:101FA000944208D01C6860F302041C601C68C4F3EF
:101FB0000614A242FAD181F82300002010BD00BF10
:101FC00088E8002001030F232F171F3F0800024855
:101FD0000249097801700020704700BF2AF20020F2
:101FE00070B5084A0021084B602907D0561854588C
:101FF0000C31E5587668B543E550F5E703490A68C2
:10200000086070BDB84706080000024898080248FA
:1020100001490866704700BFD8E20020002204F0A2
:1020200029BB28B10068401AB0FA80F04009704717
:1020300000207047002204F03BBB012100F0A2BD4C
:1020400070B5002805460E4618BF0120144604F05E
:102050005EFB1EB168892968084430600CB1A8890C
:102060002080002070BD0A6802608A888979828099
:10207000817170472DE9FF410646A92090460D4623
:10208000FFF7F0FD01200421012401F04BF8244862
:10209000244F0522395864F30201395006F1080132
:1020A00002A800F08FF8029802220123F860B868B5
:1020B0000399400960F35F11B96040F674017068DC
:1020C0003860B8686FF3541040EA4510B86078681B
:1020D00040F400007860B86940F00100B86104F095
:1020E00019FB054680B9786A40F002007862786A88
:1020F00020F0020078627868C0F3C52088F80000FC
:10210000B86920F00100B8610020042101F00AF84C
:10211000A920FFF7A9FD284604B0BDE8F08100BF63
:102120002CFCFFFF5408024810B5064A002902F1B2
:102130000C0408BF02F1080404F0F2FA2168084414
:10214000023010BDE4E3002010B58A79012A04BFF3
:102150008279002A0CD00A68084B9A420AD3036895
:10216000074CA34298BF93423CBF0122827101E019
:1021700000228A71BDE8104004F0F6BA00B817FEDC
:10218000FF47E80110B50E4A00210023022904BFD1
:10219000D8B210BD1C0610D104F00EFB0CD0B3F861
:1021A0004041844208D193F86631023B032B4FF043
:1021B000000338BF012300E000230131E6E700BF40
:1021C000B0EF0020F0B5EAB104F0FBFA38BF1546D5
:1021D000042A28BF25462E1F01F0030418BF2E46EF
:1021E0009C4211D1A2EB060C04228C198319F6B281
:1021F00000279CFBF2FEBAB2B2420DD28D5C0137D1
:102200008554F8E70020F0BD00231404FBD0CC5C1B
:10221000013AC4540133F8E71FFA8EF100268E42CA
:1022200005D254F8262043F826200136F7E707495F
:1022300001EA8E02A11813440CF003020024A2420A
:10224000E1D90D5D1D550134F9E700BFFCFF030026
:10225000F0B500F00303C3F104039A421C4638BFF3
:102260001446042A28BF1C46231F18BF2346D21A2F
:102270000024A5B29D4202D241550134F9E74FF046
:1022800001340344002701FB04F5042492FBF4F419
:10229000A6B2B74203D243F827500137F9E7064DFB
:1022A00002F0030205EA840423440024A24298BFFA
:1022B000F0BD19550134F9E7FCFF03002DE9F04F9B
:1022C00093B0DFF8A07882460120BAF1000F87F8BA
:1022D00069005046DAF81840C7F81CA018BF012062
:1022E00004F076FA002C204618BF012004F070FAA2
:1022F0009AF8500078B14FF4802000214FF48025E7
:10230000002604F068FAC7E914563D6C002D18BF8A
:10231000012503210AE04FF4003000214FF400367C
:10232000002504F058FAC7E914650221079187F8DF
:1023300068509A4A116860F3040111609AF800002D
:10234000032807D1012000250026012378640127F6
:1023500003209BE394F83811042905D1B4F83A011D
:102360000421022808BF0321B4F840014D1E04F0E7
:102370004FFAE9B2D4F8F040084490F8C451FFF79E
:1023800089FC012808BFFFF78BFCF4B194F83811E1
:10239000042905D1B4F83A010421022808BF032119
:1023A000B4F840014E1E04F033FAF1B2084490F83C
:1023B000C401401BB0FA80F04FEA501608D1D4F89F
:1023C000F040002CE2D1002003E00020012600E0D4
:1023D00001200290DAF818B00024584618B1D0F85D
:1023E000F0000134FAE704F01DFA90F82E010138EC
:1023F000B0FA80F0400904FA00F0C4B2DFF86407D4
:102400002146006E04F012FA03909AF81500012894
:102410000CD19AF8000048B9601E0121012404F093
:102420005FFA03988AF80040CAF80C001EB168B23F
:1024300004F05BFA6CE0DFF82C07D0E914010EAC75
:10244000C4E90001012004F0C3F904F0EBF900280D
:1024500018BF012004F0BCF9DFF814575E46D4E938
:10246000000180F40030084303D1F07C0130F074A7
:1024700008E0D4E9000180F48020084302BFB0786E
:102480000130B07096F83811042905D1B6F83A0138
:102490000421022808BF0321B6F840014F1E04F0B2
:1024A000B7F9F9B201220844002190F9C40104F0FF
:1024B00021FA2968B77C01EB800207F00F075378F7
:1024C00086F82B30F37811F8201047EA0111B17427
:1024D000917803F07F0242EAC111F170296801EBA3
:1024E0008000807810B9012003F0D6FFD6F8F060A4
:1024F000002EB4D104F02EFA294AD16A21F47F418A
:1025000041EA00202549D062086840F48000086054
:10251000DFF8601607984FF6FF79039C0027CDF887
:1025200020A001EBC0000430059000200B9000209B
:1025300006909BF866010428C0F089829AF8500042
:102540000A940DF14B020DF14A0300284FF4B070CC
:1025500008BF40F25F101BF8004040F25F1008BF58
:102560004FF4B0701BF800804FF4A37008BF4FF415
:10257000A4703BF80050DBF838010EA904F0F0F924
:1025800004F050F90D90DBF83C01411C0AD0DBF857
:102590007810884206D90BF5B97009E00C0802489A
:1025A000080402484FF0FF30CBF83C010D98303062
:1025B000017842788378C67841EA02219BF834207A
:1025C00041EA03419BF8383141EA06619BF83961E1
:1025D000C3F34103CBF830109BF81210007901F0DF
:1025E000F00100F01F00194406F0060341EA430120
:1025F0009DF84A308BF812109DF84B1001F00F0136
:1026000041EA03118BF8111002F0E0010844DFF8F1
:1026100064158BF83400079851F830008BF81300DC
:10262000059800688BF802000EAB0FCB8BF81A20D0
:102630008BF819108BF81B308BF818000BF1200069
:1026400000210322FFF704FEDBF87800ABF82C0032
:102650009BF8230000F007008BF823009BF839015A
:1026600004280FBFE020DFF8101531F810001B30F0
:102670008BF80F508BF80B000C97002C00F08A8021
:10268000DBF8EC0090F8500000284FF4B07008BF61
:1026900040F25F101BF8000009900BF1AC0000F055
:1026A0001DFF0746006828B958463946002204F045
:1026B0005BF93868798908440438ABF81C00FFF7E7
:1026C000E9FA012808BFFFF7EBFA4FF0000A002FE4
:1026D00052D07D6835B1286820B958462946002275
:1026E00004F042F97889396804220330033120F07C
:1026F000030021F003010E180021341F16F8019C7D
:1027000004F08CF916F8010CC9F3800120F00400E4
:1027100040EA810006F8010CBA7B120744BF40F082
:102720002000E07048F2C0321DB12A886B891A443B
:10273000043A22803A7C1AB1A27802F0E00206E064
:102740007A7CA37802F01F0203F0E0031A4481F0C0
:102750000101A2702F468A449BF838110429B6D192
:10276000BBF83A1100F0F7002F46023918BF0121DB
:1027700040EAC100E070AAE75FFA8AF00999DDF843
:1027800020A00C9F4FF6FF79884284BF401AABF817
:10279000640003E048F2C030ABF81C00B8F1000F51
:1027A00077D09BF80340002545450BD258460021C1
:1027B00004F037F9FFF76EFA012808BFFFF770FA47
:1027C0000135F1E704F01F060BF1B804B8462046C6
:1027D00000F084FEDFF8A4730546F0B200F1FF06B6
:1027E000F0B2B04218BF002D0DD0286848B9384665
:1027F00004F033F969892860042204F035F9286867
:1028000008B16D68E9E7204600F068FE054628B18A
:10281000286818B10438ABF81E0001E0ABF81E9030
:102820004746FFF737FA012808BFFFF739FA95B393
:10283000286880B30330002104226E6820F0030072
:10284000041F04F0EBF84FF6FF7026B131684FF625
:10285000FF7001B1081F2080297C19B1A07800F019
:10286000E00013E080B2484509D1DBF8EC0090F8B5
:102870005000012803D19BF860010028EED0687C4D
:10288000A17800F01F0001F0E0010844A070354677
:10289000CDE7ABF81E900D98FCB290F82E01012800
:1028A0001CD1B048006E04F0E5F802462C20DBF89D
:1028B000EC109BF867A0099404FB0029049291F89E
:1028C00050104D4615F8200F6F1C59B1394600F0D5
:1028D0007F0004F001F942F080020AE00121ABF828
:1028E0000090A7E0394640F0800004F0F5F822F0AF
:1028F0008002B8460B0E39703E46FB700B0C090A7D
:1029000008F8042F06F8080F7970110EBB7088F8CC
:102910000310110C88F80210110A10227971010AB3
:10292000000C7972B0700D9909F104009BF85B40BE
:10293000FC31FFF747FCDBF85400C9F81C009BF89A
:102940006600297898F8002098F8023001F080019C
:1029500000F07F00084444EACA117C79287098F896
:10296000035042EA0422B078099CDBF858E0F97081
:102970000D902C2043EA052387F800E042EA034249
:102980004FEACA13DDF810A022F07F0242EA1322B8
:102990002EF07F4343EA016388F800204FEA134C8E
:1029A0001B0A87F802C07B70DBF85C50C9F8145032
:1029B000DBF86050C9F81850BBF81C50A9F8025059
:1029C00004FB00F5BBF81E002AF80500002088F87B
:1029D0000020F970012187F802C07B7087F800E0C1
:1029E000DDF820A088F803006548797210400D9A40
:1029F000050C00F58070000A88F802507871100408
:102A00000C9F30704FF4600000EA02404FF080628B
:102A100000F58020000CB070ABF800904FF6FF7905
:102A20009BF80F0002EB0060000E8BF80F00069879
:102A30000130069001FA04F00B990A9C38220143F8
:102A400020460B915946FFF7BDFB01373834DBF8C0
:102A5000F0B0BBF1000F7FF46CAD42480B9B4364B8
:102A60009AF8000001280FD1404CD4F8000440F03F
:102A70000100C4F80004D4F8000440F00040C4F899
:102A80000004029D069E19E0029D069E374C9AF8AE
:102A900040100328D4F8002461F30002C4F8002495
:102AA0000CD19AF814004FF4803101EB0040D4F8B7
:102AB0000014000C60F31441012004E0D4F8000479
:102AC00020F4F8110020C4F80014D4F8001421F008
:102AD0007871C4F80014D4F8001467F34501C4F801
:102AE0000014D4F8FC1363F31E011F4BC4F8FC134D
:102AF0009AF85510DA6861F34512DA60196F41F0FF
:102B00001001196725B9184A116821F48001116074
:102B100021684FF6FF72914318B1BAF80C200846AD
:102B200002E003980A4680B21043104A1060300653
:102B300014D0106E012120F001001066906F61F337
:102B400002009067106E61F3C4001066032003F06A
:102B5000E3FF0549086F40F008000867002013B044
:102B6000BDE8F08FD8E200200C08024808040248B3
:102B7000F4F00020E4E30020A6320008E8EF002093
:102B8000FF808000012908BF03F0DABF7047FA0018
:102B9000960064004B0032001E001400F8B50327B5
:102BA0000C4606461546002808BF0627B1F88C10CB
:102BB000638AF800B1FBF0F2B3FBF0F0504000067E
:102BC00003D194F8900001280CD12846082103F085
:102BD000E9FF10B10020FFF730FAB4F88C100020A4
:102BE00084F89000B1FBF7F000F00702A85C26B172
:102BF00001234FF0030C002615E000F00106C90781
:102C000008D1012301274FF0030C002E08BF042731
:102C1000002607E0042304274FF0060C002E08BF0F
:102C200001270226277420FA03F303F00303032B82
:102C300012D10C23AF5CB34002369F43237D591E53
:102C400001F00301B1403943A954227D272A14BF62
:102C5000511C2521217500E02533B4F88C10032286
:102C6000B1FBF2F202EB42028A1A0DD0511E20FA99
:102C70000CF018BF01214840044900F0010001EBAD
:102C80004301084410F84A3C6374F8BD423600081A
:102C90002DE9F04F8DB0824691F80690D1F800B042
:102CA00019200F46CD798E88FEF7DCFF03F07FFFF9
:102CB000DFF84CC4D74C9CF83C0002281AD00128FD
:102CC00024D1DCF8282000204FF60C0100230C95BD
:102CD0000A9203F017FCDFF830244FF47E61B9F15B
:102CE000000FCDF824A00B97138C07931CD092F8FB
:102CF00022501DE00C95DFF81054B9F1000F288C1C
:102D000000F09A8095F82220B0469AE0A34540F260
:102D10007381DFF8F40390F82210002940F06C81F1
:102D2000012180F8221067E192F82250A34503D9CF
:102D300015B9012582F8225040000A9C0023089012
:102D40000B98B4FBF1F8B44922460068A0FB01716E
:102D5000384603F0D7FB834600FB14704FF47E62C5
:102D6000B9F1000F18BF4FF00109B0FBF2F0079A5C
:102D70000644681EB0FA80F0400900EA0900B4F584
:102D80007E6F104410D3B2B2DFF874C39045DDF803
:102D900024A00C9D0DD2B2FBF8F21BEB020B02FB40
:102DA000186641F1000104E0DDF824A0DFF850C30B
:102DB0000C9D089A4FF00009BAF1000F0B9FE0FB41
:102DC00002B140F019819CF85A00012840F01481AA
:102DD000DCE910940796DCE908269CF86000CDF841
:102DE0000480ABEB02030128B9FBF4FECDF818E038
:102DF0006DD10EF10405002089464FF0000A9D4276
:102E00000AD20EF10107043BB3FBF7FAEAFB0726EF
:102E1000ABEB0203CCE908269D4228BF012003F05A
:102E2000C8FEDFF8DCC249469CF86000DCE90826F1
:102E3000DCE91037049063E095F82220B046A34502
:102E400003D912B9012285F8222040024FEA4B240F
:102E50004FF4FA76B9F1000F40EADB5118BF4FF09A
:102E60000109501E4FF4FA72B0FA80F0400919EAD5
:102E7000000F18BF01F5007120464FF00009002334
:102E800003F040FB00FB1642DFF874C2C2EB0212F3
:102E9000520092B2B2FBF6F2424493B21E3B38BFEC
:102EA0004B461E261D339CB2B4FBF6F4C4EB04164D
:102EB000A3EB4606F31A9E1810EB040B41F1000039
:102EC000A98B884288BF4FF001090C9D94E00490C3
:102ED000AEF101050EF103004FF0000A0027834216
:102EE0000CD9B3FBFEF3E3FB05261AEB030A47F10B
:102EF0000007CCE90826ABEB0203F0E74B46274678
:102F0000BBEB02054FEAE7729CF8489008910593E5
:102F1000A5FB074061EB060805FB0200039408FBD4
:102F20000702DCF85470A4FB0701029202FB0711B0
:102F3000A3FB09235B0143EAD263520103F0E2FAE7
:102F4000049979B101290A9C079E0ED1BBF1010BAE
:102F5000089961F1000108914FEA4911B7FBF1F1BD
:102F6000081A01E0079E0A9C06446548DDE9023123
:102F7000076B059A4FF00009A1FB070103FB07113E
:102F8000002303F0BFFA0AFB0700069F0644E81B74
:102F900078F1000019D2DDE9083ADDF830C0781E7A
:102FA000019AB4F57E6F15D3B1B28A4212D20135BF
:102FB00048F1000885EA000151EA08010CD0B61A70
:102FC0001BF1010B43F10003EBE7DDF824A02846D9
:102FD0000C9D04E0284601E04FF000086546391DCD
:102FE000081A79EB08004FF0000028BF012003F019
:102FF000E0FDDFF80CC10B9F444CBAF1000F0DD07F
:10300000DCF80C00032103F0D7FDE06820F020007D
:10301000E0601CE0FFB717FE18F001003A48816A33
:1030200001291CBF39684162D7E90012C57680F8D2
:103030001A9006830C3080E80608B0B23449086064
:1030400003F062F918B90020012103F063F9616906
:10305000002209F00103081D42F10002BBEB00054C
:1030600073EB020228BF5846BAF1010F14BF58464D
:10307000B9F1010F08D024498A7F9AB9214A9042B8
:1030800010D901228A770EE011F1050FF3D8214AF9
:103090009142F0D31C480121817780F84E106FF0E7
:1030A00001000EE048B1BAF1000F0AD1421C08D16C
:1030B00001204FF0FF34887719E0BAF1000FF7D004
:1030C000002015A1012551F82A1008510AEB4A00E9
:1030D000134951F8202001EB8000D0E90110135969
:1030E0008B4305FA00F0084018441051002403F007
:1030F0007BFD1920FEF7B8FD20460DB0BDE8F08F2E
:10310000A8E60020FFB717FE88E80020000002486C
:103110005C040248FDFFFFFE1000000018000000E4
:103120008C650608B0B500F0010201238A4003FA5D
:1031300001F10F4B1C7A24EA01010E4C114394F863
:103140004C201972C9B200290D4642EA010318BF8A
:10315000012513B1012A01D101B1B0BD0138B0FA86
:1031600080F0400903F042FD84F84C50B0BD00BF30
:10317000A8E6002088E80020084498F8151001F01F
:10318000F7BED0048901D00478018901024900F01A
:103190000F00085C704700BFA467060870B586B0D2
:1031A000044600200DF11205CDE90200CDE9000032
:1031B000284603F01DFD6E462946052206F108004B
:1031C000FFF700F8B4F88C100DF117023046FEF747
:1031D00051FF9DF8170006B070BDBFB54501002432
:1031E00000F0020200F001036DB2012902948DF893
:1031F0000E208DF80D300194C5F3C1158DF80F50D8
:1032000008D14007032101EAE070000140EA820092
:10321000184441E002A8012103F0C4FC10B10020D1
:10322000FEF70BFF02980DF10D0400F00300C11E24
:1032300018BF01460291655C01A8012103F0B2FCB0
:1032400010B10020FEF7F9FE9DF8041005F0030010
:10325000C90702990FD14A1E002908BF0222511E38
:10326000002A08BF0221A25C615C302303EA01113D
:1032700062F383010FE00131022988BF0021621847
:1032800012F8013B012988BF22461178302202EA58
:10329000011163F38301084404B0B0BD1890D8F85D
:1032A0000000199070470000280018007A017A0188
:1032B000E0B5014668460522FEF784FF0448009900
:1032C00041600168019A490961F35F1202608CBD97
:1032D0005C08024870B50E4E054603F09BFC2C6856
:1032E0003CB16868844208D0606828600020606053
:1032F00008E0002003F00BFA04E00120287200200F
:10330000C5E90000306801F095FC204670BD00BFA3
:1033100004F2002070B5094E0C46054603F07AFC15
:10332000286818B155F8040F446000E010C52C60FF
:103330003068BDE8704001F07DBC00BF04F20020A1
:103340002DE9F84F834690F8D4005D4A52F820905A
:10335000487800284DD09BF8D820002A49D0097819
:1033600029B1002001210027FFF70CFC03E099F8A8
:10337000611001FB00F70BF170050BF17C06304684
:1033800000F0ACF8A0B1380612D03046FFF7A2FF2B
:1033900001462846FFF7BEFF9BF8DA00FF2805D05C
:1033A0009BF8D90010B101388BF8D900013FE6E74E
:1033B00099F8400001280BD1380609D0DBF8081035
:1033C00031B12846FFF7A6FF0020CBF80800013FE7
:1033D00038060ED0DBF8A4000130CBF8A40099F831
:1033E00040000028F3D158460121012203F018FCC7
:1033F000EDE70BF170080027D8F80060002E48D0E8
:103400004046FFF767FF8246DBF8040098B3016887
:10341000B14230D199F8401031B99BF8D200012166
:1034200003F06AFCDBF804009BF8DA100446FF396D
:1034300003F069FC254664680F4414B12268B24267
:10344000F8D099F8401001290ED1D5E90312CBE943
:103450001912A98AABF86C1006E003F058FCDBF8EF
:1034600004004068CBF80400A842F6D1284603F0D7
:103470004EFCCBF80440DAF8000030B19AF80E1098
:1034800049075CBF043803F042FC304603F03FFCC0
:10349000B2E79BF8DA00ADF80270FF280ED13804CD
:1034A0000CD0BBF8D00069460DF102020A30ADF82D
:1034B000000004480068C36B01209847BDE8F88FFE
:1034C000DCF0002014F2002038460121012201F036
:1034D00097BC0268531C036011707047B0B5044D6F
:1034E00003F017FC2868246801F0A4FB2046B0BD57
:1034F00004F200202DE9F84F0C46054690F8607064
:1035000090F8618090F8626090F863B00120FEF757
:1035100094FD002D284618BF0120FEF78EFD95F87A
:10352000E90001281ED028BB06FB18700BFB08FA27
:1035300090FBF8F6ABF1010000FB08F000F1010987
:10354000D5F8F80000FB08F0206504F17000FFF7E3
:10355000C5FFA8B1C17C49070AD5216D406801317A
:103560002165F6E795F86100D5F8F81048436065E5
:10357000BDE8F88F00200121BDE8F84FFFF702BB3E
:1035800094F8D6000028F3D1BBF1000FF0D004F17D
:103590007C00FFF7A3FF4FF0010C5FFA89FE5FFA92
:1035A0008AF33106E4D0D5F8F810B1465FFA8CF60C
:1035B000012706FB0B1101FB08F121650028D7D07C
:1035C000FEB2764506D39E4204D8C27C5207CFD5C0
:1035D00001312165013740689E42EFD10028C7D0F4
:1035E0004E460CF1010CA9F10106DAE70020214654
:1035F000E0744846FFF78EBE01488078704700BFF0
:10360000B83A002010B52B220B234A4301FB03F4E8
:10361000042808BF01FB0324024931F810002044AC
:1036200010BD00BFA6320008024989780170002051
:10363000704700BF64EE0020169004F15000FEF7C2
:1036400083BD26272527252670B5204D03F067FB6F
:1036500006D0012905D051B9287EC0F340142EE0D0
:1036600070BD3CB12068002818BF012003E003F0C2
:103670005AFB24E0002003F05BFB266870784107CA
:1036800003D4287EC0F3001419E000F003010329DD
:1036900007D13178204603F04EFB717801F0030129
:1036A00000E00020012901D1012408E0002818BF12
:1036B00001200339B1FA81F1490901EA00042046E9
:1036C00021460022BDE8704003F060BBF2EE00200E
:1036D000D8F800700121FFF795BF00000C0027000B
:1036E0007CB504460D46002094F821108DF80700A3
:1036F000012910D11C4CE0601C48016821F0804178
:1037000001600DF10700FEF763FC03F05FFB012091
:1037100084F85C0026E0144E134694F8201094F8C8
:10372000222086F85C00204603F054FB20B10F48AD
:10373000016821F0804114E01020F16848810B48B5
:10374000012D05D094F82320036862F3D33303607E
:10375000026A0968103161F30F020262016841F0E8
:103760008041016000207CBDD8E20020940802481E
:103770000148002181707047B83A0020072836D8E8
:10378000DFE800F00A131D2704042C2F18480268F4
:1037900061F31342026070471548016841F0F0017F
:1037A0000160016841F4704120E011480C22016879
:1037B00062F307110160016862F30F3116E00C48F3
:1037C000426861F303024260426861F3071242609B
:1037D00070470748016841F4702107E004480C2253
:1037E00001E003480E22016862F31751016070473F
:1037F000BC08024802490A6860F319620A6070470F
:10380000BC0802482DE9FE4FCDE901218146D3E9EC
:1038100004011C4602F0DFFFDFF8B08307460125F4
:10382000D8F8400088F86950002818BF012088F8AF
:103830006800207A18B1A07EB0FA80F04509DFF860
:1038400090A300212C225046FEF702FD4FF0FF30DE
:1038500000212A4601230126AAF8000094F9090054
:1038600003F026FB207E242888F8650004D80A2867
:1038700088BF0226311804E0D64901EB400111F857
:103880004A1CD54E03F03AFB2A4603F03FFBD349CE
:1038900003F072FB0028C8F814004BD003F06FFB54
:1038A000AAF81E0003F072FBD4E90401CC4A03F02D
:1038B00071FB42D1D8F81400C84903F06FFB00280F
:1038C00000F0B880BB4607681821042207F11405F0
:1038D00003F092FBBAF81E00C1490A46084303F000
:1038E00090FB7869284378615F46934620880438C6
:1038F000AAF81C0080B210430422FEF7A9FCBAF813
:103900001C00062240EA0B0001682943016008F10F
:103910002800E168FEF756FC20689AF8031000784A
:1039200001F0E001C0F3801002318AF80310C8F8FA
:10393000300015E003F06DFB82E0BAF81E104FF680
:10394000FF734FF6FF7011430A681A430A60AAF822
:103950001C009AF8030000F0E00001308AF8030030
:10396000CB46FEF797F9012808BFFEF799F9D4E98D
:103970000410C8E91410207A657E88F8660045EACC
:10398000052003F049FBDFF85C9299F8020001285A
:1039900006D103F045FB8AF81B00012089F80300DB
:1039A000D4E9040103F0F6FA08BF042D07D1BAF8F0
:1039B0001C008B490843016841F000610160FEF77B
:1039C00069F901283D4608BFFEF76AF9607E0428C0
:1039D00004D1DAF8080003F029FB06E0824903F07D
:1039E0002AFBDAF8081021F07F410843CAF80800E2
:1039F00002980078012812D8306F316FC0F3800030
:103A000041F00401316788F8480078480278316F46
:103A10000AB321F004013167002101701EE0032880
:103A20001CD8306FC0F3800088F84800306F20F059
:103A3000040012E003F0EDFAD8F8140003F002FBE2
:103A4000D8F80C0020B103F0FDFA0020C8F80C00F3
:103A50000720BDE8FE8F41F0040030676448D0E9DC
:103A600002108AF813108AF80200E068D0B1B16938
:103A70004FF6FF72437991430279114441EA0321E1
:103A8000B161017842788378C07841EA022141EA45
:103A9000034141EA0060F06102980078B16960F387
:103AA0001041B161606853497D22CAF814000020BA
:103AB000886261688900B1FBF2F1BBF1000FC8F8C0
:103AC000341004D09BF81B00A0B100202FE0316B14
:103AD0004FF6FF7241F480613163B16B9143B16382
:103AE000F063B06B20F48030B063306B20F4F040B2
:103AF000306325E0B06B4FF6FF719BF805208843DB
:103B00009BF80410084440EA0220B063DBF8000090
:103B1000F0639BF81800B16B60F31041B163306B38
:103B20009BF8201061F3CE2030634FF48060316B3E
:103B300021F4806108433063706920F47030706153
:103B400001980C99006848B10198406830B1CAF8F2
:103B500004000198006820F07F400AE098F82500F2
:103B6000254BD8F820200128244808BF1346CAF85E
:103B700004309AF80B2040EA0260CAF80800029864
:103B80004078326B60F3020232632822306865F3BA
:103B900004003060DAF80C00034662F31F63227AF7
:103BA000002A18BF40F07F43D8F86000CAF80C30F4
:103BB00011B103F065FA02E0012102F037FE044979
:103BC00003F086FA064903F087BA00BFD8E2002066
:103BD0002CED0020DA3600080C080248E8EF00203F
:103BE00000000248B83A0020A63200082BF200205C
:103BF000E4E3002088E80020D6BE898E55555500A4
:103C0000B0B5044623488078012841D194F83F108C
:103C1000214894F8612094F86230056861F300054A
:103C20000560016821F4F8110160016821F07871E4
:103C3000016002FB03F14FF4781202EB414142684C
:103C4000490C61F35542426094F89110E56E0829E1
:103C50001EBF426861F30E324260416821F4006188
:103C60004160416821F4806141608DB105F1180027
:103C7000214603F03BFAB4F8380195F8D51041EA33
:103C8000002095F8231040EA016028622D68ECE7D7
:103C9000B0BD00BFB83A002008080248411E042801
:103CA00008BF0221C8B200EB4000024901EB8000CE
:103CB00042307047F4E00020F0B5264DD5F86CC0D6
:103CC000BCF1000F1AD095F87040012C04D1AD68FA
:103CD00015B16C6E013411D0844501D38C452ED9B9
:103CE0004FEA4C0500260CEB06078F420ED2AC19AA
:103CF000844201D38C4225D93E46F4E723B3834264
:103D000088BF18468B4298BF01461DE002256646D3
:103D100086420BD9BCFBF5F6864205D38E4203D80A
:103D200006FB05F4644512D00135F1E72BB183425F
:103D300088BF18468B4298BF01461F2005E000202F
:103D4000614602E006EB4C0100201180F0BD00202E
:103D50003146FAE750E30020F8B540F27126174AE1
:103D6000174B044614480025714340F2FA4600956B
:103D7000B142C06E92681B6838BF0E467D2707EBC4
:103D80008606B229B6FBF7F638BF0626D11800EB37
:103D900080038A19B22A104688BFC1EBC300B2EB78
:103DA000C30F98BF104600218022002303F080FA41
:103DB000A5802060F8BD00BF50E30020C8E40020CB
:103DC000D8390020F8B5002807460C4618BF012056
:103DD0001E46154603F09CFC3868002818BF0120D9
:103DE00003F096FC396806980A7800F0010002F0AA
:103DF000DF0242EA40100870300A3968C874280AA5
:103E00008E740D748C734874200AC8730020F8BD3A
:103E10000548817E012918BF7047407E0022C0F30B
:103E2000C000014602F0B2BFF2EE00202DE9FE4FC5
:103E30000D468146402000219046002402F0CBFC34
:103E4000DFF8D4A283464FF48070B44E00212C22B8
:103E50008DF80B40AAF86800687B01903046FEF7A9
:103E6000F7F94FF6FF703080287B24288AF8650028
:103E700005D801210A2888BF02210F1804E0A849AB
:103E800001EB400111F84A7CA64C616860F3050122
:103E90006160FDF7FFFE012808BFFDF701FFF8B2E2
:103EA00003F039FC0DF10B00FFF7BEFB9DF90B0091
:103EB00002F01BFD9C4903F05FF80028CAF81400CB
:103EC00000F02481018840890422CDF800B0C34667
:103ED000084400210438F08303F058F8F078B6F86D
:103EE0001E8000F0E0000130F070FDF7D3FE0128E5
:103EF00008BFFDF7D5FEA87B8C4F01281ED1DAF84C
:103F00001400894903F04AF8002800F0FB8001689A
:103F10004089042247180021381FFEF799F9844888
:103F200007EB0008814FF08B3843016868F30F01FD
:103F30000160F07800F0E0000230F07058F80700FF
:103F40004FF6FF710843402148F807000020CAE9F6
:103F50001410A87B8AF86600019840EA002003F05C
:103F60005BF8687B042803D1B06803F05FF802E0D7
:103F7000704903F0D4FB084300210422B060A888F4
:103F80000438B08380B23843FEF762F9B08B4FF645
:103F9000FF72384301681143016065496868DDF8C4
:103FA00000C008440430CAF818000198042805D15C
:103FB000B08B3843016841F00061016099F8090055
:103FC000BE4600F0FE00022808D1206FC0F380003A
:103FD0008AF84800206F20F0040020675648D0E996
:103FE0000210F174B0704FF6FF70A1692A68814326
:103FF00013795779194441EA0721A161117853785F
:104000009778D27841EA032141EA074141EA026107
:10401000E16199F8081099F80920A36962F3104347
:104020000529A3611FD1A16B99F8052021EA0000A1
:1040300099F80410084440EA0220A06399F80000AF
:1040400099F8011099F8022099F8033040EA01200C
:1040500040EA024040EA0360E06399F80A00A16B7D
:1040600060F31041A163A86834490022354B7061A8
:10407000B06861F31700A968B060314882629AF8AD
:104080002500DAF82020012808BF13467360880055
:104090007D21B0FBF1F0CAF8340099F80800216BDB
:1040A00060F30201216320686CF30400206026485D
:1040B0000078012802BF606B40F400406063F06844
:1040C0002821024661F31F62A97B7546002918BFAB
:1040D00040F07F42DAF86000F260BBF1000F02D0DE
:1040E00002F0CEFF02E0012102F0A0FB0B4902F03A
:1040F000EFFFD5F8080464F30F00C5F808040020AA
:10410000BDE8FE8FDAF8140002F09CFF02F081FF98
:104110000720BDE8FE8F00BFD8E200202CED002074
:10412000DA3600080C080248E8EF002000000248D8
:10413000FCFFFDB7A6320008E4E30020555555000A
:1041400088E80020D6BE898E6CF1002010B50028CA
:10415000044618BF0120FDF770FFD4E9260181F065
:10416000080281F02001024308430121B2FA82F2E1
:10417000B0FA80F0520940091043FEF703FDD4E97C
:10418000260181F02001084304BFA068002804D064
:10419000204603F0CFFA002010BD2046BDE81040B5
:1041A00001F064BCB0B50E4D0446A87E012818BFCE
:1041B000B0BD24B12068002818BF012000E0002015
:1041C00002F0B6FD2168687E49780A0758BF4108A9
:1041D00001F0010001460022BDE8B04002F0D6BD6A
:1041E000F2EE00202DE9F04F93B090F8E9A083465D
:1041F0004FF48010DFF87849C54BBAF1000F08BFC3
:104200004FF400200021C4E914014FF48070C4F879
:104210001CB09BF84821A4F86800DBE91A099BF858
:1042200061609BF8625004929BF863200792DFF86C
:1042300044295087000C90871420BAF1000F08BF62
:1042400013201A6822F00F021043186018201191F1
:10425000BAF1000F08BF10200190FDF71BFD0128E7
:1042600008BFFDF71DFDBAF1000F07D10DF14B009E
:10427000FFF7DAF99DF94B0002F037FB002E3046CC
:1042800018BF012002F0A4FA0020494611B10968C4
:104290000130FBE79BF8591001300139B1FA81F187
:1042A00049098840C1B2206E02F0C0FA05FB06F24F
:1042B0008046049808964FF6FF7782424FF0000040
:1042C00038BF01200799002918BF01210392CDF8BA
:1042D0002480CDF83CB0CDF818A00840002600247A
:1042E000059002F01F0002904046B9F1000F00F067
:1042F000CB820B94FDF7CEFC012808BFFDF7D0FC64
:1043000009F118000C90DFF87808807878B90C98DB
:10431000594602F0EBFEBBF8380199F8D52099F820
:10432000231042EA002040EA0160C9F82000FDF7AE
:10433000B1FC012808BFFDF7B3FCBAF1000FCDF8BE
:10434000409000F0E98009F1880A0A965046FFF78C
:10435000C5F8A0B9079890B1DDE9031081420ED2EB
:104360009BF863405CB19BF861609BF862809BF8AE
:1043700048715046FFF7B2F8002800F02882DFF8B5
:1043800004580024089EE0B2B0421AD248460121E7
:1043900002F047FB0746284602F05FFB7989386048
:1043A000042202F061FBFDF775FC012808BFFDF750
:1043B00077FC3868002818BF012002F009FA0134A0
:1043C000E1E75846514611AA334603F0FDF9BDF81E
:1043D0004410504BA9F83610428903321A40036842
:1043E000033323F003031A4422F8041C059900291F
:1043F00000F021819BF863209BF861E09BF862103C
:104400009BF848314FF6FF7740684FF000080126CF
:104410004FF0000CA9F83470541E01FB1E3104FB50
:104420000EF40E9102FB0EF101345FFA81FA5FFA8D
:1044300084F90121002800F00681F4B24C4560D3D4
:1044400054455ED8109A938EBB4205D103884589A6
:10445000109A2B44043B938643892E4A0768DD1C3F
:104460001540FA1C22F003022A44151F9BF859201C
:10447000012A0BD195F803B00BF00302022A05D1F3
:10448000DA19527812B94BF00402EA70CBB200226A
:10449000012B08BF721EDDF83CB0AA709BF86820A3
:1044A000042A0AD1BBF86A20023A18BF0122EE782A
:1044B00006F0F70646EAC202EA70B8F1000F4FF6BE
:1044C000FF7710D0B8F80A20124D468903322A40EF
:1044D000D8F80050033525F003052A4405883544F3
:1044E000043D22F8045C01310CF1010C734508BF56
:1044F00001210E9A5FFA8CF3D2B29A4200F08C81BD
:104500008046661CA24508BF0126406892E700BFAE
:104510000C080248FCFF010011AA09F1700158467D
:10452000089B03F051F9BDF84410E14BA9F8341091
:1045300042890068033203301A4020F0030010441F
:1045400020F8041C0798002800F0928010980A9622
:104550009BF860509BF861409BF862709BF8636029
:104560004FF6FF797C30FEF7B9FF80461098A0F82F
:104570003690DDF8409007FB145099F8D6100029CA
:1045800000F080805FFA80F800274FF00009C145F5
:1045900069D2DFF8F40503F07BF90028054618BF5F
:1045A000012002F015F9284600211022FDF750FEE7
:1045B0005846294603F06EF92868002818BF0120E4
:1045C00002F006F910984FF6FF71C08E884206D1AE
:1045D00028886989109A0844D5600438D0862E68E6
:1045E0006C891EB95846294603F054F9E01CB049BD
:1045F0000840F11C21F003010844002104388170B7
:104600009BF86810042906D1BBF86A10023918BF5C
:10461000012103F042F957B17889A5496A897D6083
:1046200003F042F929881144043920F8041C09F1E7
:1046300001092F46ABE7DDF818A04FF6FF770A9E79
:10464000A9F83470F5E00E995FFA8CF0C9B2814296
:1046500011D103F031F9B8F1000F0A9E40F0E0806B
:104660004FF000080AE0DDF840900020786098E004
:10467000A9F83670DDE003F01FF90A9E002002F071
:10468000A7F8CDE0711E06FB04FB002761434D1C1B
:1046900090FBF4F10BFB01FA080676D0AAEB0B00B5
:1046A00001244FF001090E910D90B8F1000F65D073
:1046B000E8B2E6B2864255D35FFA8BF0864251D813
:1046C000D8F8000018B90F98414603F0E3F81098A5
:1046D0004FF6FF71C08E884207D1B8F80000B8F8D5
:1046E0000A10084410990438C8860021B9F1010F56
:1046F0006F4A08BF611EB8F80A0003301040D8F8AE
:104700000020033222F00302104400F8021CB9F129
:10471000010108BF89460F9991F86810042908D152
:104720000F990438B1F86A10023918BF012103F05B
:10473000B4F85FB178895E49B8F80A2003F0B4F89C
:10474000B8F800101144043920F8041CD8F800000F
:10475000B8F80A1008445749401A18BF012002F05F
:1047600037F8474601345FFA8BF0D8F80480AAF195
:10477000010A864299D1DDF834A001E04FF000082B
:104780000E99DDF84090013986E75FEA0A6002D0B1
:10479000002002F01DF8DDF83CB0DDF818A0002F75
:1047A0006BD0788942490A9E0330084039684FF639
:1047B000FF7703F086F899F8D600D0B399F81B007C
:1047C000029900F0E000084489F81B0031E008FB82
:1047D000167004FB06F190FBF6F0002601FB00F4D6
:1047E000E0B2F1B281423FF4CAAD4846012102F085
:1047F00018F90746E34802F030F900213860798162
:1048000020B1043800210422FDF722FD504639462C
:10481000FEF780FD0136E3E703F04EF880460A9E7E
:10482000B8F80A00D54903300840D8F8001003F062
:1048300048F8FDF72FFA012808BFFDF731FA9BF879
:1048400059000B9CE5B2012806D109F150025846E7
:104850000C992B4603F03CF8C5EBC50009993822AA
:1048600001EBC00801200C99A84006434046FDF723
:10487000A9FCD9F80090013437E5002001F0A8FF29
:104880000A9E4FF6FF7796E7FDF704FA012808BF66
:10489000FDF706FABAF1000F0ED0BAF1010F40F0A1
:1048A000C780B7488078002840F0C2800EE000BF83
:1048B000FCFF0100000003489BF87800002800F08E
:1048C000B7809BF89200012840F0B2809BF8E90085
:1048D0000BF19409012828D1DBF87C0088B9AA489B
:1048E00002F0D6FF0028CBF87C0018BF012001F0B1
:1048F0006FFFDBF87C0000211022FDF7A9FCDBF83C
:104900007C00006828B99F4802F0A7F8DBF87C100B
:104910000860002818BF012001F05AFFDBF87C0076
:1049200004224189006802F09FF8DBF87C40484689
:104930005946354608F138082768668902F0D6FBE3
:104940009BF897009BF89F209BF8681000F0E00010
:10495000120601308BF89700BBF8380142EA0020BC
:10496000864ACBF89C00F01C1040FA1C22F003028F
:104970001044043804290BD1BBF86A10023918BF5F
:104980000121C27822F0080242EAC101C17000E0B0
:10499000C1784FF6FF73002201F0FC012E46038020
:1049A0008270C1709BF8E910E9B19BF8A420ABF8C4
:1049B000B0309BF8591002F0E00201328BF8A420CD
:1049C000228863891A44043A0129ABF8B2202AD11B
:1049D0009BF86120DBF8F83000215A439BF84931FD
:1049E000CBE9331211E09BF85910ABF8B230ABF8B9
:1049F000B000012917D19BF86120DBF8F8409BF843
:104A0000443000216243CBE93321C17801F0FB013E
:104A1000C1709BF85900012805D10BF1CC02584612
:104A2000494602F055FF404649463822FDF7CAFB89
:104A30005648514B0168099A62F30F0101605049D1
:104A4000897869BB9BF83F209BF861309BF86240F6
:104A50009BF89110D0F8005462F30005C0F80054A0
:104A6000D0F8002422F4F812C0F80024D0F8002472
:104A700022F07872C0F8002403FB04F24FF478139C
:104A800003EB42423C4B1B68520C62F355433A4ADB
:104A900008291360384B1EBF1A6861F30E321A6082
:104AA000BAF1000F16D0BAF1010F2BD13449897831
:104AB00069B9196841F4006119609BF891101A688E
:104AC00022F48062082908BF02F580621A600BF2A6
:104AD000491110E09BF878200BF144013AB19BF8A2
:104AE0009220012A03D11A6842F4006202E01A6897
:104AF00022F400621A60D0F80024097861F34502BC
:104B0000C0F800249BF845211B4B9BF85910DB682B
:104B100062F34513184A0129D360174BD0F8FC23E0
:104B200066F31E02C0F8FC2316D1016E012221F0AB
:104B300001010166816F62F302018167016E019AD2
:104B400021F0180111430166032001F0E5FF0A4B33
:104B5000186F40F008001867186F094940F01000FE
:104B6000186700208870002013B0BDE8F08F00BFE8
:104B7000D8E2002088E800200C080248FCFF010071
:104B8000B83A0020E8EF002078E20020080402484C
:104B90000548817E012918BF7047007E0022C0F3BE
:104BA0008010014602F0F2B8F2EE002080B503203A
:104BB00003F06DF8002080BD70B5114E044602F080
:104BC00029F8217A206821B10E4DA0B10020207271
:104BD00011E038B16168884207D041682160002146
:104BE000416007E003F0DAF805E0012121720021BD
:104BF000C4E900110546306800F01CF8284670BD75
:104C000004F20020E0390020B0B5064D02F081F832
:104C1000207A08B1044C00E02468286800F00AF803
:104C20002046B0BD04F20020E039002080F48070FE
:104C30000843704780B5032003F007F8002080BDCB
:104C40002DE9FC4100228C4623498DF807200B6892
:104C500090F82140012C09D123F0804008600DF12B
:104C60000700FDF7B5F902F0B1F832E090F8204006
:104C7000DFF868E088461A4D64F35B530B6000234D
:104C8000202B0FD003EB43065EF806707644D6E97E
:104C900001167A59C45804338A43B4402140114460
:104CA0007951EDE7D8F80000BCF1020F40F08040E8
:104CB000C8F8000006D0BCF1010F0AD1D8F80000F6
:104CC000102102E0D8F800000A2161F34910C8F869
:104CD00000000020BDE8FC8194080248B84706089F
:104CE0000000024800F108012846FDF7A9B90000BC
:104CF000000000002DE9F8430746B0F88A4090F81C
:104D0000355090F844600846884603F04CF8294630
:104D1000324600F053F9B7F8DA90D7F8D450D7F804
:104D2000F8700646002F384618BF012001F0EFFC4E
:104D3000002D284618BF012001F0E9FC05F15000C4
:104D400007F1500103F034F806F5967240F2E241A3
:104D5000904238BF04FB01000B49884202D900226F
:104D600000210AE00949884202D81E21002202E0FF
:104D70004FF496710122B0FBF1F140464B4603F02F
:104D800026F80020BDE8F883D47E2500C3BF0300C9
:104D90002DE9F041194F0646B87E012818BFBDE83D
:104DA000F08190460D4626B13068002818BF0120DA
:104DB00000E0002001F0BCFF34686178080703D4EC
:104DC000787EC0F3800013E0480701D4002006E09D
:104DD000237830462946424603F01AF861788A075C
:104DE00005D4002818BF012000EA910000E001204E
:104DF00001460022BDE8F04101F0C8BFF2EE0020FC
:104E00002DE9F041002805460F4618BF01209046C5
:104E100003F030F82C4802F03BFD0028044618BF90
:104E2000012003F027F82046002114220026FDF778
:104E30000FFA204600211022C4E90066FDF708FAA7
:104E400037B1D5F8A400E6740130C5F8A40037E006
:104E5000D5F8EC30E878D5F878C0B8F1010F00F05B
:104E60001F0093F8506006D1D5F818213EB14433A5
:104E700005F5B07706E0D5F81C21002EF7D04333B6
:104E800005F25F174FF48E76B8F1010F08BF4FF4AB
:104E90008C76A9591B780131A95139786FEA0C0633
:104EA000B2FBF1F58A1A334405FB0122B0FBF1F1A4
:104EB0002B4423740023013AE37401FB1200607455
:104EC0002046BDE8F08100BFA0E20020F8B506460C
:104ED00018480D46817E29B12BB1407E00F00101BA
:104EE000084622E0F8BD144626B13068002818BFF5
:104EF000012000E0002001F01BFF376879784807A7
:104F000001D4002006E03B7830462946224602F0D4
:104F10007FFF7978CA0702D14A0703D510B1012172
:104F2000012002E0C1F3400100200022BDE8F8406A
:104F300001F02CBFF2EE002010B5044608461146E1
:104F400002F036FF08494FF49672084B884238BF8A
:104F50001E22B0FBF2F10022984288BF01222046B7
:104F6000BDE8104002F089BFC4BF0300C3BF030007
:104F7000B0B5002805460C4618BF012002F0C8FB5A
:104F800015F8050F04F03F028107C0F3810148BF07
:104F90000631C0074FF0070008BF01200844295C14
:104FA00001F0C00111442954B0BD2E00024901286E
:104FB00018BF043108687047DCE300200230022982
:104FC00006D0012909D180B2402101EBC000704711
:104FD00080B2242101EB80007047022A08D0012A08
:104FE00011BF002080B24FF4D77101EB0010704761
:104FF00080B24FF4147101EB80107047B0B5134DBF
:1050000090B102201446FEF7B9FB0120296860F335
:1050100019612960CCB10E49012C08700DD0022C09
:1050200013D14FF460000AE028686FF0407140F43B
:10503000702028604FF0007003E04FF440006FF4E0
:1050400070012A68114008432860B0BDBC080248BE
:105050002BF20020DBF82400CBF828804169404681
:105060000847704780B50749CA1C904204D30D31E8
:1050700088429CBF007880BD00200121FDF782FDA1
:105080000E2080BD50F10020B0B504462248837E3A
:1050900053B152B1407E00F0010400222146204667
:1050A000BDE8B04001F072BEB0BD012903D041B9E6
:1050B000007EC409F1E73CB12068002818BF012038
:1050C00003E001F030FE1DE0002001F031FE256814
:1050D0002978042905D16978204601F02CFE297829
:1050E00000E00020012903D00024042901D100B1EF
:1050F0000124022905D0032907D00429CDD1002895
:10510000CBD1002400210022C9E76A78002A144686
:1051100018BF01240021C2E7F2EE00202DE9F04F74
:1051200089B005910746D2E90201144601F053FB0C
:105130000546DFF8A8054FF6FF7606601E20FCF74F
:1051400091FDDFF89CB5DFF89C85002000212C2222
:105150008BF800004046FDF77BF8E448002114225C
:105160001030FDF775F8A8F8006002F0A1FEDBF83A
:10517000400010B101208BF86800059994F82500D3
:10518000897801398BF86900DBF8600001290BD8B8
:10519000022101F04BFB0190383000213822A8F8A1
:1051A0000000FDF755F803E0012101F03FFB0190FD
:1051B000D8F82010059A107800F0010021F0007155
:1051C00041EA4060C8F8200020F08070517801F07A
:1051D000010140EA0160C8F8200094F82100042889
:1051E00002D14FF0614007E0DFF8001531F8100000
:1051F0004FF0E85101EB0060DFF8F414BC4ED1E948
:10520000022188F8132088F80210D8F8081021F03D
:105210007F410143C8F8081021690631C8F814100D
:10522000396821F07F410843C8F808007868C8F859
:105230000400FB2088F80F00306865F3040030603C
:1052400020788BF865000A28716860F305017160A9
:105250004FF0010188BF022108440122C0B20121A0
:1052600001F054FE206A02F04FFE94F92400002160
:1052700001220123002701F01BFE70694FF0000995
:105280004FF0000A20F0806070619A4ED4E902016C
:1052900080F4807008434FF0000008BF4FF0FF30EB
:1052A0000490002502940020069000200390002026
:1052B0000890207D04990844824580F06D81FCF7B8
:1052C000E9FC012808BFFCF7EBFC089828B1BAF10B
:1052D000000F0AD00026012030E00FB3DFF81C14C5
:1052E000384601F05BFE074621E08149486940F0FD
:1052F00080604861DFF80814384601F04FFE00284E
:10530000074618BF01200121089101F061FACBF88E
:10531000147038880438A8F81E00012003908AE031
:10532000DFF8D81301F028FE0746CBF81400002F51
:105330003FD0BAF1000F70D00126002008900698E7
:105340000795C0B2012832D822465C46916951F8CF
:105350002AB066498B452ED0D2E9021281F0800135
:1053600011430ED1BAF1010F08BF012809D1E1485C
:105370004844017941F01001017102988069D0F828
:1053800004B05D460021042255F8048D2846FCF740
:105390005FFF4FEA98602968DFF8488360F39A61FD
:1053A000D54829600BEB0005A346029C20E04D4642
:1053B00089E000278BE7069948F20825080608BF10
:1053C0004FF402450131B9F5024F0691ECD04FF68A
:1053D000FF70C849A3468145C0481ABFC0F8009075
:1053E000484600680844029C017901F0EF01017110
:1053F000C04959F8010065F30F0049F8010094F81D
:10540000200004285FD1608C012857D002285AD18F
:10541000B849685820F0006054E038880422043805
:10542000A8F81E0080B27989084400210891304311
:105430000021FCF70DFFA069AB49006888421ED02F
:105440000438A8F81C0080B2311830434968C2788B
:1054500092071EBF11F47F4101218BF80010042236
:1054600000210568FCF7F4FEB8F81C00AA0E3043D2
:10547000016862F39A610160B8F81C9006E0069832
:105480004FF402490130A8F81C90069094F82000CF
:10549000B8F81E50042852D1608C012807D0022889
:1054A0004DD149EA0600016821F0006104E049EAB3
:1054B0000600016841F00061016040E08D496858D4
:1054C00040F000606850BEB13E6800210422301FE9
:1054D000FCF7BEFE8848079AA9463044854E91598C
:1054E000054660F30F01915129E000BF0082024898
:1054F0000C08024800000248BAF1010F1AD80398BC
:105500007C4ED0B17E49384601F048FD0028074660
:1055100018BF012001F05CF9079B4FF6FF71764A36
:10552000A94698598843396811448AB20D461044F7
:10553000985104E0A9466F4E00E0A946079DA06976
:1055400050F82A00017801F00301032908D10179FC
:1055500041F02001222902BF67490844CBF8180016
:1055600005988078012814D1301D59F80010C1F336
:10557000072171B159F8062052010AD44FF4806313
:1055800059F8002003EB0121090A61F30F2249F8C1
:1055900000200AF1010A8CE6D4E9020180F480704F
:1055A00008430CD1069FF8B201280BD8A0694E49D8
:1055B00050F82A00884207D04F49084418E048466E
:1055C000069F43E048462AE00137B9F5024F0DD067
:1055D0004FF6FF70814541481ABFC0F80090484619
:1055E00000683044017901F0EF01017148F20820B0
:1055F00059F8061060F30F0149F8061094F82010CE
:1056000004290CD1618C012905D0022907D18159C7
:1056100021F0006102E0815941F00061815105995A
:105620008978012912D1311D4258C2F307226AB18B
:1056300083595B010AD4AC464FF48065435805EBAF
:1056400002226546120A62F30F234350390605D041
:10565000F9B2012907D1BAF1000F04D081594FF6F0
:10566000FF721143815105988078012808D198F87C
:105670000F004FF0806101EB0060000E88F80F0012
:105680004FF6FF7085421EBFA9590843A851D4E9BF
:1056900002013822CBE914010AF01F0098F8031028
:1056A000019C01F0E001084488F80300B8F81C00F0
:1056B0003043C17801F0FC01C17020464146FCF73F
:1056C00081FDD6F8080464F30F00C6F808041E2014
:1056D000FCF7CAFA002009B0BDE8F08FC03A0020FC
:1056E000D8E200202CED002000820248A6320008FB
:1056F000E4E3002000000248FCFFFDB7E8EF0020D3
:10570000E0EF00202DE9F84F83467A488A46006E84
:1057100001F0B0F90446DAE90201DBF80C809AF8EE
:105720001E9080F08000084394F8201004F12100BE
:1057300022D141F0800102F00FFC877890F800C080
:1057400043EA012143784CEA0323927841EA02417B
:10575000C27847EA0222074617F8046F43EA02427A
:10576000437946EA0323BE78FF7846EA072643EAF0
:10577000064323F0800320E001F07F0102F0ECFB00
:105780008678C77846EA072643EA0121437892786B
:1057900041EA0241027842EA0322437942EA0642A0
:1057A000064616F8047F47EA0323B778F67847EAF7
:1057B000062643EA064343F08003160E0270C670C5
:1057C000160C120A4270024686701E0E02F8043F42
:1057D000D6701E0C96701A0A42710A0A427200F8BC
:1057E000081F090C10228170201D0BF11001FCF71D
:1057F000E9FC9AF81C00DBF8081094F826204FEA20
:105800001867DFF8F48094F82BC0084494F820104F
:10581000E0619AF81D3001F0800103F07F03194424
:1058200084F82010214611F8253FDBF80CE043EA0C
:1058300002228B78CE7843EA0623264606F821EF2B
:1058400042EA0342734667F31F63F7701D0C69F366
:1058500006021B0A0A70B57084F82230DBF80000DB
:105860006061DBF8040084F822300A70B570F770CC
:1058700086F800E0A061B8F81C0060801F48104066
:10588000030C00F580708B700023000ACB704FF47E
:10589000600184F826004FEA0C4001EA0C4184F8CC
:1058A0002900012084F82A0001F58021090C84F8E0
:1058B0002B10B8F81E10218011490A6822F001024D
:1058C0000A608A6960F302028A610A6822F018029B
:1058D0000A60D1F8A02360F345020320C1F8A02399
:1058E00001F01AF90748016841F008010160BDE8BC
:1058F000F88F00BFD8E200202CED0020FF80800050
:10590000680402487C0802482DE9F04385B0D0E9DC
:10591000344590F835608846002C204618BF012099
:1059200000F0F5FE002D284618BF012000F0EFFE24
:10593000D4F8E0000DF108090122D0E91401CDE905
:10594000020148469621FCF7C5FAD5E91401002565
:10595000CDE90001304602F006FB6E46411C0122F3
:1059600002F004FB94F86170D4F8F84002F001FBF7
:10597000B0F5167F0146104A38BF0021914201D987
:1059800000210AE00D4A914202D81E22002502E0C1
:105990004FF496720125B1FBF2F1B0F5167F04FBCE
:1059A00007F340462A4638BF002302F0E6FA0020FB
:1059B00005B0BDE8F08300BFA8FD4A00C37F070023
:1059C00010B5184B9C7E74B102280DD0012812D05E
:1059D00068B1032808BF002A06D0042811D1187E18
:1059E000C0F3C00416E010BD012904D039B9187EF7
:1059F00000F001040EE0187EC0F340040AE0002429
:105A000008E0032804D11AB1187EC0F3800401E035
:105A100001F089F9204621460022BDE8104001F03E
:105A2000B5B900BFF2EE002089F82D0009F123007E
:105A300002F0E2BA0148002101667047D8E2002076
:105A400010B500EB40000649064B51F8202001EB51
:105A50008000D458406824EA0000D05010BD00BF38
:105A60008C6506080000024800F0BEBB2DE9FE4F21
:105A700004460F20FCF7F6F8002C204618BF012042
:105A8000FCF7DBFADFF8A4B20420D4F874A084F8A1
:105A9000A000DBF82C0020B102F08AFC08B11F2620
:105AA0000CE1D4E9269515F0280F08D0DBF8280082
:105AB000A04204D1002084F89100CBF828000320F4
:105AC00002F0D4FCDBF82800D0B190F89110012945
:105AD00016D1D0E9261281F08043134303D189F017
