:020000040800F2
:10000000000C002075530908555D0908B15D090809
:10001000AF5D0908B35D0908B55D090899AA09082B
:10002000000000000000000000000000095F080858
:10003000B75D090800000000B15E0808DD4C080843
:100040009DAA0908A1AA0908A5AA0908A9AA090838
:10005000ADAA0908B1AA0908B5AA0908B9AA0908E8
:10006000BDAA0908C1AA0908C5AA0908C9AA090898
:10007000CDAA0908D1AA0908D5AA0908D9AA090848
:10008000DDAA0908E1AA0908E5AA0908E9AA0908F8
:10009000EDAA0908F1AA0908F5AA0908F9AA0908A8
:1000A000AB790808FDAA090801AB090805AB0908E6
:1000B00009AB090809DD08083FDD080823DD080849
:1000C000EDDC080853590908715909080DAB0908F6
:1000D00011AB090815AB090819AB09081DAB0908D4
:1000E00021AB090825AB090829AB09082DAB090884
:1000F00031AB090835AB090839AB09083DAB090834
:1001000041AB0908B95D09088D590908D38308086E
:100110000184080845AB090849AB09084DAB09083B
:1001200051AB090855AB090859AB09085DAB090883
:100130000559090861AB090865AB090869AB0908ED
:100140006DAB090871AB090875AB090879AB0908F3
:100150007DAB090881AB090885AB090889AB0908A3
:100160008DAB090891AB090895AB090899AB090853
:100170009DAB0908A1AB0908A5AB0908A9AB090803
:10018000ADAB0908B1AB0908B5AB0908B9AB0908B3
:10019000BDAB0908C1AB0908C5AB0908C9AB090863
:1001A000CDAB0908D1AB0908D5AB0908D9AB090813
:1001B000DDAB0908E1AB0908E5AB0908E9AB0908C3
:1001C000EDAB0908F1AB0908F5AB0908F9AB090873
:1001D000FDAB090801AC090805AC090809AC090820
:1001E0000DAC090811AC090815AC090819AC0908CF
:1001F0001DAC090821AC090825AC090829AC09087F
:100200002DAC090831AC090835AC090839AC09082E
:100210003DAC090841AC090845AC090849AC0908DE
:100220004DAC090851AC090855AC090859AC09088E
:100230005DAC090861AC090865AC090869AC09083E
:100240006DAC090871AC090875AC090880AD0900EE
:10025000741D0008F80D0008801C00081C0E000822
:10026000681800083C0E000838190008580E0008ED
:10027000E00D00087C0E0008B4130008A00E000872
:1002800000000000454E440010550008000000002A
:10029000145500089D570908000000004C5500083F
:1002A0000000000054550008A15709080000000094
:1002B000905500080000000098550008A55709084F
:1002C00000000000B055000800000000B455000810
:1002D000A9570908000000000858000800000000A5
:1002E00010580008C1580908000000000000000074
:1002F000454E4400000000454E44000074686520EF
:10030000706172616D657465722025732069732058
:100310006E6F7420666F756E642C20706C656173EF
:100320006520636865636B2074686520616C676F26
:1003300020646F63756D656E746174696F6E206F94
:10034000722075736520417564696F416C676F5FDA
:1003500064756D70416C676F54656D706C61746528
:10036000282E2E2E2920746F207072696E742070D2
:100370006172616D6574657273206465736372691F
:100380007074696F6E73000054434D20202000008C
:1003900052414D494E54000052414D4558540000C1
:1003A00088030008000000000000000000000000BA
:1003B000000000000000000000000000000000003D
:1003C0009003000801000000000000000000000091
:1003D000000000000000000000000000000000001D
:1003E0009803000802000000000000000000000068
:1003F00000000000000000000000000000000000FD
:10040000202020202573203A207265717565737451
:1004100065642025366420627974657320696E20D6
:10042000253364206D616C6C6F63202D20616C6CD2
:100430006F63617465642025366420627974657326
:1004400020696E20253364206D616C6C6F630A0037
:100450006368756E6B73546F74616C52657175650A
:1004600073746564416C6C6F6353697A65203D3DBC
:10047000206368756E6B73546F74616C416C6C6F44
:100480006361746564416C6C6F6353697A650000E5
:10049000433A5C446174615C74656D705C424C45C8
:1004A0005F537065616B65725F76616C69645C5304
:1004B000544D33325742412D424C452D4170706CA2
:1004C00069636174696F6E735C4D6964646C6577B0
:1004D000617265735C53545C417564696F2D4B693F
:1004E000745C7372635C68656C706572735C616C7C
:1004F000676F735F6D656D6F72795F757361676547
:100500002E6300006368756E6B73546F74616C4E7C
:10051000625265717565737465644D616C6C6F636F
:10052000203D3D206368756E6B73546F74616C4E33
:1005300062416C6C6F63617465644D616C6C6F6378
:100540000000000020202020546F74616C20203AAD
:1005500020202020202020202020202536642062FA
:100560007974657320696E20253364206D616C6C2D
:100570006F630A000A617564696F2D636861696E53
:10058000206368756E6B733A202020202020202085
:10059000202020202020202020202020202020205B
:1005A000202020202020202020202020202020204B
:1005B00020202020202536642062797465730A008B
:1005C000616C676F546F74616C526571756573749B
:1005D0006564416C6C6F6353697A65203D3D2061B1
:1005E0006C676F546F74616C416C6C6F63617465A0
:1005F00064416C6C6F6353697A650000616C676F6E
:10060000546F74616C4E6252657175657374656484
:100610004D616C6C6F63203D3D20616C676F546F62
:1006200074616C4E62416C6C6F63617465644D61A2
:100630006C6C6F63000000006772616E64546F74CD
:10064000616C526571756573746564416C6C6F6340
:1006500053697A65203D3D206772616E64546F7402
:10066000616C416C6C6F6361746564416C6C6F6349
:1006700053697A65000000006772616E64546F749C
:10068000616C4E625265717565737465644D616C21
:100690006C6F63203D3D206772616E64546F7461BE
:1006A0006C4E62416C6C6F63617465644D616C6C1F
:1006B0006F630000616C6C20617564696F2D636805
:1006C00061696E20616C676F733A202020202020C2
:1006D000202020202020202020202020202020201A
:1006E000202020202020202020202020202020200A
:1006F000202020202536642062797465730A00006A
:100700000A616C6C20617564696F2D636861696E44
:10071000206368756E6B7320616E6420616C676F17
:10072000733A0A0020202020546F74616C20203A14
:100730002020202020202020202020253664206218
:100740007974657320696E20253364206D616C6C4B
:100750006F630A0A0A0000000A616C6C206175640C
:10076000696F2D636861696E206368756E6B7320B5
:10077000616E6420616C676F733A20202020202016
:100780002020202020202020202020202020202069
:10079000202020202020202020253664206279740B
:1007A00065730A0A0A00000041636F757374696318
:1007B000202D20466F6C6B00666972547970657CE1
:1007C000307C7C66697253697A657C35307C7C67E5
:1007D00061696E496E746572706F6C4C696E6561AB
:1007E000727C307C7C666972526573706F6E736563
:1007F00043757276657C7B2730273A5B302C305D01
:100800002C2731273A5B34302C312E355D2C2732A2
:10081000273A5B3230302C2D315D2C2733273A5B61
:10082000353030302C335D2C2734273A5B32303072
:1008300030302C325D7D0000436C6173736963005E
:10084000666972547970657C307C7C666972536924
:100850007A657C35307C7C6761696E496E7465723F
:10086000706F6C4C696E6561727C307C7C666972FD
:10087000526573706F6E736543757276657C7B2706
:1008800030273A5B302C305D2C2731273A5B3630ED
:100890002C335D2C2732273A5B3330302C305D2CE3
:1008A0002733273A5B323030302C305D2C27342709
:1008B0003A5B383030302C312E355D2C2735273AD5
:1008C0005B32303030302C335D7D0000456C656329
:1008D00074726F6E69630000666972547970657C2A
:1008E000307C7C66697253697A657C35307C7C67C4
:1008F00061696E496E746572706F6C4C696E65618A
:10090000727C307C7C666972526573706F6E736541
:1009100043757276657C7B2730273A5B302C305DDF
:100920002C2731273A5B36302C335D2C2732273A7F
:100930005B3135302C315D2C2733273A5B33303037
:100940002C2D325D2C2734273A5B313530302C3357
:100950005D2C2735273A5B333030302C312E355D16
:100960002C2736273A5B383030302C325D2C273735
:10097000273A5B32303030302C335D7D0000000090
:1009800048697020486F7000666972547970657CA0
:10099000307C7C66697253697A657C35307C7C6713
:1009A00061696E496E746572706F6C4C696E6561D9
:1009B000727C307C7C666972526573706F6E736591
:1009C00043757276657C7B2730273A5B302C305D2F
:1009D0002C2731273A5B36342C335D2C2732273ACB
:1009E0005B3330302C305D2C2733273A5B31353088
:1009F000302C335D2C2734273A5B353030302C30A7
:100A00005D7D0000506F7000666972547970657C7E
:100A1000307C7C66697253697A657C35307C7C6792
:100A200061696E496E746572706F6C4C696E656158
:100A3000727C307C7C666972526573706F6E736510
:100A400043757276657C7B2730273A5B302C305DAE
:100A50002C2731273A5B36302C335D2C2732273A4E
:100A60005B3235302C305D2C2733273A5B37303002
:100A70002C305D2C2734273A5B313230302C322E2B
:100A8000355D2C2735273A5B333030302C305D2CE8
:100A90002736273A5B393030302C312E355D2C2704
:100AA00037273A5B32303030302C335D7D00000028
:100AB000526F636B000000006C696E65617220709C
:100AC00068617365000000006D696E696D756D2069
:100AD00070686173650000006672657175656E63AC
:100AE000790000006761696E5F64420072616D5455
:100AF0007970650070726573657400006669725480
:100B00007970650066697253697A6500313030002A
:100B10006761696E496E746572706F6C4C696E6561
:100B200061720000666972526573706F6E7365431F
:100B300075727665000000007B7D00006E62426188
:100B40006E64730073616D706C696E675261746579
:100B50000000000070526573706F6E73655F6442D1
:100B6000000000006D6F644D696E5F64420000001C
:100B70006D6F644D61785F6442000000A807000853
:100B8000B80700083808000840080008CC0800082A
:100B9000D80800088009000888090008040A00082D
:100BA000080A0008B00A0008B807000800000000A2
:100BB00000000000B80A000800000000C80A000891
:100BC000010000000000000000000000D80A00083A
:100BD00062A3090862A309080000000000000000E9
:100BE00000000000060000000000000000000000FF
:100BF0008EE10608000000000080BB46E40A000801
:100C000062A3090862A309080000000000000000B8
:100C100000000000060000000000000004000000CA
:100C20008EE106080000A0C20000A0410000000004
:100C300000000000000000000000000000000000B4
:100C400000000000000000000000000000000000A4
:100C5000000000000000000000000000EC0A000896
:100C600062A3090862A30908000000000000000058
:100C7000030000000100000008BC06089C01000001
:100C80008EE106080000000002000000F40A0008DF
:100C900062A3090862A30908000000000000000028
:100CA00080010000010000007C0B00080000000033
:100CB0008EE106080000000000000000FC0A0008A9
:100CC00062A3090862A309080000000000000000F8
:100CD0000300000001000000B40B00080200000047
:100CE0008EE106080000000001000000040B00086F
:100CF00062A3090862A309080000000000000000C8
:100D000000000000030000000000000004000000DC
:100D10000C0B000800000000C8000000100B0008C9
:100D200062A3090862A30908000000000000000097
:100D300000000000010000000000000001000000B1
:100D40008EE106080000000001000000240B0008EE
:100D500062A3090862A3090862A309080000000051
:100D60000400000008000000CC0B00080800000090
:100D7000380B0008320000000800000062A30908D8
:100D80003C0B0008000000000500000062A30908F9
:100D9000440B0008040000000600000062A30908DC
:100DA000540B0008080000000700000062A30908B7
:100DB000640B0008180000000600000062A3090888
:100DC000700B00081C000000060000000600000078
:100DD0005C0C0008A0010000050000007C0D00086C
:100DE000CC0D000800000000D80D0008ACBE0608BD
:100DF000586A082000000000417564696F4368610B
:100E0000696E5772705F73746572656F326D6F6E65
:100E10006F5F666163746F72790000004175646989
:100E20006F436861696E5772705F726573616D7050
:100E30006C655F666163746F727900004175646907
:100E40006F436861696E5772705F6D69785F666144
:100E500063746F7279000000417564696F43686163
:100E6000696E5772705F6D6F6E6F32737465726505
:100E70006F5F666163746F72790000004175646929
:100E80006F436861696E5772705F6669725F657102
:100E900075616C697A65725F666163746F727900FF
:100EA000417564696F436861696E5772705F696903
:100EB000725F657175616C697A65725F6661637492
:100EC0006F727900433A5C446174615C74656D7063
:100ED0005C424C455F537065616B65725F76616C17
:100EE00069645C53544D33325742412D424C452D79
:100EF0004170706C69636174696F6E735C4D696495
:100F0000646C6577617265735C53545C41756469A8
:100F10006F2D4B69745C6578616D706C65735C7581
:100F2000736563617365735C6C69766574756E6512
:100F30005C5372635C617564696F5F636861696E5D
:100F40005F67656E6572617465645F636F64652E6B
:100F5000630000007B303A5B302C305D2C313A5B13
:100F600036302C335D2C323A5B3330302C305D2CF4
:100F7000333A5B323030302C2D31305D2C343A5BDB
:100F8000383030302C2D31355D2C353A5B323030F5
:100F900030302C2D32305D7D000000007B303A5B1C
:100FA000322C302C302E3530372C363030302C313E
:100FB000305D2C313A5B332C302C302E352C3230D6
:100FC000302C345D7D0000004E4F5443480000003B
:100FD0005045414B494E47004C4F575041535300E9
:100FE00048494748504153530000000042414E4495
:100FF00050415353000000004C4F575348454C4656
:1010000000000000484947485348454C460000004E
:1010100053544545504E4553535F51005354454535
:10102000504E4553535F425700000000424951550E
:1010300041445F4E4F5F534F525400004249515557
:1010400041445F55505F534F52540000424951553F
:1010500041445F444F574E5F534F525400000000CD
:10106000696972547970650073746565706E657333
:10107000734279516F7242570000000073746565C6
:10108000706E657373000000302E3730370000003B
:1010900063656E7465724375746F666646726571DA
:1010A00075656E637900000031303030000000005B
:1010B0006761696E5F6442003130000072616D5497
:1010C00079706500626971756164536F72740000B4
:1010D0006969724571537472756374417272617992
:1010E000000000007B7D00006E6242616E64730050
:1010F00073616D706C696E67526174650000000009
:1011000070526573706F6E73655F6442000000001B
:101110006D6F644D696E5F64420000006D6F644DD9
:1011200061785F6442000000C80F00080000000002
:10113000D00F000801000000D80F000802000000D6
:10114000E00F000803000000EC0F0008040000009E
:10115000F80F000805000000041000080600000059
:101160000000000000000000101000080000000057
:101170001C1000080100000000000000000000003A
:101180002C100008000000003C10000801000000C6
:101190004C100008020000000000000000000000E9
:1011A0006010000863A3090863A309080000000099
:1011B00000000000030000000100000028110008EA
:1011C00000000000BE5707080000000006000000F5
:1011D0006810000863A3090863A309080000000061
:1011E000000000000300000001000000681100087A
:1011F00001000000625F070800000000010000001D
:101200007C10000863A3090863A30908000000001C
:1012100000000000000000000600000000000000C8
:101220000400000088100008CDCCCC3D00409C4656
:101230009010000863A3090863A3090800000000D8
:101240000000000000000000060000000000000098
:1012500008000000A81000080000A0410090BA4655
:10126000B010000863A3090863A309080000000088
:101270000000000000000000060000000000000068
:101280000C000000B8100008000000000000204220
:10129000000000000000000000000000000000004E
:1012A000000000000000000000000000000000003E
:1012B000000000000000000000000000000000002E
:1012C000BC10000863A3090863A30908000000001C
:1012D00000000000030000000100000008BC060838
:1012E000A8000000625F0708000000000200000084
:1012F000C410000863A3090863A3090800000000E4
:101300000000000003000000010000008011000840
:1013100000000000625F07080000000002000000FB
:10132000D010000863A3090863A3090800000000A7
:10133000000000000400000008000000A0110008E8
:1013400004000000E41000080A0000001000000083
:1013500063A30908E8100008000000000500000071
:1013600063A30908F0100008040000000600000054
:1013700063A309080011000808000000070000002E
:1013800063A3090810110008140000000600000003
:1013900063A309081C1100081800000006000000E3
:1013A00003000000C0120008AC00000005000000AF
:1013B00050130008A013000800000000AC13000840
:1013C00088C506087C6A0820000000006465627514
:1013D000670000006C6F6700696E666F00000000B8
:1013E000696E666F320000007761726E696E670029
:1013F0006572726F720000006254726163654173BE
:10140000796E63726F6E6F7573000000736574544C
:101410007261636500000000636C65617254726103
:10142000636500006254756E696E6700624C6F6799
:10143000496E697400000000624C6F674D616C6C0E
:101440006F630000624C6F67436D7369734F730085
:10145000624C6F674379636C657300006244656634
:1014600061756C744379636C65734D676E74436228
:10147000000000006379636C65734D676E744362AE
:1014800054696D656F7574006379636C65734D673E
:101490006E744D65617375726554696D656F7574B1
:1014A00000000000696E697449737375654D736758
:1014B000436200007570646174654366674D7367CD
:1014C000436200006368756E6B4D656D506F6F6CA5
:1014D00000000000616C676F4D656D506F6F6C00B0
:1014E000433A5C446174615C74656D705C424C4568
:1014F0005F537065616B65725F76616C69645C53A4
:10150000544D33325742412D424C452D4170706C41
:1015100069636174696F6E735C4D6964646C65774F
:10152000617265735C53545C417564696F2D4B69DE
:10153000745C7372635C68656C706572735C617512
:1015400064696F5F636861696E5F696E7374616E11
:1015500063652E6300000000417564696F20436875
:1015600061696E206572726F72203D3E2073746FE8
:10157000702067726170680A00000000CC130008D8
:1015800002000000D413000804000000D813000873
:1015900008000000E013000810000000E813000835
:1015A00020000000F01300084000000000000000D0
:1015B00000000000F8130008A2A30908A2A309086C
:1015C000040000008DDF0608000000000C14000875
:1015D000A2A30908A2A3090804000000A3DF0608CB
:1015E0000000000018140008A2A30908A2A309081B
:1015F00004000000D7DF06080000000024140008E3
:10160000A2A30908A2A30908050000007BDF0608C1
:1016100083DF06082C140008A2A30908A2A3090866
:101620000500000033DF06083BDF06083814000819
:10163000A2A30908A2A309080500000045DF0608C7
:101640004DDF060844140008A2A30908A2A3090854
:101650000500000057DF06085FDF06085014000889
:10166000A2A30908A2A309080500000069DF060873
:1016700071DF06085C140008A2A30908A2A30908E8
:1016800005000000D9DE0608E1DE06087414000833
:10169000A2A30908A2A3090805000000EBDE0608C2
:1016A000F3DE060888140008A2A30908A2A309080B
:1016B00005000000FDDE060805DF0608A41400088A
:1016C000A2A30908A2A309080700000009E0060870
:1016D00000000000B4140008A2A30908A2A309088E
:1016E0000700000019E0060800000000C41400080C
:1016F000A2A30908A2A30908040000000FDF06083E
:1017000017DF0608D4140008A2A30908A2A3090839
:101710000400000021DF060829DF060800000000A1
:1017200000000000000000000000000000000000B9
:10173000000000006D6978001E00FE017F000000BF
:101740007C030300A3A30908000000000200FE01BF
:101750007F0000007C030300000000000000000088
:101760000200C7000001C70000080000A3A3090889
:10177000A3A30908341700086761696E30000000F0
:10178000302E30006761696E310000006761696E5C
:10179000320000006761696E3300000078170008AE
:1017A00072A4090872A409080000000000000000EB
:1017B0000000000006000000000000000000000023
:1017C000801700080000C8C200007042841700089B
:1017D00072A4090872A409080000000000000000BB
:1017E00000000000060000000000000004000000EF
:1017F000801700080000C8C2000070428C17000863
:1018000072A4090872A4090800000000000000008A
:1018100000000000060000000000000008000000BA
:10182000801700080000C8C200007042941700082A
:1018300072A4090872A4090800000000000000005A
:101840000000000006000000000000000C00000086
:10185000801700080000C8C20000704204000000A9
:101860009C17000810000000000000005C18000831
:101870000000000038170008102C082000000000AD
:101880006D6F6E6F3273746572656F00736663207F
:10189000636F6E66696720697373756520666F7222
:1018A000206C656674206368616E6E656C20210033
:1018B000020002007F0000007C03030073A40908FB
:1018C00073A40908020004007F0000007C030300E9
:1018D00073A4090873A40908020000010001C500EF
:1018E0000000000073A4090873A409088018000808
:1018F00062616C616E636500302E3000F018000884
:10190000F6A50908F6A5090800000000000000007F
:1019100000000000060000000000000000000000C1
:10192000F8180008000080BF0000803F01000000A0
:10193000FC18000804000000000000002C1900083A
:1019400000000000B0180008342C0820000000003F
:10195000726573616D706C65000000006829000895
:10196000482B0008B4320008383B00080C4400083B
:10197000084D00080000000068290008C82D000874
:10198000AC3500086C3E000854470008645000085D
:1019900000000000682900081C2F000828370008F4
:1019A000E83F0008D0480008E051000800000000AF
:1019B0006829000820300008543800081441000845
:1019C000FC4900080C5300080000000070290008C2
:1019D0001C2D0008EC340008AC3D000894460008BB
:1019E000A44F00080000000070290008702E0008B5
:1019F00068360008283F00081048000820510008F9
:101A00000000000070290008C42F0008E437000817
:101A1000A44000088C4900089C5200080000000007
:101A20007029000878300008C0380008804100089C
:101A3000684A00087853000800000000726573616E
:101A40006D706C6520636F6E74657874206D616C69
:101A50006C6F63206661696C656420210000000082
:101A6000756E737570706F727465642072657361E2
:101A70006D706C696E6720726174696F2028667280
:101A80006F6D20256420487A20746F2025642048DB
:101A90007A290000726573616D706C6520776974D6
:101AA000686F75742066696C746572696E6720660C
:101AB0006F7262696464656E20696E20636173652C
:101AC000206F6620757073616D706C696E67202879
:101AD00066732025642D3E256420696D706C6965F0
:101AE000732075702D73616D706C696E6720782539
:101AF000642C20646F776E2D73616D706C696E67F6
:101B0000202F2564292021000200FE017F00000013
:101B10007001030000000000000000000200FE0150
:101B20007F000000700103000000000000000000C2
:101B30000200000100017E0000000000F7A5090876
:101B4000F7A5090850190008524553414D504C451E
:101B50005F545950455F425554544552574F525463
:101B600048000000524553414D504C455F54595078
:101B7000455F4348454259534845563100000000EF
:101B8000524553414D504C455F545950455F434871
:101B900045425953484556320000000052455341D2
:101BA0004D504C455F545950455F454C4C4950543D
:101BB00049430000524553414D504C455F545950E4
:101BC000455F4E4F5F46494C544552494E470000D1
:101BD00072616D547970650066696C7465725479D0
:101BE00070650000481B000800000000641B00082E
:101BF00001000000801B0008020000009C1B000880
:101C000003000000B41B00080400000000000000F6
:101C100000000000D01B000806A7090806A7090855
:101C200000000000000000000300000001000000B0
:101C300008BC060801000000F26007080000000070
:101C400002000000D81B000806A7090806A709081B
:101C50000000000000000000030000000100000080
:101C6000E41B000800000000A6BC070800000000FC
:101C70000300000002000000141C00080200000025
:101C8000741C00080000000000000000081B000891
:101C9000582C08200000000073746572656F326D67
:101CA0006F6E6F0073666320636F6E66696720698D
:101CB0007373756520666F72206C65667420636847
:101CC000616E6E656C20210073666320636F6E66C3
:101CD000696720697373756520666F722072696722
:101CE0006874206368616E6E656C202100000000DE
:101CF000020004007F0000007C03030007A709081E
:101D000007A70908020002007F0000007C0303000F
:101D100007A7090807A70908020000010001C5007C
:101D20000000000007A7090807A70908981C000879
:101D300062616C616E636500301D0008F4AC0908D7
:101D4000F4AC0908000000000000000000000000E2
:101D50000600000000000000000000004EBD070863
:101D6000000080BF0000803F01000000381D000817
:101D70000400000000000000681D000800000000D2
:101D8000F01C00087C2C082000000000433A5C4452
:101D90006174615C74656D705C424C455F53706545
:101DA000616B65725F76616C69645C53544D33326C
:101DB0005742412D424C452D4170706C69636174EE
:101DC000696F6E735C4D6964646C6577617265738D
:101DD0005C53545C417564696F2D4B69745C73721C
:101DE000635C68656C706572735C617564696F5F74
:101DF000636861696E5F7461736B735F636D736950
:101E0000736F732E6300000073745F6F735F686C91
:101E10005F7461736B5F6372656174652041435FDA
:101E200044617461494F5F546872656164206572F2
:101E3000726F720073745F6F735F686C5F7461734D
:101E40006B5F6372656174652041435F50726F63BD
:101E50005F546872656164206572726F7200000081
:101E600073745F6F735F686C5F7461736B5F6372D1
:101E7000656174652041435F50726F634C4C5F54E1
:101E80006872656164206572726F720073745F6F4F
:101E9000735F686C5F7461736B5F637265617465B7
:101EA0002041435F436F6E74726F6C5F546872655C
:101EB0006164206572726F72000000004175646990
:101EC0006F436861696E5F70726F63657373206CD6
:101ED0006F772D6C6576656C206572726F7200008D
:101EE0006D6564696134386B487A00006D656469BA
:101EF0006133326B487A00006D6564696132346B1E
:101F0000487A00006D6564696131366B487A00007B
:101F10006D65646961386B487A00000074656C65B2
:101F200070686F6E7933326B487A000074656C6547
:101F300070686F6E7932346B487A000074656C6536
:101F400070686F6E7931366B487A000074656C6525
:101F500070686F6E79386B487A000000E01E0008E8
:101F60000800000080BB0000020110100200000009
:101F70000000000000000000000000000000000061
:101F800000000000000000001000000080BB000006
:101F90000200000000000000EC1E00080A00000023
:101FA000007D00000201101002000000000000008F
:101FB0000000000000000000000000000000000021
:101FC0000000000010000000007D00000200000082
:101FD00000000000F81E000808000000C05D0000BE
:101FE00002011010020000000000000000000000CC
:101FF00000000000000000000000000000000000E1
:1020000010000000C05D00000200000000000000A1
:10201000041F00080A000000803E000002011010AA
:1020200002000000000000000000000000000000AE
:102030000000000000000000000000001000000090
:10204000803E00000200000000000000101F000899
:102050000A000000401F00000201101002000000F2
:102060000000000000000000000000000000000070
:10207000000000000000000010000000401F0000F1
:1020800002000000000000001C1F00080A00000001
:10209000007D0000010110100100000000000000A0
:1020A0000000000000000000000000000000000030
:1020B0000000000010000000007D00000100000092
:1020C000000000002C1F00080A000000C05D000096
:1020D00001011010010000000000000000000000DD
:1020E00000000000000000000000000000000000F0
:1020F00010000000C05D00000100000000000000B2
:102100003C1F00080A000000803E00000101101082
:1021100001000000000000000000000000000000BE
:10212000000000000000000000000000100000009F
:10213000803E000001000000000000004C1F00086D
:102140000A000000401F0000010110100100000003
:10215000000000000000000000000000000000007F
:10216000000000000000000010000000401F000000
:1021700001000000000000004454434D0000000036
:102180004954434D0000000052414D494E54000057
:1021900052414D494E54310052414D494E54320046
:1021A00052414D494E54330052414D455854000060
:1021B000484541500000000028286E6253616D7050
:1021C0006C65734F7574202F20757053616D706C42
:1021D000696E67466163746F7229202A20646563A3
:1021E000696D466163746F7229203D3D206E6253B4
:1021F000616D706C6573496E00000000433A5C4489
:102200006174615C74656D705C424C455F537065D0
:10221000616B65725F76616C69645C53544D3332F7
:102220005742412D424C452D4170706C6963617479
:10223000696F6E735C4D6964646C65776172657318
:102240005C53545C417564696F2D4B69745C7372A7
:10225000635C616C676F735C636F6D6D6F6E5C5315
:1022600072635C6269717561642E63006379636C8B
:10227000654D6561737572655F53746172743A2060
:102280003220737563636573736976652063616C6F
:102290006C7320210A0000006379636C654D6561F1
:1022A000737572655F53746172743A20756E6B6EEC
:1022B0006F776E20737461746520210A000000003E
:1022C0006379636C654D6561737572655F537461A5
:1022D00072743A20746F6F206D616E792070617234
:1022E000616C6C656C206D656173757265732C2013
:1022F0004359434C45535F434E545F504152414C08
:102300004C454C5F4D4541535552455F4D41585FDB
:102310004E422073686F756C6420626520696E633D
:102320007265617365640A006379636C654D65610C
:10233000737572655F53746F703A206E625061728C
:10234000616C6C656C4379636C65734D6561737525
:102350007265203D3D203020210A00006379636CC6
:10236000654D6561737572655F53746F703A207067
:102370004379636C655374617473206E6F74206667
:102380006F756E6420210A006379636C654D656129
:10239000737572655F53746F703A20322073756382
:1023A000636573736976652063616C6C7320210AC1
:1023B000000000006379636C654D6561737572653B
:1023C0005F53746F703A20756E6B6E6F776E20730B
:1023D0007461746520210A00252D35307320252D68
:1023E0003135733A20202533642E25303664204D54
:1023F000487A20286D696E202533642E2530366496
:102400002C206D6178202533642E25303664290A0E
:102410000000000064617461496E4F757400000033
:1024200070726F636573730070726F636573734C62
:102430006F774C6576656C00636F6E74726F6C00BD
:1024400000000000142400082024000828240008AC
:1024500038240008417564696F496E74657272753D
:10246000707473202020203A2025352E32662525D1
:10247000202D2025362E3266204D487A0A00000095
:102480005541525420696E74657272757074732070
:102490002020203A2025352E32662525202D202586
:1024A000362E3266204D487A0A000000202025731F
:1024B0003A0A2020202044617461496E4F757420CF
:1024C00020202020203A2025352E32662525202D5B
:1024D0002025362E3266204D487A0A2020202025DD
:1024E000733A2025352E32662525202D2025362EBF
:1024F0003266204D487A0A20202020436F6E747285
:102500006F6C20202020202020203A2025352E32DC
:10251000662525202D2025362E3266204D487A0A44
:1025200020202020546F74616C2020202020202047
:102530002020203A2025352E32662525202D2025E5
:10254000362E3266204D487A0A000000746F74619E
:102550006C20617564696F2D636861696E20616CC0
:10256000676F733A0A2020202044617461496E4FDE
:1025700075742020202020203A2025352E32662513
:1025800025202D2025362E3266204D487A0A20201F
:10259000202050726F63657373202020202020203C
:1025A000203A2025352E32662525202D2025362E51
:1025B0003266204D487A0A2020202050726F6365D1
:1025C00073734C6F774C6576656C3A2025352E32E7
:1025D000662525202D2025362E3266204D487A0A84
:1025E00020202020436F6E74726F6C2020202020EA
:1025F0002020203A2025352E32662525202D202525
:10260000362E3266204D487A0A20202020546F74DE
:10261000616C202020202020202020203A202535F9
:102620002E32662525202D2025362E3266204D4857
:102630007A0A0000617564696F2D636861696E20B4
:102640007461736B732028617564696F20667261B1
:102650006D65776F726B293A0A20202020446174DF
:1026600061496E4F75742020202020203A202535A6
:102670002E32662525202D2025362E3266204D4807
:102680007A0A2020202050726F6365737320202007
:1026900020202020203A2025352E32662525202D89
:1026A0002025362E3266204D487A0A2020202050E0
:1026B000726F636573734C6F774C6576656C3A2007
:1026C00025352E32662525202D2025362E326620F2
:1026D0004D487A0A20202020436F6E74726F6C2060
:1026E000202020202020203A2025352E3266252546
:1026F000202D2025362E3266204D487A0A202020B3
:1027000020546F74616C2020202020202020202065
:102710003A2025352E32662525202D2025362E32CD
:1027200066204D487A0A0000746F74616C206175F0
:1027300064696F3A0A20202020417564696F496EF0
:1027400074657272757074733A2025352E32662561
:1027500025202D2025362E3266204D487A0A20204D
:102760002020417564696F43617074757265202023
:10277000203A2025352E32662525202D2025362E7F
:102780003266204D487A0A20202020446174614935
:102790006E4F75742020202020203A2025352E32BF
:1027A000662525202D2025362E3266204D487A0AB2
:1027B0002020202050726F6365737320202020201A
:1027C0002020203A2025352E32662525202D202553
:1027D000362E3266204D487A0A2020202050726F13
:1027E000636573734C6F774C6576656C3A2025355D
:1027F0002E32662525202D2025362E3266204D4886
:102800007A0A20202020436F6E74726F6C20202083
:1028100020202020203A2025352E32662525202D07
:102820002025362E3266204D487A0A20202020545A
:102830006F74616C202020202020202020203A204E
:1028400025352E32662525202D2025362E32662070
:102850004D487A0A0A000000746F74616C2061753B
:1028600064696F3A0A20202020417564696F496EBF
:1028700074657272757074733A2025352E32662530
:1028800025202D2025362E3266204D487A0A20201C
:102890002020417564696F436170747572652020F2
:1028A000203A2025352E32662525202D2025362E4E
:1028B0003266204D487A0A20202020546F74616CC3
:1028C000202020202020202020203A2025352E32B4
:1028D000662525202D2025362E3266204D487A0A81
:1028E0000A0000005465726D696E616C207461733A
:1028F0006B2020202020203A2025352E32662525E9
:10290000202D2025362E3266204D487A0A00000000
:102910004261636B67726F756E64207461736B20C4
:102920002020203A2025352E32662525202D2025F1
:10293000362E3266204D487A0A0A0000546F7461C0
:102940006C20202020202020202020202020203A21
:102950002025352E32662525202D2025362E32665F
:10296000204D487A0A0A0000000000000000000024
:10297000000000400100000000000000C863EC3EC1
:10298000C863EC3E00000000C1E19CBD00000000F7
:10299000CE8B5A3ECE8BDA3ECE8B5A3EB1121DBE46
:1029A000413DE83BDF575B3EDF57DB3EDF575B3E99
:1029B00076A41DBE383F303CA9AD5C3EA9ADDC3EDF
:1029C000A9AD5C3E409B1EBE158F8A3C55915E3E74
:1029D0005691DE3E55915E3EDCF51FBE97D9D13C47
:1029E000F206613EF206E13EF206613E2EBB21BEDA
:1029F000CC5B173D4715643E4815E43E4715643EE1
:102A000039ED23BE5D09513D53C4673E53C4E73ED3
:102A100053C4673E839226BE9A478B3D8C1D6C3E05
:102A20008C1DEC3E8C1D6C3E36B329BECB52B43DA2
:102A30004A2D713E4A2DF13E4A2D713E3F562DBE24
:102A4000CE16E43DA901773EA901F73EA901773EE4
:102A5000CC8631BE6E8D0D3EA2AB7D3EA2ABFD3E5F
:102A6000A2AB7D3EF35036BE7AFF2C3EAF9F823E36
:102A7000AF9F023FAF9F823E0DC33BBE84C0503E1E
:102A800051EA863E51EA063F51EA863E42EE41BE99
:102A9000CC40793EC7C38B3EC7C30B3FC7C38B3EF9
:102AA000C3E648BE7C82933EB13C913EB13C113FAF
:102AB000B13C913E78C450BEFF54AD3EC768973ECE
:102AC000C768173FC768973EBAA359BEF874CA3E95
:102AD0007B5F9E3E7B5F1E3F7B5F9E3E3BA663BE51
:102AE0000B51EB3ECC3CA63ECC3C263FCC3CA63E1C
:102AF00039F46EBEA636083F4A22AF3E4A222F3F27
:102B00004A22AF3EF2BD7BBE10341D3F6D38B93E48
:102B10006D38393F6D38B93ECA1E85BE3F00353F1E
:102B20004BB0C43E4BB0443F4BB0C43ED65C8DBEB0
:102B3000020F503FD6C5D13ED6C5513FD6C5D13E76
:102B400031C496BEC3ED6E3F170000007C2900081B
:102B5000F6F1183BF6F1183B00000000F6F118FB07
:102B600000000000CC79511B99F3A236CC79511B9F
:102B7000F4D42EF6493DE800EDFB6A1BD9F7D536B3
:102B8000EDFB6A1BA1B825F6717E600113B5951B9C
:102B9000276A2B3713B5951BFC4B16F6573C2A02B8
:102BA000B72AD21B6D55A437B72AD21B3FA200F615
:102BB0005D66470330DE201C61BC413830DE201CDE
:102BC0002B4DE4F56BDEBA04F2A8821CE451053902
:102BD000F2A8821C6D2CC1F5ED4A8806518AF81CBA
:102BE000A314F139518AF81CD3D796F59F79B4080C
:102BF0007CB1831DF762073B7CB1831D9FCC64F5DC
:102C0000B02C450B40A9251E80524B3C40A9251EE7
:102C1000109C2AF5E16C410E1535E01E2A6AC03D74
:102C20001535E01E4593E7F4CAADB1113B74B51FED
:102C300076E86A3F3B74B51FD6F09AF441EF9F15D2
:102C4000B6EBA7206CD74F41B6EBA72029CF43F4B2
:102C50008710181A5194BA21A22875435194BA21A9
:102C6000E31BE1F37D19281FB1F1F02262E3E14596
:102C7000B1F1F022D59371F31B9FE0242F2C4F2448
:102C80005D589E482F2C4F247AB8F3F2C63F552B3F
:102C9000B031DA255F63B44BB031DA2562C465F236
:102CA000FB3D9D32D4DE9727A7BD2F4FD4DE97275B
:102CB000499CC5F1BC42D43AF9328F29F1651E53C3
:102CC000F9328F2973BC10F1FD521B446A92C82B54
:102CD000D52491576A92C82BDE2044F0EF079A4E14
:102CE000381B4E2E6F369C5C381B4E2EC8265CEF70
:102CF0004E1F805ADD122C31BA255862DD122C315C
:102D0000496554EEE18007685F757134BFEAE26897
:102D10005F757134E27927EDBBE176770000004002
:102D200001170000502B00085850FE3D5850FE3D42
:102D300000000000EA6B40BF0000000054F6173DA1
:102D400054F6973D54F6173D9F7AB7BFD3F2143F20
:102D5000C9B4C13DC9B4413EC9B4C13D1CE29FBF25
:102D60009C9E203FA4A52E3EA4A5AE3EA4A52E3E2B
:102D7000CC0D81BF3CC1303F13CE7D3E14CEFD3E15
:102D800013CE7D3E67C744BF7B95423F9A51A13E1B
:102D90009A51213F9A51A13EE9D011BF1D74543F71
:102DA0007DA9BB3E7DA93B3F7DA9BB3E0A17DDBE89
:102DB0007FDE653F02C5CC3E02C54C3F02C5CC3E1E
:102DC000A83BBBBED827773F08000000282D00088D
:102DD0007E05E50F7E05E50F000000007E05E5CFCE
:102DE000000000009AB2BF0434657F099AB2BF04A4
:102DF0007FB042A46B69794A914C1B0C229936181A
:102E0000914C1B0C07F20EB0354E4F5084B4D415C4
:102E10000769A92B84B4D415181A79BFDF9D6058AF
:102E200076C2B91FED84733F76C2B91F3526CECE68
:102E300070BD4A618366542806CDA8508366542825
:102E4000C7C58BDB7F0E3A6A4B5FEA2E97BED45D17
:102E50004B5FEA2EBA1E5DE4BB3FEF727B4031331D
:102E6000F68062667B403133098B98E8DAEB937B1E
:102E70000000004001080000D02D0008A076273F88
:102E8000A076273F000000007EDA9D3E0000000093
:102E9000FF9CE23E55D54F3FFF9CE23EB21D133FE3
:102EA00011A5FA3DFE7FF73EF53B313FFE7FF73E31
:102EB0009FBFEB3E8F704B3E41DD0A3F8F19073FAE
:102EC00041DD0A3FC2CE9A3E5FD99E3EC47D1C3F83
:102ED000BC8DB43EC47D1C3F30AC073EB5AEE23E77
:102EE000611F2F3FDC23483E611F2F3F7408BDBC8C
:102EF000FC2F163F4F2F423F2CC89B3D4F2F423F88
:102F0000131B16BE685E3D3FBF07563F0F7D163C44
:102F1000BF07563F513567BEC736683F08000000FF
:102F20007C2E0008D24FBB53D24FBB530000000091
:102F3000D24FBB1300000000C83FA73877AAEA674A
:102F4000C83FA7387B6CC7241251AA0FA3FFDF3DEF
:102F50007DFA9D58A3FFDF3DE7F3771DF5116E194C
:102F600054A06E458DC78C4354A06E4545D8591367
:102F7000AB57B6271BE23E4EEC6E232D1BE23E4EB6
:102F8000FEC27A0826ADAB3864B08F578A7B04192D
:102F900064B08F5714EF85FE2AFE174B7CA717618C
:102FA000B482BC097CA71761D84E9EF6FB33AF5E96
:102FB00089DF036B20FA2C0189DF036BECAA8CF10B
:102FC0005A631B74FFFFFF7F00080000242F0008D6
:102FD000ED73D53DD02B393EED73D53DB92C5EBF99
:102FE00051A9833EFB95AB3E8E8E6F3EFB95AB3E6B
:102FF000920B22BF3085093F7D54223F4CE8BA3DF9
:103000007D54223FE58BDCBEE7B94A3F850D4F3F3B
:1030100083CC14BD850D4F3F88DCB0BE4E6B713F35
:1030200004000000D02F0008D93E570DF079251775
:10303000D93E570DB2D174C83E54EA20AD7EE52A80
:10304000B7D1F11DAD7EE52A8C1B7DD7F897C24420
:103050006B3E2A51AE84AE0B6B3E2A5162836EE406
:1030600090F35C659BC28667F29B59FB9BC28667A7
:10307000FA6EE4E9DCA6B578FFFFFF7F00040000EC
:1030800028300008BE5BEF3DBE5B6F3EBE5BEF3D90
:103090004E0F22BF65E9CD3D0A6AEF3D0A6A6F3ED9
:1030A0000A6AEF3D963E23BFDA9CD73DDF1AED3D1D
:1030B000DE1A6D3EDF1AED3D19EA26BF41BCEB3D3D
:1030C000AEEBE03DAEEB603EAEEBE03D39282DBF10
:1030D0007CF0EC3D409EEA3D409E6A3E409EEA3DCB
:1030E000470E2ABF34EBFA3D840EF03D850E703E4C
:1030F000840EF03D79B428BFEFEE023EB89BF03D60
:10310000B79B703EB89BF03D6C502BBF1D790E3EB7
:103110004863F33D4863733E4863F33DC4A52CBF49
:10312000A05D193E9726F63D9626763E9726F63DFB
:10313000E4B62EBFBB28273E1840F93D1740793E24
:103140001840F93D3D0031BF2481363EFAEDFC3D8B
:10315000FAED7C3EFAEDFC3DDD8133BF67E3473E8F
:103160005179003E5179803E5179003E2C6436BF42
:10317000F8755B3EB6B7023EB6B7823EB6B7023EC2
:10318000E69539BF7036713E9E35053E9E35853ECB
:103190009E35053E851E3DBF46A8843EB1F5073EDF
:1031A000B1F5873EB1F5073E6A0541BF35F6913E60
:1031B000E9FB0A3EE9FB8A3EE9FB0A3EE45045BFD3
:1031C0009999A03EA14D0E3EA24D8E3EA14D0E3EC0
:1031D00052074ABFE7A9B03E71F0113E70F0913E30
:1031E00071F0113EBB304FBF5742C23E7DEA153EE3
:1031F0007DEA953E7DEA153E11D654BF1B81D53E32
:10320000CE421A3ECF429A3ECE421A3E3B015BBFAF
:103210001388EA3E45011F3E45019F3E45011F3E82
:1032200067BD61BFACBE003FB52E243EB52EA43EA7
:10323000B52E243E221769BFD7450D3F0DD5293E37
:103240000ED5A93E0DD5293E841C71BF91F11A3FC0
:1032500077FF2F3E77FFAF3E77FF2F3E65DD79BFCB
:10326000DCDC293F80BA363E7FBAB63E80BA363EB5
:10327000CBB581BF16263A3F46143E3E4614BE3EAD
:1032800046143E3E93ED86BF6DEF4B3FB31C463E6A
:10329000B31CC63EB31C463E55A18CBF5E5F5F3F6C
:1032A000B2E54E3EB2E5CE3EB2E54E3ECADD92BF3D
:1032B00046A1743F1C00000084300008DEBBF50E00
:1032C000BC77EB1DDEBBF50E902C7CD75996DE0C3F
:1032D0009CA0F60E3741ED1D9CA0F60E655A30D726
:1032E000A4CD790DE9ADD10ED35BA31DE9ADD10E0F
:1032F000C87945D615C4BB0EDABA0E0EB5751D1CBD
:10330000DABA0E0ED2F1B5D4C507CF0E01E4A90E7C
:1033100002C8531D01E4A90E5B6E7CD54FB3AE0FFE
:1033200050E8000F9FD0011E50E8000FB3E1D2D546
:10333000D9DD5D1078BB090FF076131E78BB090F3D
:103340001BE52BD5AB23CF118A34360F14696C1EC5
:103350008A34360F0D8FD6D40EB42B136269620FE8
:10336000C3D2C41E6269620F114752D46317E514B9
:103370007A01940FF302281F7A01940FBFF0BFD394
:103380006A24D016A5DFCE0F4ABF9D1FA5DFCE0F42
:10339000D7881FD3E56CFC182F2A0F105D541E2010
:1033A0002F2A0F10E2F466D2F6BE6E1BC6F6561038
:1033B0008CEDAD20C6F656108C869AD100CE261E16
:1033C000C9B3A61091674D21C9B3A610D45EB8D079
:1033D0007A112A2111B6FE10216CFD2111B6FE10C2
:1033E0006EA5BECF668D7D240F7D5F111EFABE22B5
:1033F0000F7D5F1107C7ABCE2F66262831B4C911E8
:103400006268932331B4C9118B2B7ECDAE792A2CFF
:10341000100E3E12211C7C24100E3E123CD133CCE7
:10342000C9959030A24FBD12439F7A25A24FBD127D
:10343000DD7BCACACC466035D6594813ACB390265A
:10344000D65948134DB13FC9BE04A23A9628E0139D
:103450002D51C0279628E01334A690C7F3555F403E
:10346000A0D6851441AD0B29A0D685147C37BAC5EA
:1034700089EBA246B1A13A156243752AB1A13A156A
:103480000DDFB8C3ACC8784DE8EEFF15CFDDFF2BDC
:10349000E8EEFF15DBA688C1E76DEE54EC4FD716BA
:1034A000D79FAE2DEC4FD716741A25BFC60A135DF1
:1034B000C188C2178211852FC188C217623689BCA4
:1034C00040B6F7656696C318CD2C87316696C3184B
:1034D0006655AFB9CEAEAF6F50B6DC19A16CB9333B
:1034E00050B6DC193B1B91B6CCA2507A00000040CC
:1034F000011C0000BC3200080E0C8F3D0E0C8F3DED
:1035000000000000FD3C5CBF00000000AF5E433CDB
:10351000B55EC33CAF5E433C385BD9BF5CEC3E3F1D
:103520009A04023D9A04823D9A04023D884CD1BF20
:10353000361A433F6C24793D6B24F93D6C24793D68
:103540001DA2C5BF558D493F77A4C13D76A4413E1C
:1035500077A4C13DE16EB8BFFDAF513F4D62033E60
:103560004D62833E4D62033E93C9ABBF72F55A3F35
:1035700082FF213E82FFA13E82FF213ED97AA1BF78
:1035800033F5643F32B2393E32B2B93E32B2393EDF
:10359000E2E09ABFF6736F3F9E71483E9E71C83E4F
:1035A0009E71483ECBF698BF335F7A3F090000001A
:1035B000F8340008DBC0F008DBC0F00800000000B1
:1035C000DBC0F0C80000000067BD8601CD7A0D03A6
:1035D00067BD8601D7635293EC2D765FCF2410042C
:1035E0009E492008CF24100421BC5997F91A8D61F7
:1035F0005623C907AC46920F5623C9075EF12E9D8C
:103600009CAAC66460471A0CC08E341860471A0C16
:103610009D8FC8A345FED768A0496C104093D82061
:10362000A0496C10AF361BAA21B97A6D3BF03F144C
:1036300076E07F283BF03F14A79342AF9D997A72C2
:1036400033463617678C6C2E33463617DC8E8FB2B6
:1036500014FBB977BA330E1974671C32BA330E19DA
:10366000B49A84B37F992F7DFFFFFF7F000900008C
:10367000B4350008252F0E3F252F0E3F0000000017
:103680004BF2E23D00000000F70DAA3EDDC50A3F07
:10369000F70DAA3EEA501F3E98F94F3DC21ACA3EA6
:1036A000EEC3B03EC21ACA3EA8ED95BC99B01C3E0E
:1036B0004A9CF43E3429B43D4A9CF43E41427CBECF
:1036C0000164943E9E71103FCFEE30BE9E71103F5C
:1036D000E53BF5BEF78ADE3E64FC243F8173CEBE37
:1036E00064FC243F30DF2FBF389E123F3F22373F1C
:1036F000F11017BF3F22373F7C035CBF0837333FD1
:10370000041A473FBA403BBF041A473F9CD67EBFCE
:10371000EAC9513FBE9E553F523F54BFBE9E553FE2
:1037200061908CBFEE1E703F0900000074360008E7
:103730005A9217475A921747000000005A921707EB
:1037400000000000BA7D832A8AEE6245BA7D832A92
:103750009B0EF509C8CC7F0691B0863271FB302CE8
:1037600091B08632B124D4FE311396137212273DE4
:103770003593420B7212273DEADB3BF045001925D9
:1037800030CF38482326E2E930CF3848558358E116
:10379000D9BDA2371F327E52D81F63CC1F327E5252
:1037A000F83308D4251C4F49691F915B4A8777B4C9
:1037B000691F915BF520FFC831849B59E0018D633F
:1037C0000FA35FA2E0018D63F3584AC0E8F4E468F8
:1037D000385FCF6AFE56E095385FCF6A5BCFB7B9E6
:1037E000B8760F78FFFFFF7F000900003037000830
:1037F000EC5F373EEC5F373E000000000A5024BF0C
:1038000000000000AC83F63D20D30B3DAC83F63DB9
:1038100008EFA0BF2D3C083FCD63D13E6A3592BE74
:10382000CD63D13EE9249BBFE9923E3FD671323F42
:10383000F03E30BFD671323F36CA97BF2839643F59
:10384000D5BF583F808C68BFD5BF583FDAD497BFEB
:10385000DE9C783F05000000F037000875FDEB1690
:1038600075FDEB160000000075FDEBD600000000B2
:10387000C43A680FF6985E04C43A680F177C88AFA4
:103880004F161E4420F3583485A572DB20F35834BC
:103890009F8B6DB28774495FE7EA3859F487E0A7D8
:1038A000E7EA3859CBE41AB42C941C7271EA5F6CC5
:1038B000F4BFB98B71EA5F6CF49215B4EE6E4E7C76
:1038C000FFFFFF7F000500005C380008A03D8A3E36
:1038D000A03D8A3E00000000C184EBBE0000000055
:1038E000B810983DB810183EB810983D3ADD69BF41
:1038F0005A96573E7625953D7625153E7625953D7B
:1039000005D26BBFFF92593E348C9A3D348C1A3EDF
:10391000348C9A3DFFA469BF67AC5B3EE9629B3D76
:10392000EA621B3EE9629B3DCDBD6BBF07BD653EB4
:10393000981B913D981B113E981B913DF20271BF5F
:10394000F642663EF9E19C3DF9E11C3EF9E19C3D01
:1039500052426EBF39CD723E2383903D2283103E8A
:103960002383903D8E4276BF7D107A3EB93D9B3DCC
:10397000B83D1B3EB93D9B3DA61574BF0469833E0F
:1039800047C8983D47C8183E47C8983D027E77BF54
:103990004BC4873EECB49E3DECB41E3EECB49E3D61
:1039A00066F876BFB8A58C3EDA049F3DDA041F3E68
:1039B000DA049F3D97527BBF09AA953E12C1A03DF4
:1039C00011C1203E12C1A03DA62F7EBF5E209D3EAC
:1039D0004B4FA33D4B4F233E4B4FA33D6AA780BFA8
:1039E000F3ECA53E9E89A53D9F89253E9E89A53D78
:1039F000649482BF2FDBAF3E211AA83D211A283ED6
:103A0000211AA83DEA9884BFC97DBA3E82E9AA3D41
:103A100081E92A3E82E9AA3D2ACD86BF2B1EC63EF9
:103A20009CF1AD3D9CF12D3E9CF1AD3D9E3289BF98
:103A300016BCD23E693BB13D693B313E693BB13D6D
:103A400010CA8BBFA963E03E53C8B43D52C8343E90
:103A500053C8B43D0F978EBF8C24EF3E709CB83D89
:103A60006F9C383E709CB83D2C9C91BF1F0DFF3E53
:103A7000EEBBBC3DEEBB3C3EEEBBBC3DA2DC94BF0E
:103A80003A17083F002BC13D012B413E002BC13DA1
:103A9000EC5B98BF584D113F73EEC53D73EE453E4C
:103AA00073EEC53DBF1D9CBFB8321B3F640BCB3DC1
:103AB000630B4B3E640BCB3D2826A0BF02D2253FB3
:103AC0005787D03D5687503E5787D03D8279A4BF57
:103AD000AE36313F4268D63D4168563E4268D63DDB
:103AE0007E1CA9BF1C6D3D3F87B4DC3D87B45C3EA6
:103AF00087B4DC3D2714AEBF92824A3F0173E33D99
:103B00000173633E0173E33DE565B3BF4A85583FEA
:103B1000FDAAEA3DFDAA6A3EFDAAEA3D7817B9BFB3
:103B20006F84673F3E64F23D3F64723E3E64F23D07
:103B3000022FBFBF2490773F1F000000CC38000841
:103B4000E9678F22E9678F2200000000E9678FE2B2
:103B500000000000880B810910170213880B8109EF
:103B600068B188C54FCBF21A5C575209B8AEA4129F
:103B70005C575209C67E0BC5E45F321B47C3A809D8
:103B80008E86511347C3A8091EC096C5E28C751BCB
:103B9000972EB6092E5D6C13972EB609BE8C10C5F4
:103BA000E0A0B71C77B91109ED72231277B911099A
:103BB0009243BFC3B75EC81C911FCE09223F9C131E
:103BC000911FCE09956B6FC419A7591E223208099F
:103BD0004464101222320809755C6FC29F0F421FA5
:103BE00085DBB3090BB7671385DBB3099096FAC27F
:103BF000F540DA206A848C09D50819136A848C0987
:103C0000867F20C29D12F121BC4EEB09789DD61310
:103C1000BC4EEB097AE641C2FB6D29239D4DF009AC
:103C20003A9BE0139D4DF009245A2BC12D826A2541
:103C300014110C0A2822181414110C0A691674C0E5
:103C40007E174827AFF4340A5EE96914AFF4340AEA
:103C5000F44AACBFD53C7B29E799580ACE33B1145E
:103C6000E799580AFDCDB5BEA3CBF62B0FA2810A6A
:103C70001E4403150FA2810A068BB3BD2F729F2E1F
:103C80001398AE0A27305D151398AE0ACB6A99BC1B
:103C9000B88A8731C219DF0A8433BE15C219DF0A18
:103CA000D0B066BB6805AF3494B6130B286D2716E9
:103CB00094B6130B01F81ABA4EEA183821854C0B4A
:103CC000410A991621854C0BAF78B4B82423C93B1F
:103CD000F5C6890BEB8D1317F5C6890B12EA31B7C0
:103CE000B247C33FDCBECB0BB87D9717DCBECB0B16
:103CF00034AF91B5099D0B440BB0120C1760251819
:103D00000BB0120CF609D2B342ACA64833E75E0CF6
:103D100065CEBD1833E75E0C5520F1B1225C994D9C
:103D200037B6B00C6F6C611937B6B00C0AECECAF5B
:103D3000C900E9526875080DD0EA101A6875080DB7
:103D4000353FC3AD36579B580F84660D1F08CD1AFB
:103D50000F84660D19C171AB0B8EB65E7048CB0D2A
:103D6000DF90961B7048CB0D4BECF5A82A494165B6
:103D70000F30370E1E606E1C0F30370EB90D4DA67A
:103D8000C9A4426CD0AFAA0E9F5F551DD0AFAA0E3A
:103D9000E04374A37F37C273EC43260FD8874C1ED1
:103DA000EC43260FDE7E68A0F311C87B00000040C4
:103DB000011F0000403B0008485F563B485FD63B70
:103DC000485F563B5C9BE6BF3590503F578C253C87
:103DD000578CA53C578C253C03ECE3BFCA30523FBF
:103DE00019CFBA3C1CCF3A3D19CFBA3C79FDDEBFA2
:103DF000D654553F9566223D9566A23D9566223D77
:103E0000CA97D8BF39C9593FAFA06F3DAFA0EF3DAA
:103E1000AFA06F3D00B4D1BF2B505F3FC1029E3DAC
:103E2000C1021E3EC1029E3D1454CBBF9AAC653FF9
:103E3000886DBF3D886D3F3E886DBF3DC363C6BF83
:103E400063AA6C3F0FE2D83D0FE2583E0FE2D83D27
:103E5000B1A5C3BF0322743F78E6E73D78E6673E2D
:103E600078E6E73D62AAC3BFF1F77B3F0900000097
:103E7000B83D0008A72F6B004E5FD600A72F6B0040
:103E80002052B28C5B1A4868AC184B01573196022D
:103E9000AC184B01BBFE098E396518696D3CEB020D
:103EA000DA78D6056D3CEB025E438190F96AAA6A26
:103EB000A13413054369260AA1341305EC1AB493FF
:103EC000AD9CE46C77057D07EE0AFA0E77057D0759
:103ED00018002697AC15A86F132CE0092558C013BD
:103EE000132CE00938F6559A1A4DD6727AD8F60B8B
:103EF000F4B0ED177AD8F60B4B1ECE9CBB3155763D
:103F0000E7208E0DCD411C1BE7208E0D47272D9EEF
:103F1000A301117A82677E0E04CFFC1C82677E0E9D
:103F200031CF2A9E8DF8FB7DF0FFFF7F0009000056
:103F3000743E0008BB447C3EBFE0E63EBB447C3E92
:103F400000E08DBD3FAF533CE6729D3E5C0D8A3E66
:103F5000E6729D3EB64B5FBE0F64D23DE90ECF3E8A
:103F6000771485BCE90ECF3E4206E8BE98A57B3E9D
:103F70007F1C023F71ABA3BE7F1C023FF62C34BFF7
:103F80007920CD3E741E1A3FBEBD16BF741E1A3F67
:103F9000B3906DBFDD0F0B3FCC2C2E3F9D7B4EBFF2
:103FA000CC2C2E3F69588EBFCD8E2A3FF97E3E3FE6
:103FB000865479BFF97E3E3FBEF4A0BFE892453FEC
:103FC0008ADF4B3FF1898CBF8ADF4B3F1974AFBF4B
:103FD00062935D3F8637573F1BC597BF8637573F74
:103FE00026BFBABF2163743F09000000343F0008B8
:103FF0005997881FC92FB8395997881F010091FB1D
:10400000795EA7019EB95C27025783229EB95C277F
:10401000A7440BF2F040260D31BAC3331DAEEBFDC1
:1040200031BAC333BA37FFE20BB3741FBB3F0E4143
:10403000B12315D7BB3F0E417EC2F4D22B1E4833AD
:10404000F1390F4DDA20A1B4F1390F4D24D39BC4BF
:1040500074EE8745216616578D31C2982166165732
:1040600090CBD3B8AE6647553B7C3F5F18BD5583B8
:104070003B7C3F5FD6A085AFE273C96264E2F73252
:104080008007BBB964E2F732B1F345A830B1C96E1D
:1040900073E1CD3556721DB473E1CD35E66CA0A247
:1040A000AA90317A0000004003090000F03F0008A8
:1040B00003ED0B3E03ED0B3E000000007E093ABF0E
:1040C000000000007621C73D51570CBD7621C73D49
:1040D0008F64BBBF07CC1F3F7262C43ED3ABE9BE47
:1040E0007262C43EA0E8BDBFC75D4B3F83342E3F24
:1040F0004DEE72BF83342E3F5615C0BF64A5693F95
:1041000022A9553FA6179BBF22A9553FD876C2BF0B
:10411000A9107A3F05000000B04000086CA07D1196
:104120006CA07D11000000006CA07DD1000000009B
:104130006417720C7A459DFB6417720C62B84DA22D
:104140007E03E64F6D9C1831240B95C56D9C18318C
:104150002EB00BA1A2E3AE654D411A57A9D98886AE
:104160004D411A571355F59F1CB2D27483486A35D6
:10417000272D74B283486A35E893C49E8B54087D1A
:1041800000000040020500001C4100080EFA303D0E
:104190000CFAB03D0EFA303D72A095BFD1FEAE3E96
:1041A000A147303DA247B03DA147303DE74196BF12
:1041B0006F2BB13E22D82E3D22D8AE3D22D82E3DC7
:1041C000D88597BF7083B53EE7932C3DE993AC3D0E
:1041D000E7932C3D1A6F99BF5B06BC3E7935293DAC
:1041E0007735A93D7935293D260F9CBF54D7C43E6C
:1041F000B139243DB239A43DB139243D55BC9FBFEE
:104200002D0ED13E85EC1A3D84EC9A3D85EC1A3D8D
:1042100036B0A2BF1B37D83E502B253D4F2BA53DB6
:10422000502B253DF514A2BF7DE9DA3E783A0E3DCC
:10423000783A8E3D783A0E3D73ACA5BF0ACFDD3E8D
:10424000D430F83CD130783DD430F83C70C3A8BFAE
:10425000F619E13E7CACE93C7CAC693D7CACE93CC8
:104260008CBDA9BF5061E13E7725213D7725A13D59
:104270007725213DA9D1A5BF5ED9E73E1E0D213D81
:104280001E0DA13D1E0D213D1C35A6BF015BE93E63
:104290002F13263D2F13A63D2F13263DF477A7BFDE
:1042A00069E9F03E8EB0263D8FB0A63D8EB0263D2A
:1042B0002AAFA9BFF114FA3E5643283D5743A83D03
:1042C0005643283D9F8FABBF1430013F51992A3D83
:1042D0005199AA3D51992A3D798AADBF46BB053F08
:1042E0009EBD2C3D9EBDAC3D9EBD2C3DA0C8AFBF2C
:1042F000A8C00A3FB7082F3DB708AF3DB7082F3D0C
:104300002D28B2BF8812103F7188313D7188B13DB0
:104310007188313D06AFB4BF29C0153F222F343D0F
:10432000222FB43D222F343DAD61B7BF22CF1B3FBA
:104330003700373D3600B73D3700373DEF3FBABF56
:10434000EB3F223FE8FD393DE8FDB93DE8FD393D51
:104350002A4BBDBFCE15293F29293D3D2929BD3D09
:1043600029293D3DCD84C0BFE453303F5083403DBB
:104370005083C03D5083403D31EEC3BF35FD373FD4
:10438000BC0D443DBC0DC43DBC0D443DB688C7BF0B
:10439000DB14403FCEC9473DCFC9C73DCEC9473DDD
:1043A000C055CBBFF49D483FDBB84B3DDDB8CB3D9E
:1043B000DBB84B3DAF56CFBF959B513F39DC4F3DEE
:1043C00038DCCF3D39DC4F3DD88CD3BFBF105B3FCD
:1043D0002435543D2435D43D2435543D86F9D7BF8A
:1043E0005600653FD0C4583DD0C4D83DD0C4583DD8
:1043F000EC9DDCBF0D6D6F3F4D8C5D3D4D8CDD3D0B
:104400004D8C5D3D227BE1BF57597A3F2000000073
:104410008C41000868D08705CFA00F0B68D08705B6
:10442000C5C62FB515B4BF2B113D8205227A040BEA
:10443000113D82054F0CDFB4A8DB4A2C16C176056E
:104440002D82ED0A16C1760521143DB418DC602DCD
:10445000439F6405863EC90A439F6405207348B3A1
:10446000CC96012FBBAB49057657930ABBAB4905E8
:10447000F26CF8B109D535318CCD2105179B430A73
:104480008CCD210567D521B0618B43342364D704DB
:1044900047C8AE092364D704D8E4A7AEDDC60D36FD
:1044A000795A2905F1B4520A795A29054D85F5AE94
:1044B000485FBA36C7D371048DA7E308C7D3710428
:1044C00046C629AD8EC2733749C3E0039286C10741
:1044D00049C3E003DC479EAB6B7D4638EDB1A603D4
:1044E000DB634D07EDB1A603E73921ABE75358383D
:1044F000B92B09057257120AB92B0905AC2B17AD58
:104500008C57F639F0680805E1D1100AF068080503
:10451000C471E5AC39C0563A7B993005F532610A71
:104520007B993005DD0544AC305A3A3C788435053A
:10453000F1086B0A78843505D86A28AB303C853E93
:10454000B41A42056835840AB41A4205583038AAAC
:10455000200A984086CA54050C95A90A86CA5405B3
:10456000A6C33AA9CEA2DD42EAEC6505D4D9CB0AAE
:10457000EAEC6505D7AF1BA8FC536045B24578054A
:10458000648BF00AB24578055FE9EBA60B44094855
:1045900081438C050287180B81438C05BD7CA8A53F
:1045A0008914E04A0D79A10519F2420B0D79A10594
:1045B00099294FA40191E74DB101B8056103700B32
:1045C000B101B8058408E0A2B9F51F5145EFCF0548
:1045D0008ADE9F0B45EFCF05EE6A5AA137E78A5472
:1045E0004349E9058792D20B4349E905A799BD9F45
:1045F000BEF12958821A04060535080C821A0406F1
:10460000A9E7089EB89AFE5BE26D2006C5DB400C68
:10461000E26D2006EDA43B9CB06D0A60784E3E062C
:10462000F09C7C0C784E3E06EC1F559A09FA4E64BD
:10463000E4C65D06C98DBB0CE4C65D069DA8549812
:1046400057CACD68BFE17E067FC3FD0CBFE17E0681
:10465000CB933996685F886D21A9A1064252430D1C
:1046600021A9A106D93C0394D22A80727E26C606CF
:10467000FB4C8C0D7E26C606CD09B1915D86B677C2
:104680006762EC06CFC4D80D6762EC061B6F428FE1
:1046900067AB2C7D0000004001200000144400089E
:1046A0005282BC3A52823C3B5282BC3AC242EFBF79
:1046B00089FE5F3F9E00923B9E00123C9E00923B13
:1046C0003138EEBF6700613F6AA4253C64A4A53C75
:1046D0006AA4253C284FECBF97F8623F0102913C49
:1046E0000302113D0102913CCAD8E9BFD5D1653F13
:1046F000F291D73CF591573DF291D73CF73EE7BF99
:104700002C70693F6B1E0F3D6D1E8F3D6B1E0F3D64
:10471000B2F5E4BF63B46D3F90432E3D9043AE3D90
:1047200090432E3DED6CE3BFD07E723F18E7453DD0
:1047300018E7C53D18E7453D7304E3BF07B1773F70
:10474000E363533DE363D33DE363533D8002E4BF42
:104750002B2E7D3F09000000A046000894202F006A
:1047600029415E0094202F00F59E5E886844FF6F0B
:104770009A009200330124019A0092008BE7E388AB
:1047800051338070CA484B0194919602CA484B013C
:10479000C86BD889974B7C710C08440219108804A7
:1047A0000C084402F19A138B50EAE872D3475E0377
:1047B000A68FBC06D3475E039384608C2616B8741C
:1047C00063F37804C5E6F10863F37804F526858D74
:1047D000B731DA767A1C7205F438E40A7A1C72056D
:1047E0009E89498EDA673F79C1382F0681715E0C48
:1047F000C1382F0656C67D8E9883D87B181F9B061E
:10480000303E360D181F9B06D5BFFE8D3D15977E99
:10481000FAFFFF7F000900005C4700080B5A223EA8
:10482000EE48833E0B5A223E138CFFBE31BC943DB2
:104830003679803E23788E3C3679803E72A92ABF35
:10484000A5593E3E74FEC43E3C0EA8BE74FEC43E56
:10485000FAD868BF9FA0B33E3B64033F23A228BFA2
:104860003B64033F135592BF78D0023FA11D1E3F0A
:1048700037D16CBFA11D1E3FD7B7AABFB9D9243FFE
:10488000FD70323F4DF28FBFFD70323FB463BDBF4C
:10489000C7C43F3FAAA2413F7481A2BFAAA2413F21
:1048A000F783CBBF5B4A553F3B144D3F9FC5AFBF1E
:1048B0003B144D3F7061D6BF1860673F52E5553FCE
:1048C000DE08B9BF52E5553F4B0EDFBF7FD5773FBE
:1048D000090000001C48000864414B14673BD220CB
:1048E00064414B14917D0EE00DC34B097E4D1E209B
:1048F0008AE039027E4D1E2078A355D59534CB171A
:10490000079D3F31E070FCD5079D3F318AC1C9C585
:10491000DB27E82C9E1DB2414CEEAEAB9E1DB24192
:10492000B976D5B6173C684182D00E4F4964978955
:1049300082D00E4F8414A4AA46DC6C522F3F9C2CCC
:104940008ED906B82F3F9C2C19264EA1A763E25F93
:104950009EAA68303D46BFAE9EAA6830A3043E9A28
:10496000AA2DA56ACA0E45338E301DA8CA0E45333E
:104970002148CF94010CB073875479350E917BA3F5
:104980008754793545DA7890ADBFEA7B0000004066
:1049900005090000D8480008787BBF3D787BBF3D03
:1049A00000000000222150BF00000000E1B0A63D41
:1049B0003F87B4BDE1B0A63DC10ED4BFD3383B3F65
:1049C000F1B0BC3ECCF317BFF1B0BC3EBFFADABFCA
:1049D000A3B25A3F85D42B3FB1A193BF85D42B3FBF
:1049E0008CEEDFBFBE42703FA997533F61DAB8BF7C
:1049F000A997533F802EE3BF8ED77B3F0500000071
:104A00009849000887B7F70B87B7F70B000000003D
:104A100087B7F7CB00000000200E6B0A028CB7F4BA
:104A2000200E6B0A859FF89538699C5D493C2C2FB8
:104A30002B1A06B4493C2C2FB3A082925851596DC1
:104A40002C21F52A4C272FB62C21F52A3CBA0890A8
:104A5000D05E217825EAE5346ECF92A325EAE534CD
:104A60002BC0688E1BC7EB7D0000004003050000D3
:104A7000044A0008B70C273EB70C273E0000000090
:104A8000A5792CBF000000001E9DA13C1E9D213D6C
:104A90001E9DA13C2FDFB7BF01F2033F2538DB3C51
:104AA00028385B3D2538DB3C3A79ACBFF4B2E83EB0
:104AB000DCCDDB3CDCCD5B3DDCCDDB3CA6FCACBF28
:104AC00010E6EA3EFA24DB3CFA245B3DFA24DB3CA8
:104AD000FD16AEBF3125EF3EAB87D93CAE87593DC1
:104AE000AB87D93CD4B2AFBF3D2DF53ED024D73CE7
:104AF000D024573DD024D73C46C0B1BF4CCAFC3E61
:104B00002508D43C2508543D2508D43C8435B4BF41
:104B10000DEC023FCB1AD03CCB1A503DCB1AD03C07
:104B2000CE0AB7BFF518083F9A3C8C3C973C0C3D29
:104B30009A3C8C3CF9CBBDBF861F0D3FE42FCB3C8C
:104B4000E42F4B3DE42FCB3C7947BABFEFF40D3F48
:104B5000E20F943CE50F143DE20F943C621ABEBF95
:104B6000BFB60E3F8000A33C7E00233D8000A33CE7
:104B70004804BEBFA168103FD9F1B93CD6F1393D18
:104B8000D9F1B93C3F42BDBFBAC2113FB3FFC83CE7
:104B9000B1FF483DB3FFC83C92E8BCBF1BF1123FD8
:104BA00077B9C93C75B9493D77B9C93CA9A8BEBF19
:104BB0008188163F5069CB3C50694B3D5069CB3CD6
:104BC000156FC0BF554B1A3F7C5DCD3C7C5D4D3DA4
:104BD0007C5DCD3CE945C2BF82371E3FBA95CF3CD4
:104BE000B7954F3DBA95CF3CCD40C4BF5274223FDC
:104BF000BCC9D13CB9C9513DBCC9D13C5161C6BF4A
:104C0000D9FB263FC128D43CC128543DC128D43CFF
:104C1000F49FC8BF01C52B3F56ADD63C56AD563D9F
:104C200056ADD63C3300CBBF10D6303F6554D93C8F
:104C30006854593D6554D93C7982CDBF7F2F363FAA
:104C4000A11FDC3C9E1F5C3DA11FDC3CED26D0BFBC
:104C5000CDD13B3FA00FDF3CA00F5F3DA00FDF3C5D
:104C6000FFEDD2BFF1BD413F9D24E23C9D24623D5A
:104C70009D24E23C11D8D5BFB5F4473FEA5EE53C40
:104C8000ED5E653DEA5EE53C70E5D8BFBD764E3F22
:104C9000D1BEE83CD1BE683DD1BEE83C5A16DCBF6F
:104CA0008E44553F7C44EC3C7C446C3D7C44EC3C65
:104CB000FA6ADFBF835E5C3FFDEFEF3CFDEF6F3DC7
:104CC000FDEFEF3C64E3E2BFC7C4633F4EC1F33C7A
:104CD00050C1733D4EC1F33C8F7FE6BF47776B3FBA
:104CE00043B8F73C46B8773D43B8F73C513FEABF7D
:104CF000AB75733F8DD4FB3C8AD47B3D8DD4FB3C9C
:104D00005C22EEBF49BF7B3F21000000744A0008CF
:104D1000DD96E114DD96E11400000000DD96E1D49B
:104D20000000000074748602E8E80C0574748602C2
:104D30009D6810A49600F9419CE06C0339C1D90626
:104D40009CE06C03CB62C3A9DCBC2C3A75376F03C3
:104D5000EA6EDE0675376F03DDAC81A91984B93AB6
:104D6000E8936C03D027D906E8936C03C181F4A8BB
:104D70001D4CC93BB61E66036C3DCC06B61E6603D1
:104D8000C19526A8564F4B3D42935C038426B90635
:104D900042935C030EDD1FA7EC92323F9320500339
:104DA0002641A00693205003EA3DE5A57A06764108
:104DB0002F6B40035ED680062F6B400311997AA4B7
:104DC0009A7A0C445CF23002B9E461045CF230027D
:104DD00046031AA1E4C28F468FBF2C031D7F5906DC
:104DE0008FBF2C035943DCA28877FA46913F5002CB
:104DF000227FA004913F500244CFF2A0BC5F5B47EA
:104E0000FB018C02F6031805FB018C02CBDBFDA035
:104E1000565034485BC7E702B78ECF055BC7E70241
:104E200047E05EA1E15CE148C4FE230389FD47063B
:104E3000C4FE2303E5B68BA1478D7849D7E5260349
:104E4000AECB4D06D7E5260388ABABA04C40444B18
:104E500043A52D03874A5B0643A52D034D75C89FC7
:104E600072AA254DF0753503E0EB6A06F07535033F
:104E7000580BDD9E10C11B4FDE563E03BDAD7C06B8
:104E8000DE563E035E99DF9DBE283A51EB2647036E
:104E9000D64D8E06EB2647038557CF9CA1EC7D535C
:104EA00009A350031246A10609A35003C605B09BEF
:104EB0009980E2555AB55A03B46AB5065AB55A03F1
:104EC000A7E67F9A1A086B589D51650339A3CA0655
:104ED0009D5165036DC33E9998BF175B797E700342
:104EE000F1FCE006797E7003AE89EC9787E6E85D19
:104EF000813E7C03017DF806813E7C03BA008996E1
:104F00008EF8DE6071928803E224110771928803A3
:104F100090F71395A55AFA63AF7B95035FF72A07BD
:104F2000AF7B95032D488D93635E3B6745FBA203E2
:104F30008AF6450745FBA20323D3F491CE46A26A25
:104F4000EC11B103D9236207EC11B1030C834A9031
:104F500099412F6EF7BFBF03ED7F7F07F7BFBF03F8
:104F60001F4E8E8E9C63E2713E05CF037C0A9E0726
:104F70003E05CF03B138C08C97A3BB7514E1DE03A7
:104F800029C2BD0714E1DE037257E08A6DD5BA79F4
:104F90002952EF0353A4DE072952EF0313D2EE8800
:104FA0007FA4DF7D0000004001210000104D0008BB
:104FB0002752543A2752D43A2752543A9979F3BF98
:104FC00085C7673FF795243B0C96A43BF795243B98
:104FD00095F9F2BF8285683FCE04BB3BCE043B3CD3
:104FE000CE04BB3B3411F2BF8EFA693FC50C243CA2
:104FF000C50CA43CC50C243C61ECF0BF8E196C3F81
:10500000E962743CE362F43CE962743C2EC5EFBF94
:105010008AD06E3F4789A23C4789223D4789A23CFE
:105020001FDCEEBF310A723FC71DC63CC41D463DA2
:10503000C71DC63C0B70EEBF37AF753FFEFEE03CB0
:1050400001FF603DFEFEE03C85B6EEBF44A7793F20
:10505000D007F03CD007703DD007F03C66D5EFBFDD
:105060004DD97D3F09000000B04F0008468A1A0064
:105070008C143500468A1A006133438656C2E373A6
:10508000054B52000B96A400054B520088358386D1
:1050900006C14274C904BB0092097601C904BB0071
:1050A0000366F7861E47FD748D1948011933900277
:1050B0008D19480185CF898729C70C76CBC5E801B2
:1050C000968BD103CBC5E8010D691D881245687721
:1050D0001D258A023B4A14051D258A0287F0918806
:1050E0008A1805791577180329EE30061577180305
:1050F00080FAC788BA9BD77A03FC830306F80707B0
:1051000003FC83034ABDA48832A2D37C3C1FC003A6
:10511000773E80073C1FC0032A4D158841A6EC7ED0
:10512000E1FFFF7F000900006C500008BD54EC3D1A
:10513000CD33203EBD54EC3D28EE44BF2D41203EF2
:1051400031BC6B3E9FA9F2BD31BC6B3E42966FBF36
:105150004C3E8E3E9400C63E1F5FFCBE9400C63E91
:10516000B7EE94BFE55CE33EECE3063F3ADB53BFAA
:10517000ECE3063FB829AFBF0F40183F404C223F39
:10518000D37E8ABF404C223F5365C3BF8165363F03
:105190007917363F36D0A1BF7917363F104AD2BFB4
:1051A000A6224D3F9638443FA02FB2BF9638443FC9
:1051B000984CDDBF1CAB5E3F535C4E3F0992BDBFB8
:1051C000535C4E3F35B5E5BFFEFE6C3F22B4553F04
:1051D0001251C5BF22B4553F7B7DECBF15C1793F4D
:1051E000090000002C510008D64BC50EB1790614F9
:1051F000D64BC50EE875C4CE8F2508141586771DCD
:105200001866D5F01586771D986F1AC410938F23F2
:10521000FB2480311938E8C0FB2480315DA488B5B7
:105220005639D7382DF67143306312962DF67143F7
:10523000E8236BA8B907204C1C1093287D96C0BAB0
:105240001C10932872564D9E88C0325B3DDE852D22
:1052500023E517AF3DDE852D28F8DA96EB529166EF
:1052600093250E31D02FE8A693250E3102B4599123
:10527000E88D556FA4149733ABFB36A1A414973374
:105280007B65258DEE7E7F768C086D35DB76579DB0
:105290008C086D35B242C189808AE07C00000040F4
:1052A00006090000E8510008D2FC913DD2FC913D76
:1052B00000000000CB805BBF0000000025509C3D3B
:1052C000C333E0BD25509C3DADBDDFBFEA884A3FFA
:1052D00005F9BA3E98E525BF05F9BA3E9415E7BF32
:1052E000943E633FCF642B3FE1979DBFCF642B3F3C
:1052F000232BECBF23F0733F4FFB523FBBC9C3BF0F
:105300004FFB523F0B38EFBF3ED37C3F0500000000
:10531000A85200082DCD1F092DCD1F090000000047
:105320002DCD1FC9000000005A02C509C7C3FCF1FA
:105330005A02C509BA292190077544654A41BE2E13
:10534000F9330DAD4A41BE2E3036758C2D4A9F7112
:10535000D733D92A6B0F34B1D733D92A6A6EEA8989
:105360006011F879B5D3BE3470221B9EB5D3BE341C
:105370005AFA6388FE9E697E000000400305000023
:10538000145300080A0A426F6172642073746172D8
:10539000746564203A0A0000094672657175656E8D
:1053A00063792020203A202564204D487A0A0000A5
:1053B000094275696C64202020202020203A202595
:1053C000732025730A0000004F63742031372032A8
:1053D0003032350031303A34353A31330000000094
:1053E00009546F6F6C20436861696E20203A202554
:1053F000730A00000952544F5320202020202020FF
:10540000203A2025730A00004672656552746F7356
:10541000000000000941707056657273696F6E205C
:10542000203A207625730A00312E322E30000000FB
:105430002530326C643A22252D323573223A2025EC
:10544000313573203A207072696F72697479202542
:10545000326C6420203A20737461636B2025346CB5
:10546000642F25346C64200A000000002530326C63
:10547000643A22252D323573223A202531357320A6
:105480003A207072696F726974792025326C6420D9
:10549000203A20737461636B207573656420253432
:1054A0006C640A004572726F722C206E6F20686502
:1054B0006170206775617264206C696D6974732016
:1054C0004150492C2063616E6E6F742067657420B3
:1054D0004865617020616C6C6F636174696F6E20E8
:1054E000696E666F200000005554494C5F41554479
:1054F000494F5F4572726F723A2063616E206E6F22
:10550000742062652073746172746564210A0000FE
:105510006D656D005072696E7420746865206D65EC
:105520006D6F727920737461747573207769746814
:1055300020616C676F73206D656D6F727920757374
:105540006167652073756D6D617279006D656D328F
:10555000000000005072696E7420746865206D65EB
:105560006D6F7279207374617475732077697468D4
:1055700020616C676F732064657461696C65642079
:105580006D656D6F7279207573616765000000004D
:105590007461736B000000005072696E742074684F
:1055A00065207461736B20737461747573000000FF
:1055B000637075005072696E742074686520637042
:1055C000752073746174757300000000252D3330ED
:1055D0007320546F74616C3A2531302E3366204B42
:1055E0006220416C6C6F63617465643A2531302EC2
:1055F0003366204B62202825352E31662525293A31
:10560000282534642920467265653A2531302E33C9
:1056100066204B62202825352E316625252920500D
:1056200065616B203A202531302E3366204B622095
:1056300020506572663A2531302E3366206D6567DD
:10564000612072772F730A00252D33307320546F39
:1056500074616C3A2531302E3366204B6220416CE8
:105660006C6F63617465643A2531302E3366204B6C
:1056700062202825352E31662525293A28253464CF
:105680002920467265653A2531302E3366204B62FB
:10569000202825352E3166252529205065616B206F
:1056A0003A202531302E3366204B620A000000007C
:1056B0000A252D31327320546F74616C4D656D3A3B
:1056C0002531302E3366204B6220467265653A25BF
:1056D00031302E3366204B62202825352E31662549
:1056E000252920557365643A2531302E3366204BC9
:1056F00062202825352E3166252529205065616BCD
:105700003A2531302E3366204B620A00252D313286
:105710007320546F74616C3A2531302E3366204B00
:105720006220416C6C6F63617465643A2531302E80
:105730003366204B62202825352E31662525293AEF
:10574000282534642920467265653A2531302E3388
:1057500066204B62202825352E31662525292050CC
:1057600065616B203A202531302E3366204B620A6A
:105770000000000052544F53204370752075736130
:1057800067652028776974686F757420696E746521
:10579000727275707473293A2025352E326625256C
:1057A000202D2025362E3266204D487A202F20507D
:1057B00065616B203A2025352E32662525202D2067
:1057C00025362E3266204D487A0A0000546F7461E7
:1057D0006C20437075207573616765202877697444
:1057E0006820696E7465727275707473293A20202E
:1057F0002025352E32662525202D2025362E326691
:10580000204D487A0A00000068656C7000000000B6
:10581000546869732068656C700000000000000027
:10582000010203042A2A2A207472616365206465D8
:1058300070746820746F6F20736D616C6C203D3ED6
:1058400020696E637265617365204E425F545241F8
:1058500043455F4C4F475F42554646455253202AC9
:105860002A2A0A0000000000010000000200FEFFDA
:105870000300FDFF0300FFFF010000000000020025
:10588000FFFF0200FEFF01000200FEFF0500FCFF1B
:105890000300FFFF010000000200FEFF0200000005
:1058A00000000200FFFF0100FFFF0100FFFF0200F8
:1058B000FFFF010000000100000000000200FFFFE8
:1058C0000100000000000200000000000100FFFFD6
:1058D0000200FEFF0300FCFF0600FDFF0400FFFFC7
:1058E00002000000FFFF0400FFFF02000100FEFFB6
:1058F0000400FFFF020001000000010001000000A1
:105900000100000000000100FFFF0300FDFF040094
:10591000FEFF030001000000010001000200000082
:105920000200FFFF0400FFFF03000000020002006E
:10593000FFFF0500FFFF030001000100020000005F
:105940000300010002000200010002000100020049
:1059500000000300FFFF0400FEFF0500FDFF030041
:105960000100000002000100010000000300FCFF34
:105970000400FEFF0100000000000100FEFF030024
:10598000FDFF01000100FEFF0200FEFF000002001B
:10599000FFFF0100FFFF000000000300FCFF050007
:1059A000FBFF04000000FFFF0200FEFF0300FEFFFC
:1059B0000200FEFF0300FDFF0400FDFF02000200E5
:1059C000FFFF0300000000000400FEFF0600FDFFD3
:1059D00003000100FFFF0500FDFF050000000100BE
:1059E00002000000010002000100020002000100AC
:1059F000020001000500FDFF0700FBFF0700FDFF9F
:105A00000500FEFF0500FFFF0500FFFF030000008B
:105A10000500FFFF06000000030003000300000074
:105A20000600FEFF06000000040001000200030063
:105A3000040002000400FFFF050001000500010052
:105A40000300000005000000040000000500020043
:105A50000200030003000300030001000400010032
:105A60000300020001000400000004000100020025
:105A70000200FFFF0300000002000000020000001F
:105A800001000100FFFF0300FEFF0200FFFF010015
:105A9000FEFF0300FEFF0300FDFF0200FEFF030008
:105AA000FDFF0100FFFF0100FEFF0100FEFF0100FE
:105AB000FFFFFFFF0000FFFFFEFF0100FEFFFFFFF3
:105AC0000000FDFF0100FDFF0000FFFFFDFF0100E2
:105AD000FCFF0300FBFF0100FDFF0000FDFF0200D3
